{
  "_format": "hh-sol-artifact-1",
  "contractName": "Birra20VentiWelcome",
  "sourceName": "contracts/Birra20VentiWelcome.sol",
  "abi": [
    {
      "inputs": [
        {
          "internalType": "string",
          "name": "name",
          "type": "string"
        },
        {
          "internalType": "string",
          "name": "symbol",
          "type": "string"
        },
        {
          "internalType": "address",
          "name": "chainIntegrateOwner_",
          "type": "address"
        },
        {
          "internalType": "address",
          "name": "admin_",
          "type": "address"
        }
      ],
      "stateMutability": "nonpayable",
      "type": "constructor"
    },
    {
      "inputs": [
        {
          "internalType": "address",
          "name": "cliente",
          "type": "address"
        },
        {
          "internalType": "string",
          "name": "evento",
          "type": "string"
        }
      ],
      "name": "ClienteHaGiaTokenPerEvento",
      "type": "error"
    },
    {
      "inputs": [],
      "name": "ERC725Y_DataKeysValuesEmptyArray",
      "type": "error"
    },
    {
      "inputs": [],
      "name": "ERC725Y_DataKeysValuesLengthMismatch",
      "type": "error"
    },
    {
      "inputs": [],
      "name": "ERC725Y_MsgValueDisallowed",
      "type": "error"
    },
    {
      "inputs": [
        {
          "internalType": "bytes",
          "name": "storedData",
          "type": "bytes"
        }
      ],
      "name": "InvalidExtensionAddress",
      "type": "error"
    },
    {
      "inputs": [
        {
          "internalType": "bytes",
          "name": "data",
          "type": "bytes"
        }
      ],
      "name": "InvalidFunctionSelector",
      "type": "error"
    },
    {
      "inputs": [],
      "name": "LSP4TokenNameNotEditable",
      "type": "error"
    },
    {
      "inputs": [],
      "name": "LSP4TokenSymbolNotEditable",
      "type": "error"
    },
    {
      "inputs": [],
      "name": "LSP4TokenTypeNotEditable",
      "type": "error"
    },
    {
      "inputs": [
        {
          "internalType": "uint256",
          "name": "callIndex",
          "type": "uint256"
        }
      ],
      "name": "LSP8BatchCallFailed",
      "type": "error"
    },
    {
      "inputs": [],
      "name": "LSP8CannotSendToAddressZero",
      "type": "error"
    },
    {
      "inputs": [],
      "name": "LSP8CannotUseAddressZeroAsOperator",
      "type": "error"
    },
    {
      "inputs": [],
      "name": "LSP8InvalidTransferBatch",
      "type": "error"
    },
    {
      "inputs": [
        {
          "internalType": "bytes32",
          "name": "tokenId",
          "type": "bytes32"
        }
      ],
      "name": "LSP8NonExistentTokenId",
      "type": "error"
    },
    {
      "inputs": [
        {
          "internalType": "address",
          "name": "operator",
          "type": "address"
        },
        {
          "internalType": "bytes32",
          "name": "tokenId",
          "type": "bytes32"
        }
      ],
      "name": "LSP8NonExistingOperator",
      "type": "error"
    },
    {
      "inputs": [
        {
          "internalType": "bytes32",
          "name": "tokenId",
          "type": "bytes32"
        },
        {
          "internalType": "address",
          "name": "caller",
          "type": "address"
        }
      ],
      "name": "LSP8NotTokenOperator",
      "type": "error"
    },
    {
      "inputs": [
        {
          "internalType": "address",
          "name": "tokenOwner",
          "type": "address"
        },
        {
          "internalType": "bytes32",
          "name": "tokenId",
          "type": "bytes32"
        },
        {
          "internalType": "address",
          "name": "caller",
          "type": "address"
        }
      ],
      "name": "LSP8NotTokenOwner",
      "type": "error"
    },
    {
      "inputs": [
        {
          "internalType": "address",
          "name": "tokenReceiver",
          "type": "address"
        }
      ],
      "name": "LSP8NotifyTokenReceiverContractMissingLSP1Interface",
      "type": "error"
    },
    {
      "inputs": [
        {
          "internalType": "address",
          "name": "tokenReceiver",
          "type": "address"
        }
      ],
      "name": "LSP8NotifyTokenReceiverIsEOA",
      "type": "error"
    },
    {
      "inputs": [
        {
          "internalType": "address",
          "name": "operator",
          "type": "address"
        },
        {
          "internalType": "bytes32",
          "name": "tokenId",
          "type": "bytes32"
        }
      ],
      "name": "LSP8OperatorAlreadyAuthorized",
      "type": "error"
    },
    {
      "inputs": [
        {
          "internalType": "address",
          "name": "caller",
          "type": "address"
        },
        {
          "internalType": "address",
          "name": "tokenOwner",
          "type": "address"
        },
        {
          "internalType": "bytes32",
          "name": "tokenId",
          "type": "bytes32"
        }
      ],
      "name": "LSP8RevokeOperatorNotAuthorized",
      "type": "error"
    },
    {
      "inputs": [],
      "name": "LSP8TokenContractCannotHoldValue",
      "type": "error"
    },
    {
      "inputs": [
        {
          "internalType": "bytes32",
          "name": "tokenId",
          "type": "bytes32"
        }
      ],
      "name": "LSP8TokenIdAlreadyMinted",
      "type": "error"
    },
    {
      "inputs": [],
      "name": "LSP8TokenIdFormatNotEditable",
      "type": "error"
    },
    {
      "inputs": [],
      "name": "LSP8TokenIdsDataEmptyArray",
      "type": "error"
    },
    {
      "inputs": [],
      "name": "LSP8TokenIdsDataLengthMismatch",
      "type": "error"
    },
    {
      "inputs": [],
      "name": "LSP8TokenOwnerCannotBeOperator",
      "type": "error"
    },
    {
      "inputs": [
        {
          "internalType": "bytes32",
          "name": "tokenId",
          "type": "bytes32"
        },
        {
          "internalType": "address",
          "name": "oldOwner",
          "type": "address"
        },
        {
          "internalType": "address",
          "name": "newOwner",
          "type": "address"
        }
      ],
      "name": "LSP8TokenOwnerChanged",
      "type": "error"
    },
    {
      "inputs": [
        {
          "internalType": "bytes4",
          "name": "functionSelector",
          "type": "bytes4"
        }
      ],
      "name": "NoExtensionFoundForFunctionSelector",
      "type": "error"
    },
    {
      "inputs": [
        {
          "internalType": "address",
          "name": "caller",
          "type": "address"
        }
      ],
      "name": "NotAuthorized",
      "type": "error"
    },
    {
      "inputs": [],
      "name": "OwnableCannotSetZeroAddressAsOwner",
      "type": "error"
    },
    {
      "anonymous": false,
      "inputs": [
        {
          "indexed": true,
          "internalType": "address",
          "name": "nuovoAdmin",
          "type": "address"
        }
      ],
      "name": "AdminSet",
      "type": "event"
    },
    {
      "anonymous": false,
      "inputs": [
        {
          "indexed": true,
          "internalType": "bytes32",
          "name": "dataKey",
          "type": "bytes32"
        },
        {
          "indexed": false,
          "internalType": "bytes",
          "name": "dataValue",
          "type": "bytes"
        }
      ],
      "name": "DataChanged",
      "type": "event"
    },
    {
      "anonymous": false,
      "inputs": [
        {
          "indexed": true,
          "internalType": "address",
          "name": "operator",
          "type": "address"
        },
        {
          "indexed": true,
          "internalType": "address",
          "name": "tokenOwner",
          "type": "address"
        },
        {
          "indexed": true,
          "internalType": "bytes32",
          "name": "tokenId",
          "type": "bytes32"
        },
        {
          "indexed": false,
          "internalType": "bytes",
          "name": "operatorNotificationData",
          "type": "bytes"
        }
      ],
      "name": "OperatorAuthorizationChanged",
      "type": "event"
    },
    {
      "anonymous": false,
      "inputs": [
        {
          "indexed": true,
          "internalType": "address",
          "name": "operator",
          "type": "address"
        },
        {
          "indexed": true,
          "internalType": "address",
          "name": "tokenOwner",
          "type": "address"
        },
        {
          "indexed": true,
          "internalType": "bytes32",
          "name": "tokenId",
          "type": "bytes32"
        },
        {
          "indexed": false,
          "internalType": "bool",
          "name": "notified",
          "type": "bool"
        },
        {
          "indexed": false,
          "internalType": "bytes",
          "name": "operatorNotificationData",
          "type": "bytes"
        }
      ],
      "name": "OperatorRevoked",
      "type": "event"
    },
    {
      "anonymous": false,
      "inputs": [
        {
          "indexed": true,
          "internalType": "address",
          "name": "previousOwner",
          "type": "address"
        },
        {
          "indexed": true,
          "internalType": "address",
          "name": "newOwner",
          "type": "address"
        }
      ],
      "name": "OwnershipTransferred",
      "type": "event"
    },
    {
      "anonymous": false,
      "inputs": [
        {
          "indexed": true,
          "internalType": "address",
          "name": "cliente",
          "type": "address"
        },
        {
          "indexed": false,
          "internalType": "bytes32",
          "name": "tokenId",
          "type": "bytes32"
        },
        {
          "indexed": false,
          "internalType": "string",
          "name": "evento",
          "type": "string"
        },
        {
          "indexed": false,
          "internalType": "uint256",
          "name": "timestamp",
          "type": "uint256"
        }
      ],
      "name": "TokenBenvenutoMintato",
      "type": "event"
    },
    {
      "anonymous": false,
      "inputs": [
        {
          "indexed": true,
          "internalType": "bytes32",
          "name": "tokenId",
          "type": "bytes32"
        },
        {
          "indexed": true,
          "internalType": "bytes32",
          "name": "dataKey",
          "type": "bytes32"
        },
        {
          "indexed": false,
          "internalType": "bytes",
          "name": "dataValue",
          "type": "bytes"
        }
      ],
      "name": "TokenIdDataChanged",
      "type": "event"
    },
    {
      "anonymous": false,
      "inputs": [
        {
          "indexed": false,
          "internalType": "address",
          "name": "operator",
          "type": "address"
        },
        {
          "indexed": true,
          "internalType": "address",
          "name": "from",
          "type": "address"
        },
        {
          "indexed": true,
          "internalType": "address",
          "name": "to",
          "type": "address"
        },
        {
          "indexed": true,
          "internalType": "bytes32",
          "name": "tokenId",
          "type": "bytes32"
        },
        {
          "indexed": false,
          "internalType": "bool",
          "name": "force",
          "type": "bool"
        },
        {
          "indexed": false,
          "internalType": "bytes",
          "name": "data",
          "type": "bytes"
        }
      ],
      "name": "Transfer",
      "type": "event"
    },
    {
      "stateMutability": "payable",
      "type": "fallback"
    },
    {
      "inputs": [],
      "name": "admin",
      "outputs": [
        {
          "internalType": "address",
          "name": "",
          "type": "address"
        }
      ],
      "stateMutability": "view",
      "type": "function"
    },
    {
      "inputs": [
        {
          "internalType": "address",
          "name": "operator",
          "type": "address"
        },
        {
          "internalType": "bytes32",
          "name": "tokenId",
          "type": "bytes32"
        },
        {
          "internalType": "bytes",
          "name": "operatorNotificationData",
          "type": "bytes"
        }
      ],
      "name": "authorizeOperator",
      "outputs": [],
      "stateMutability": "nonpayable",
      "type": "function"
    },
    {
      "inputs": [
        {
          "internalType": "address",
          "name": "tokenOwner",
          "type": "address"
        }
      ],
      "name": "balanceOf",
      "outputs": [
        {
          "internalType": "uint256",
          "name": "",
          "type": "uint256"
        }
      ],
      "stateMutability": "view",
      "type": "function"
    },
    {
      "inputs": [
        {
          "internalType": "bytes[]",
          "name": "data",
          "type": "bytes[]"
        }
      ],
      "name": "batchCalls",
      "outputs": [
        {
          "internalType": "bytes[]",
          "name": "results",
          "type": "bytes[]"
        }
      ],
      "stateMutability": "nonpayable",
      "type": "function"
    },
    {
      "inputs": [
        {
          "internalType": "bytes32",
          "name": "dataKey",
          "type": "bytes32"
        }
      ],
      "name": "getData",
      "outputs": [
        {
          "internalType": "bytes",
          "name": "dataValue",
          "type": "bytes"
        }
      ],
      "stateMutability": "view",
      "type": "function"
    },
    {
      "inputs": [
        {
          "internalType": "bytes32[]",
          "name": "dataKeys",
          "type": "bytes32[]"
        }
      ],
      "name": "getDataBatch",
      "outputs": [
        {
          "internalType": "bytes[]",
          "name": "dataValues",
          "type": "bytes[]"
        }
      ],
      "stateMutability": "view",
      "type": "function"
    },
    {
      "inputs": [
        {
          "internalType": "bytes32[]",
          "name": "tokenIds",
          "type": "bytes32[]"
        },
        {
          "internalType": "bytes32[]",
          "name": "dataKeys",
          "type": "bytes32[]"
        }
      ],
      "name": "getDataBatchForTokenIds",
      "outputs": [
        {
          "internalType": "bytes[]",
          "name": "dataValues",
          "type": "bytes[]"
        }
      ],
      "stateMutability": "view",
      "type": "function"
    },
    {
      "inputs": [
        {
          "internalType": "bytes32",
          "name": "tokenId",
          "type": "bytes32"
        },
        {
          "internalType": "bytes32",
          "name": "dataKey",
          "type": "bytes32"
        }
      ],
      "name": "getDataForTokenId",
      "outputs": [
        {
          "internalType": "bytes",
          "name": "dataValue",
          "type": "bytes"
        }
      ],
      "stateMutability": "view",
      "type": "function"
    },
    {
      "inputs": [
        {
          "internalType": "bytes32",
          "name": "tokenId",
          "type": "bytes32"
        }
      ],
      "name": "getOperatorsOf",
      "outputs": [
        {
          "internalType": "address[]",
          "name": "",
          "type": "address[]"
        }
      ],
      "stateMutability": "view",
      "type": "function"
    },
    {
      "inputs": [
        {
          "internalType": "address",
          "name": "",
          "type": "address"
        },
        {
          "internalType": "string",
          "name": "",
          "type": "string"
        }
      ],
      "name": "haRicevutoPerEvento",
      "outputs": [
        {
          "internalType": "bool",
          "name": "",
          "type": "bool"
        }
      ],
      "stateMutability": "view",
      "type": "function"
    },
    {
      "inputs": [
        {
          "internalType": "address",
          "name": "operator",
          "type": "address"
        },
        {
          "internalType": "bytes32",
          "name": "tokenId",
          "type": "bytes32"
        }
      ],
      "name": "isOperatorFor",
      "outputs": [
        {
          "internalType": "bool",
          "name": "",
          "type": "bool"
        }
      ],
      "stateMutability": "view",
      "type": "function"
    },
    {
      "inputs": [
        {
          "internalType": "address",
          "name": "cliente",
          "type": "address"
        },
        {
          "internalType": "string",
          "name": "evento",
          "type": "string"
        },
        {
          "internalType": "string",
          "name": "ipfsImageURI",
          "type": "string"
        },
        {
          "internalType": "uint256",
          "name": "imageWidth",
          "type": "uint256"
        },
        {
          "internalType": "uint256",
          "name": "imageHeight",
          "type": "uint256"
        }
      ],
      "name": "mintBenvenuto",
      "outputs": [],
      "stateMutability": "nonpayable",
      "type": "function"
    },
    {
      "inputs": [],
      "name": "owner",
      "outputs": [
        {
          "internalType": "address",
          "name": "",
          "type": "address"
        }
      ],
      "stateMutability": "view",
      "type": "function"
    },
    {
      "inputs": [],
      "name": "renounceOwnership",
      "outputs": [],
      "stateMutability": "nonpayable",
      "type": "function"
    },
    {
      "inputs": [
        {
          "internalType": "address",
          "name": "operator",
          "type": "address"
        },
        {
          "internalType": "bytes32",
          "name": "tokenId",
          "type": "bytes32"
        },
        {
          "internalType": "bool",
          "name": "notify",
          "type": "bool"
        },
        {
          "internalType": "bytes",
          "name": "operatorNotificationData",
          "type": "bytes"
        }
      ],
      "name": "revokeOperator",
      "outputs": [],
      "stateMutability": "nonpayable",
      "type": "function"
    },
    {
      "inputs": [
        {
          "internalType": "address",
          "name": "nuovoAdmin",
          "type": "address"
        }
      ],
      "name": "setAdmin",
      "outputs": [],
      "stateMutability": "nonpayable",
      "type": "function"
    },
    {
      "inputs": [
        {
          "internalType": "bytes32",
          "name": "dataKey",
          "type": "bytes32"
        },
        {
          "internalType": "bytes",
          "name": "dataValue",
          "type": "bytes"
        }
      ],
      "name": "setData",
      "outputs": [],
      "stateMutability": "payable",
      "type": "function"
    },
    {
      "inputs": [
        {
          "internalType": "bytes32[]",
          "name": "dataKeys",
          "type": "bytes32[]"
        },
        {
          "internalType": "bytes[]",
          "name": "dataValues",
          "type": "bytes[]"
        }
      ],
      "name": "setDataBatch",
      "outputs": [],
      "stateMutability": "payable",
      "type": "function"
    },
    {
      "inputs": [
        {
          "internalType": "bytes32[]",
          "name": "tokenIds",
          "type": "bytes32[]"
        },
        {
          "internalType": "bytes32[]",
          "name": "dataKeys",
          "type": "bytes32[]"
        },
        {
          "internalType": "bytes[]",
          "name": "dataValues",
          "type": "bytes[]"
        }
      ],
      "name": "setDataBatchForTokenIds",
      "outputs": [],
      "stateMutability": "nonpayable",
      "type": "function"
    },
    {
      "inputs": [
        {
          "internalType": "bytes32",
          "name": "tokenId",
          "type": "bytes32"
        },
        {
          "internalType": "bytes32",
          "name": "dataKey",
          "type": "bytes32"
        },
        {
          "internalType": "bytes",
          "name": "dataValue",
          "type": "bytes"
        }
      ],
      "name": "setDataForTokenId",
      "outputs": [],
      "stateMutability": "nonpayable",
      "type": "function"
    },
    {
      "inputs": [
        {
          "internalType": "bytes4",
          "name": "interfaceId",
          "type": "bytes4"
        }
      ],
      "name": "supportsInterface",
      "outputs": [
        {
          "internalType": "bool",
          "name": "",
          "type": "bool"
        }
      ],
      "stateMutability": "view",
      "type": "function"
    },
    {
      "inputs": [
        {
          "internalType": "address",
          "name": "",
          "type": "address"
        },
        {
          "internalType": "string",
          "name": "",
          "type": "string"
        }
      ],
      "name": "tokenDelClientePerEvento",
      "outputs": [
        {
          "internalType": "bytes32",
          "name": "",
          "type": "bytes32"
        }
      ],
      "stateMutability": "view",
      "type": "function"
    },
    {
      "inputs": [
        {
          "internalType": "address",
          "name": "tokenOwner",
          "type": "address"
        }
      ],
      "name": "tokenIdsOf",
      "outputs": [
        {
          "internalType": "bytes32[]",
          "name": "",
          "type": "bytes32[]"
        }
      ],
      "stateMutability": "view",
      "type": "function"
    },
    {
      "inputs": [
        {
          "internalType": "bytes32",
          "name": "tokenId",
          "type": "bytes32"
        }
      ],
      "name": "tokenOwnerOf",
      "outputs": [
        {
          "internalType": "address",
          "name": "",
          "type": "address"
        }
      ],
      "stateMutability": "view",
      "type": "function"
    },
    {
      "inputs": [],
      "name": "totalSupply",
      "outputs": [
        {
          "internalType": "uint256",
          "name": "",
          "type": "uint256"
        }
      ],
      "stateMutability": "view",
      "type": "function"
    },
    {
      "inputs": [
        {
          "internalType": "address",
          "name": "from",
          "type": "address"
        },
        {
          "internalType": "address",
          "name": "to",
          "type": "address"
        },
        {
          "internalType": "bytes32",
          "name": "tokenId",
          "type": "bytes32"
        },
        {
          "internalType": "bool",
          "name": "force",
          "type": "bool"
        },
        {
          "internalType": "bytes",
          "name": "data",
          "type": "bytes"
        }
      ],
      "name": "transfer",
      "outputs": [],
      "stateMutability": "nonpayable",
      "type": "function"
    },
    {
      "inputs": [
        {
          "internalType": "address[]",
          "name": "from",
          "type": "address[]"
        },
        {
          "internalType": "address[]",
          "name": "to",
          "type": "address[]"
        },
        {
          "internalType": "bytes32[]",
          "name": "tokenId",
          "type": "bytes32[]"
        },
        {
          "internalType": "bool[]",
          "name": "force",
          "type": "bool[]"
        },
        {
          "internalType": "bytes[]",
          "name": "data",
          "type": "bytes[]"
        }
      ],
      "name": "transferBatch",
      "outputs": [],
      "stateMutability": "nonpayable",
      "type": "function"
    },
    {
      "inputs": [
        {
          "internalType": "address",
          "name": "newOwner",
          "type": "address"
        }
      ],
      "name": "transferOwnership",
      "outputs": [],
      "stateMutability": "nonpayable",
      "type": "function"
    },
    {
      "stateMutability": "payable",
      "type": "receive"
    }
  ],
  "bytecode": "0x608080604052346108ff57613927803803809161001c8285610904565b83398101906080818303126108ff5780516001600160401b0381116108ff578261004791830161094a565b602082015190926001600160401b0382116108ff5761006791830161094a565b61007f60606100786040850161099e565b930161099e565b91610089336109de565b6001600160a01b038116156108ee576100a1906109de565b60409283516100b08582610904565b60048152632936598960e21b60208201526000805160206138a7833981519152600052600160205284600020815160018060401b038111610592578154600181811c911680156108e4575b602082101461057257601f811161089c575b506020601f821160011461081557926000805160206139078339815191529282610168936000805160206138a78339815191529660009161080a575b508160011b916000199060031b1c19161790555b8751918291826109b2565b0390a26000805160206138678339815191526000908152600160205284902081516001600160401b038111610592578154600181811c91168015610800575b602082101461057257601f81116107b8575b506020601f8211600114610731579260008051602061390783398151915292826102149360008051602061386783398151915296600091610726575b508160011b916000199060031b1c19161790555b8651918291826109b2565b0390a26000805160206138e78339815191526000908152600160205283902081516001600160401b038111610592578154600181811c9116801561071c575b602082101461057257601f81116106d4575b506020601f8211600114610667579260008051602061390783398151915292826102c0936000805160206138e783398151915296600091610498575b508160011b916000199060031b1c19161790555b8551918291826109b2565b0390a2815160016020820152602081526102da8382610904565b6000805160206138878339815191526000908152600160205283902081516001600160401b038111610592578154600181811c9116801561065d575b602082101461057257601f8111610615575b506020601f82116001146105a857926000805160206139078339815191529282610381936000805160206138878339815191529660009161049857508160011b916000199060031b1c19161790558551918291826109b2565b0390a28151600060208201526020815261039b8382610904565b6000805160206138c78339815191526000908152600160205283902081516001600160401b038111610592578154600181811c91168015610588575b602082101461057257601f811161052a575b506020601f82116001146104a357926000805160206139078339815191529282610442936000805160206138c78339815191529660009161049857508160011b916000199060031b1c19161790558551918291826109b2565b0390a2600680546001600160a01b0319166001600160a01b039290921691821790559051907f8fe72c3e0020beb3234e76ae6676fa576fbfcae600af1c4fea44784cf0db329c600080a2612e419081610a268239f35b9050830151386102a1565b601f1982169083600052806000209160005b8181106105125750836000805160206138c78339815191529693600080516020613907833981519152969361044296600194106104f9575b5050811b0190556102b5565b85015160001960f88460031b161c1916905538806104ed565b9192602060018192868a0151815501940192016104b5565b826000526020600020601f830160051c81019160208410610568575b601f0160051c01905b81811061055c57506103e9565b6000815560010161054f565b9091508190610546565b634e487b7160e01b600052602260045260246000fd5b90607f16906103d7565b634e487b7160e01b600052604160045260246000fd5b601f1982169083600052806000209160005b8181106105fd5750836000805160206138878339815191529693600080516020613907833981519152969361038196600194106104f9575050811b0190556102b5565b9192602060018192868a0151815501940192016105ba565b826000526020600020601f830160051c81019160208410610653575b601f0160051c01905b8181106106475750610328565b6000815560010161063a565b9091508190610631565b90607f1690610316565b601f1982169083600052806000209160005b8181106106bc5750836000805160206138e7833981519152969360008051602061390783398151915296936102c096600194106104f9575050811b0190556102b5565b9192602060018192868a015181550194019201610679565b826000526020600020601f830160051c81019160208410610712575b601f0160051c01905b8181106107065750610265565b600081556001016106f9565b90915081906106f0565b90607f1690610253565b9050830151386101f5565b601f1982169083600052806000209160005b8181106107a0575083600080516020613867833981519152969360008051602061390783398151915296936102149660019410610787575b5050811b019055610209565b85015160001960f88460031b161c19169055388061077b565b9192602060018192868a015181550194019201610743565b826000526020600020601f830160051c810191602084106107f6575b601f0160051c01905b8181106107ea57506101b9565b600081556001016107dd565b90915081906107d4565b90607f16906101a7565b905083015138610149565b601f1982169083600052806000209160005b8181106108845750836000805160206138a783398151915296936000805160206139078339815191529693610168966001941061086b575b5050811b01905561015d565b85015160001960f88460031b161c19169055388061085f565b9192602060018192868a015181550194019201610827565b826000526020600020601f830160051c810191602084106108da575b601f0160051c01905b8181106108ce575061010d565b600081556001016108c1565b90915081906108b8565b90607f16906100fb565b6306b620db60e21b60005260046000fd5b600080fd5b601f909101601f19168101906001600160401b0382119082101761059257604052565b60005b83811061093a5750506000910152565b818101518382015260200161092a565b81601f820112156108ff5780516001600160401b038111610592576040519261097d601f8301601f191660200185610904565b818452602082840101116108ff5761099b9160208085019101610927565b90565b51906001600160a01b03821682036108ff57565b604091602082526109d28151809281602086015260208686019101610927565b601f01601f1916010190565b600080546001600160a01b039283166001600160a01b03198216811783559216907f8be0079c531659141344cd1fd0a4f28419497f9722a3daafe3b4186f6b6457e09080a356fe6080604052600436101561002a575b36156100255761001d36611dc2565b602081519101f35b611d85565b60003560e01c806301ffc9a7146101ea57806316e023b3146101e557806318160ddd146101e05780631d26fce6146101db578063217b2270146101d65780632a3654a4146101d157806337a649e9146101cc57806349a6078d146101c7578063511b6952146101c257806354f6127f146101bd5780636963d438146101b8578063704b6c02146101b357806370a08231146101ae57806370afd221146101a9578063715018a6146101a457806378b5a6161461019f5780637e87632c1461019a5780637f23690c1461019557806386a10ddd146101905780638da5cb5b1461018b5780639790242114610186578063a3b261f214610181578063be9f0e6f1461017c578063d6c1407c14610177578063db8c966314610172578063dedff9c61461016d578063f2fde38b146101685763f851a4400361000e576116e3565b611618565b611591565b6114b6565b61146f565b61137f565b6112fc565b611204565b6111db565b6110d9565b611084565b610fcc565b610e2b565b610dd2565b61098b565b610924565b61089e565b610832565b610813565b6107ac565b6106e8565b610652565b610568565b610522565b610462565b610334565b6102fe565b3461029d57602036600319011261029d576004356001600160e01b0319811680820361029d5761024191631d138b8360e11b8214918215610255575b508115610245575b5060405190151581529081906020820190565b0390f35b61024f9150611dfc565b3861022e565b90915063a918fa6b60e01b8114908115610272575b509038610226565b6318a6a9a560e21b81149150811561028c575b503861026a565b6301ffc9a760e01b14905038610285565b600080fd5b60005b8381106102b55750506000910152565b81810151838201526020016102a5565b906020916102de815180928185528580860191016102a2565b601f01601f1916010190565b9060206102fb9281815201906102c5565b90565b3461029d57604036600319011261029d57610241610320602435600435611f39565b6040519182916020835260208301906102c5565b3461029d57600036600319011261029d576020600254604051908152f35b634e487b7160e01b600052604160045260246000fd5b90601f801991011681019081106001600160401b0382111761038957604052565b610352565b6001600160401b0381116103895760051b60200190565b9080601f8301121561029d5781356103bc8161038e565b926103ca6040519485610368565b81845260208085019260051b82010192831161029d57602001905b8282106103f25750505090565b81358152602091820191016103e5565b602081016020825282518091526040820191602060408360051b8301019401926000915b83831061043557505050505090565b9091929394602080610453600193603f1986820301875289516102c5565b97019301930191939290610426565b3461029d57604036600319011261029d576004356001600160401b03811161029d576104929036906004016103a5565b6024356001600160401b03811161029d576104b19036906004016103a5565b906104bf815183511461170c565b6104c98151611724565b9160005b825181101561051457806104f86104e660019386611784565b516104f18386611784565b5190611f39565b6105028287611784565b5261050d8186611784565b50016104cd565b604051806102418682610402565b3461029d57602036600319011261029d5760206105406004356117b9565b6040516001600160a01b039091168152f35b600435906001600160a01b038216820361029d57565b3461029d57604036600319011261029d57602061058f610586610552565b60243590611fd5565b6040519015158152f35b6001600160401b03811161038957601f01601f191660200190565b9291926105c082610599565b916105ce6040519384610368565b82948184528183011161029d578281602093846000960137010152565b90604060031983011261029d576004356001600160a01b038116810361029d5791602435906001600160401b03821161029d578060238301121561029d578160246102fb936004013591016105b4565b9061064e602092828151948592016102a2565b0190565b3461029d57602060ff61069082610668366105eb565b9060018060a01b031660005260088252604060002082604051948386809551938492016102a2565b82019081520301902054166040519015158152f35b602060408183019282815284518094520192019060005b8181106106c95750505090565b82516001600160a01b03168452602093840193909201916001016106bc565b3461029d57602036600319011261029d576004356000818152600360205260409020546107219082906001600160a01b0316151561179d565b6000526005602052604060002060405190816020825491828152019160005260206000209060005b81811061076c576102418561076081870382610368565b604051918291826106a5565b8254845260209093019260019283019201610749565b60443590811515820361029d57565b9080601f8301121561029d578160206102fb933591016105b4565b3461029d5760a036600319011261029d576107c5610552565b602435906001600160a01b038216820361029d57606435604435811515820361029d57608435936001600160401b03851161029d5761080b610811953690600401610791565b936117de565b005b3461029d57602036600319011261029d57610241610320600435611953565b3461029d57602036600319011261029d576004356001600160401b03811161029d573660238201121561029d578060040135906001600160401b03821161029d573660248360051b8301011161029d576102419160246108929201611a54565b60405191829182610402565b3461029d57602036600319011261029d576108b7610552565b6000546001600160a01b0316330361090f57600680546001600160a01b0319166001600160a01b039290921691821790557f8fe72c3e0020beb3234e76ae6676fa576fbfcae600af1c4fea44784cf0db329c600080a2005b634a0bfec160e01b6000523360045260246000fd5b3461029d57602036600319011261029d576001600160a01b03610945610552565b1660005260046020526020604060002054604051908152f35b9181601f8401121561029d578235916001600160401b03831161029d576020838186019501011161029d57565b3461029d5760a036600319011261029d576109a4610552565b6024356001600160401b03811161029d576109c390369060040161095e565b916044356001600160401b03811161029d576109e390369060040161095e565b60065460643592608435916001600160a01b0316330361090f576001600160a01b0385166000908152600860205260409020610a2b90610a24908989611b28565b5460ff1690565b610db157600954610a3b90611b9a565b6009556009546001600160a01b0386166000908152600860205260409020909490610a67908989611b28565b805460ff191660011790556001600160a01b03861660009081526007602052604090208590610a97908a8a611b28565b55610aa0611a0f565b610aab9086886120f5565b610ab490612286565b91610abe90612286565b9260405193849360208501610b7e90608c907f7b224c5350344d65746164617461223a7b226e616d65223a224269727261323081527f56656e74692057656c636f6d65222c226465736372697074696f6e223a22312060208201527f6269727261206f6d616767696f206f676e6920352061637175697374692e204f60408201527f7264696e6120636f6e2069206461746920636f6e20637569207469207365692060608201526b3932b3b4b9ba3930ba37971160a11b60808201520190565b74161134b6b0b3b2b9911d2dadbd913bb4b23a34111d60591b8152601501610ba59161063b565b6916113432b4b3b43a111d60b11b8152600a01610bc19161063b565b6716113ab936111d1160c11b815260080190610bdc92611a01565b7f222c22766572696669636174696f6e223a7b226d6574686f64223a226b65636381527f616b32353628627974657329222c2264617461223a223078227d7d5d5d0000006020820152603d016e2c2261747472696275746573223a5b60881b8152600f017f7b226b6579223a226272616e64222c2276616c7565223a224269727261323056815266195b9d1a489f4b60ca1b60208201526027017f7b226b6579223a2262656e65666974222c2276616c7565223a2231206269727281527f61206f6d616767696f206f676e692035206163717569737469227d2c000000006020820152603c017f7b226b6579223a226576656e746f222c2276616c7565223a22000000000000008152601901610cf3908787611a01565b61227d60f01b8152600201625d7d7d60e81b815260030103601f1981018252610d1c9082610368565b604051602081019080610d4d8584603191702629a81c26b2ba30b230ba30a529a7a71d60791b825260118201520190565b03601f1981018252610d5f9082610368565b51902090610d6c9161233a565b6040516001600160a01b039092169391928392610d8c9242929085611bae565b037eec5b82228e8f7599d26dcc6f0fd04b059033d17fc8d39c7314e2b7228c3f6b91a2005b6040516393fc05f960e01b815280610dce89898960048501611b62565b0390fd5b3461029d57600036600319011261029d57610deb612468565b600080546001600160a01b0319811682556001600160a01b03167f8be0079c531659141344cd1fd0a4f28419497f9722a3daafe3b4186f6b6457e08280a3005b3461029d576020610e6781610e3f366105eb565b9060018060a01b031660005260078252604060002082604051948386809551938492016102a2565b82019081520301902054604051908152f35b9080601f8301121561029d57813590610e918261038e565b92610e9f6040519485610368565b82845260208085019360051b82010191821161029d57602001915b818310610ec75750505090565b82356001600160a01b038116810361029d57815260209283019201610eba565b9080601f8301121561029d57813590610eff8261038e565b92610f0d6040519485610368565b82845260208085019360051b82010191821161029d57602001915b818310610f355750505090565b8235801515810361029d57815260209283019201610f28565b9080601f8301121561029d578135610f658161038e565b92610f736040519485610368565b81845260208085019260051b8201019183831161029d5760208201905b838210610f9f57505050505090565b81356001600160401b03811161029d57602091610fc187848094880101610791565b815201910190610f90565b3461029d5760a036600319011261029d576004356001600160401b03811161029d57610ffc903690600401610e79565b6024356001600160401b03811161029d5761101b903690600401610e79565b906044356001600160401b03811161029d5761103b9036906004016103a5565b6064356001600160401b03811161029d5761105a903690600401610ee7565b90608435936001600160401b03851161029d5761107e610811953690600401610f4e565b93611bd1565b604036600319011261029d576004356024356001600160401b03811161029d576110b2903690600401610791565b6110ba612468565b346110c8576108119161233a565b63f36ba73760e01b60005260046000fd5b3461029d57606036600319011261029d576110f2610552565b602435604435916001600160401b03831161029d576111d661111b610811943690600401610791565b9280611126816117b9565b6001600160a01b038116906111419033908490828514611ca0565b6001600160a01b038516611156811515611cd7565b61116282821415611cef565b826000526005602052611183838761117e846040600020612bba565b611d07565b7f1b1b58aa2ec0cec2228b2d37124556d41f5a1f7b12f089171f896cc236671215604051806111b28a826102ea565b0390a46111c86040519485923360208501611d2f565b03601f198101845283610368565b612c26565b3461029d57600036600319011261029d576000546040516001600160a01b039091168152602090f35b604036600319011261029d576004356001600160401b03811161029d5761122f9036906004016103a5565b6024356001600160401b03811161029d5761124e903690600401610f4e565b90611257612468565b346110c85780518251036112b1578051156112a05760005b8151811015610811578061129a61128860019385611784565b516112938387611784565b519061233a565b0161126f565b6397da5f9560e01b60005260046000fd5b633bcc897960e01b60005260046000fd5b602060408183019282815284518094520192019060005b8181106112e65750505090565b82518452602093840193909201916001016112d9565b3461029d57602036600319011261029d576001600160a01b0361131d610552565b166000526004602052604060002060405190816020825491828152019160005260206000209060005b818110611369576102418561135d81870382610368565b604051918291826112c2565b8254845260209093019260019283019201611346565b3461029d57606036600319011261029d576004356001600160401b03811161029d576113af9036906004016103a5565b6024356001600160401b03811161029d576113ce9036906004016103a5565b6044356001600160401b03811161029d576113ed903690600401610f4e565b916113f6612468565b61140d815183518091149081611464575b5061170c565b8051156114535760005b8151811015610811578061144d61143060019385611784565b5161143b8387611784565b516114468489611784565b51916125fd565b01611417565b6380c9830560e01b60005260046000fd5b905084511438611407565b3461029d57606036600319011261029d576044356004356024356001600160401b03831161029d576114a8610811933690600401610791565b916114b1612468565b6125fd565b3461029d57608036600319011261029d576114cf610552565b6024356114da610782565b916064356001600160401b03811161029d576114fa903690600401610791565b611503836117b9565b936001600160a01b03851633819003611564575b611537906001600160a01b038516611530811515611cd7565b1415611cef565b611544828286888761273f565b61154a57005b610811936111c86111d69260405195869360208501611d5a565b336001600160a01b0385161461151757849063760b5acd60e01b6000523360045260245260445260646000fd5b3461029d57602036600319011261029d576004356001600160401b03811161029d576115c19036906004016103a5565b6115cb8151611724565b9060005b815181101561160a57806115ee6115e860019385611784565b51611953565b6115f88286611784565b526116038185611784565b50016115cf565b604051806102418582610402565b3461029d57602036600319011261029d57611631610552565b611639612468565b6001600160a01b0381161561168f57600080546001600160a01b039283166001600160a01b03198216811783559216907f8be0079c531659141344cd1fd0a4f28419497f9722a3daafe3b4186f6b6457e09080a3005b60405162461bcd60e51b815260206004820152602660248201527f4f776e61626c653a206e6577206f776e657220697320746865207a65726f206160448201526564647265737360d01b6064820152608490fd5b3461029d57600036600319011261029d576006546040516001600160a01b039091168152602090f35b1561171357565b6317d38eff60e11b60005260046000fd5b9061172e8261038e565b61173b6040519182610368565b828152809261174c601f199161038e565b019060005b82811061175d57505050565b806060602080938501015201611751565b634e487b7160e01b600052603260045260246000fd5b80518210156117985760209160051b010190565b61176e565b156117a55750565b635747cd1b60e11b60005260045260246000fd5b6000818152600360205260409020546001600160a01b0316906102fb9082151561179d565b909293916117ec8133611fd5565b1561193b5761193994926111c8949261192f838061180c611934966117b9565b6001600160a01b038581169061185d90831661182c888686868514611ca0565b6001600160a01b038b1693611842851515612028565b8561184c816117b9565b926001600160a01b03841614612040565b611867838761295e565b6001600160a01b038616600090815260046020526040902061188a908490612d50565b506001600160a01b03891660009081526004602052604090206118ae908490612bba565b506118e6896118c7856000526003602052604060002090565b80546001600160a01b0319166001600160a01b03909216919091179055565b6040517fb333c813a7426a7a11e2b190cad52c44119421594b47f6f32ace6d8c7207b2bf90806119188a8e3384612075565b0390a460405197889485928886336020870161209f565b612c8a565b612ae4565b565b631294d2a960e01b6000526004523360245260446000fd5b600052600160205260406000206040519081600082549261197384611eff565b80845293600181169081156119df5750600114611998575b506102fb92500382610368565b90506000929192526020600020906000915b8183106119c35750509060206102fb928201013861198b565b60209193508060019154838588010152019101909183926119aa565b9050602092506102fb94915060ff191682840152151560051b8201013861198b565b908092918237016000815290565b60405190611a1e602083610368565b60008252565b3d15611a4f573d90611a3582610599565b91611a436040519384610368565b82523d6000602084013e565b606090565b919091611a6083611724565b9260005b818110611a7057505050565b600082821015611798578160051b840135601e1985360301811215611b24578401908135916001600160401b038311611b2457602001908236038213611b21575060009181839250611ac760405180938193611a01565b0390305af4611ad4611a24565b9015611afa5790600191611ae88288611784565b52611af38187611784565b5001611a64565b805190919015611b0d5750805190602001fd5b63234eb81960e01b60005260045260246000fd5b80fd5b5080fd5b6020919283604051948593843782019081520301902090565b908060209392818452848401376000828201840152601f01601f1916010190565b6001600160a01b0390911681526040602082018190526102fb93910191611b41565b634e487b7160e01b600052601160045260246000fd5b6000198114611ba95760010190565b611b84565b94939291604092611bcc928752606060208801526060870191611b41565b930152565b94939091928551938351851480611c96575b80611c8c575b80611c82575b15611c715760005b858110611c08575050505050509050565b80611c6b611c186001938b611784565b838060a01b03905116611c3b611c2e848a611784565b516001600160a01b031690565b611c458487611784565b51611c59611c53868a611784565b51151590565b91611c64868b611784565b51936117de565b01611bf7565b6393a8311960e01b60005260046000fd5b5082518514611bef565b5081518514611be9565b5080518514611be3565b15611caa57505050565b632d938f5160e11b60009081526001600160a01b0391821660045260249290925291909116604452606490fd5b15611cde57565b639577b8b360e01b60005260046000fd5b15611cf657565b6344fed6b160e11b60005260046000fd5b15611d10575050565b6314ec4d6d60e31b60005260018060a01b031660045260245260446000fd5b6102fb939260809260018060a01b0316825260208201526001604082015281606082015201906102c5565b6102fb939260809260018060a01b0316825260208201526000604082015281606082015201906102c5565b3415611d9c576330fa4a2160e11b60005260046000fd5b606460405163e5099ee360e01b8152602060048201526004602482015260006044820152fd5b60043610611dd5576102fb9060006127fa565b60405163e5099ee360e01b815260206004820152908190610dce9060248301906000611b41565b611e65611e48611e43604051696773c5a04a6d4300884b60b11b60208201526000602a8201526301ffc9a760e01b602c82015260208152611e3e604082610368565b612cee565b611953565b611e6081805160148114908115611ed7575b506128b9565b6128e6565b60601c908115611ed057602091600091604051848101916301ffc9a760e01b835263ffffffff60e01b16602482015260248152611ea3604482610368565b5191617530fa6000513d82611ec4575b5081611ebd575090565b9050151590565b60201115915038611eb3565b5050600090565b90501538611e5a565b9190604051926020840152604083015260408252611939606083610368565b90600182811c92168015611f2f575b6020831014611f1957565b634e487b7160e01b600052602260045260246000fd5b91607f1691611f0e565b90611f4391611ee0565b602081519101206000526001602052604060002060405190816000825492611f6a84611eff565b80845293600181169081156119df5750600114611f8e57506102fb92500382610368565b90506000929192526020600020906000915b818310611fb95750509060206102fb928201013861198b565b6020919350806001915483858801015201910190918392611fa0565b6001600160a01b03611fe6836117b9565b6001600160a01b039092169116811491821561200157505090565b6102fb92506000526005602052604060002060019160005201602052604060002054151590565b1561202f57565b6324ecef4d60e01b60005260046000fd5b1561204a57505050565b635a9c31d360e01b60009081526004919091526001600160a01b039182166024529116604452606490fd5b6001600160a01b03909116815290151560208201526060604082018190526102fb929101906102c5565b6001600160a01b03918216815291811660208301529091166040820152606081019190915260a0608082018190526102fb929101906102c5565b156120e15750565b6334c7b51160e01b60005260045260246000fd5b611939926001600160a01b0382169260019291611934919061221a9061211c871515612028565b6000838152600360205260409020546121409084906001600160a01b0316156120d9565b6000838152600360205260409020546121649084906001600160a01b0316156120d9565b61216f600254611b9a565b6002556001600160a01b0385166000908152600460205260409020612195908490612bba565b506121ae856118c7856000526003602052604060002090565b828760007fb333c813a7426a7a11e2b190cad52c44119421594b47f6f32ace6d8c7207b2bf604051806121e3878d3384612075565b0390a460a060405197889460208601918980851b0333168352600060208401526040830152606082015281608082015201906102c5565b03601f198101855284610368565b9061223282610599565b61223f6040519182610368565b8281528092612250601f1991610599565b0190602036910137565b8015611ba9576000190190565b6030019081603011611ba957565b908151811015611798570160200190565b90811561231957600082805b6122fe5750826122a182612228565b91905b6122ad57509150565b6122b96122f79161225a565b936122e26122d26122cc600a8406612267565b60ff1690565b60f81b6001600160f81b03191690565b60001a6122ef8685612275565b53600a900490565b92836122a4565b9061230b61231391611b9a565b91600a900490565b80612292565b9050604051612329604082610368565b60018152600360fc1b602082015290565b907ff675e9361af1c1664c1868cfa3eb97672d6b1a513aa5b81dec34c9ee330e818d8214612457577fdeba1e292f8ba88238e10ab3c7f88bd4be4fac56cad5194b6ecceaf653468af1820361239a576385c169bd60e01b60005260046000fd5b7f2f0a68ab07768e01943a599e73362a0e17a63a72e94dd2e384d2c1d4db93275682036123d257630eceab6760e31b60005260046000fd5b7fe0261fa95db2eb3b5439bd033cda66d56b96f92f243a8228fd87550ed7bdfdb3820361240a57634ef6d7fb60e01b60005260046000fd5b6124527fece574603820d07bc9b91f2a932baadf4628aabcb8afba49776529c14a6104b291836000526001602052612446816040600020612530565b604051918291826102ea565b0390a2565b631b32400560e11b60005260046000fd5b6000546001600160a01b0316330361247c57565b606460405162461bcd60e51b815260206004820152602060248201527f4f776e61626c653a2063616c6c6572206973206e6f7420746865206f776e65726044820152fd5b916124da9183549060031b91821b91600019901b19161790565b9055565b601f82116124eb57505050565b6000526020600020906020601f840160051c83019310612526575b601f0160051c01905b81811061251a575050565b6000815560010161250f565b9091508190612506565b91909182516001600160401b03811161038957612557816125518454611eff565b846124de565b6020601f82116001146125945781906124da939495600092612589575b50508160011b916000199060031b1c19161790565b015190503880612574565b601f198216906125a984600052602060002090565b9160005b8181106125e5575095836001959697106125cc575b505050811b019055565b015160001960f88460031b161c191690553880806125c2565b9192602060018192868b0151815501940192016125ad565b90916126098383611ee0565b602081519101206000526001602052604060002081516001600160401b0381116103895761263b816125518454611eff565b6020601f82116001146126ae5791612690827fa6e4251f855f750545fe414f120db91c76b88def14d120969e5bb2d3f05debbb959361269e956000916126a3575b508160011b916000199060031b1c19161790565b9055604051918291826102ea565b0390a3565b90508401513861267c565b601f198216906126c384600052602060002090565b9160005b81811061272757509261269e9492600192827fa6e4251f855f750545fe414f120db91c76b88def14d120969e5bb2d3f05debbb98961061270e575b5050811b019055612446565b85015160001960f88460031b161c191690553880612702565b9192602060018192868a0151815501940192016126c7565b91939284600052600560205261276360406000209360018060a01b03168094612d50565b156127b957604080519115158252602082018190526001600160a01b03909216937fc78cd419d6136f9f1c1c6aec1d3fae098cffaf8bc86314a8f2685e32fe574e3c9282916127b4918301906102c5565b0390a4565b84836312a8c6a360e21b60005260045260245260446000fd5b826034959392823701916bffffffffffffffffffffffff199060601b16825260148201520190565b63ffffffff60e01b600035169161284b611e48611e43604051696773c5a04a6d4300884b60b11b60208201526000602a82015263ffffffff60e01b8716602c82015260208152611e3e604082610368565b60601c9283156128a5575091600092916128786128868594604051928391602083019534913391886127d2565b03601f198101835282610368565b519134905af1612894611a24565b901561289d5790565b602081519101fd5b63bb370b2b60e01b60005260045260246000fd5b156128c15750565b6040516342bfe79f60e01b815260206004820152908190610dce9060248301906102c5565b9060208251920151916bffffffffffffffffffffffff198316926014821061290c575050565b6bffffffffffffffffffffffff1960149290920360031b82901b16169150565b6000602091604051838101906301ffc9a760e01b8252631aed5a8560e21b602482015260248152611ea3604482610368565b8160005260056020526040600020918254916000936020945b84811061298657505050505050565b60008254156117985782815286902054604051906001600160a01b031660006129af8984610368565b80835286815260058952604081206001600160a01b03909216916129d4908390612d50565b15612a2d579186917fc78cd419d6136f9f1c1c6aec1d3fae098cffaf8bc86314a8f2685e32fe574e3c6001959460405190815260408c82015280612a24888060a01b038b169560408301906102c5565b0390a401612977565b866044926312a8c6a360e21b8352600452602452fd5b60208183031261029d578051906001600160401b03821161029d570181601f8201121561029d578051612a7581610599565b92612a836040519485610368565b8184526020828401011161029d576102fb91602080850191016102a2565b9060406102fb927f0b084a55ebf70fd3c06fd755269dac2212c4d3f0f4d09079780bfa50c1b2984d815281602082015201906102c5565b6040513d6000823e3d90fd5b9190612aef8361292c565b15612b575750612b196000928392604051948580948193631aed5a8560e21b835260048301612aa1565b03926001600160a01b03165af18015612b5257612b335750565b612b4f903d806000833e612b478183610368565b810190612a43565b50565b612ad8565b905015612b615750565b803b15612b8557634349776d60e01b6000526001600160a01b031660045260246000fd5b630317313760e01b6000526001600160a01b031660045260246000fd5b80548210156117985760005260206000200190600090565b6000828152600182016020526040902054611ed057805490680100000000000000008210156103895782612c0f612bf8846001809601855584612ba2565b819391549060031b91821b91600019901b19161790565b905580549260005201602052604060002055600190565b612c2f8161292c565b612c37575050565b612b19600092918392604051948580948193631aed5a8560e21b83527f8a1c15a8799f71b547e08e2bcb2e85257e81b0a07eee2ce6712549eef1f0097060048401526040602484015260448301906102c5565b612c938161292c565b612c9b575050565b612b19600092918392604051948580948193631aed5a8560e21b83527fb23eae7e6d1564b295b4c3e3be402d9a2f0776c57bdf365903496f6fa481ab0060048401526040602484015260448301906102c5565b602081519101519060208110612d02575090565b6000199060200360031b1b1690565b80548015612d3a576000190190612d288282612ba2565b8154906000199060031b1b1916905555565b634e487b7160e01b600052603160045260246000fd5b6001810191806000528260205260406000205492831515600014612e02576000198401848111611ba9578354600019810194908511611ba9576000958583612da494612db39803612db9575b505050612d11565b90600052602052604060002090565b55600190565b612de9612de391612dda612dd0612df99588612ba2565b90549060031b1c90565b92839187612ba2565b906124c0565b8590600052602052604060002090565b55388080612d9c565b5050505060009056fea2646970667358221220348c81a57102f26b3dd005c876a9f57ada3b580411d9691dbe0ae6f1bceaa4d964736f6c634300081c0033deba1e292f8ba88238e10ab3c7f88bd4be4fac56cad5194b6ecceaf653468af1e0261fa95db2eb3b5439bd033cda66d56b96f92f243a8228fd87550ed7bdfdb3eafec4d89fa9619884b60000a4d96624a38f7ac2d8d9a604ecf07c12c77e480cf675e9361af1c1664c1868cfa3eb97672d6b1a513aa5b81dec34c9ee330e818d2f0a68ab07768e01943a599e73362a0e17a63a72e94dd2e384d2c1d4db932756ece574603820d07bc9b91f2a932baadf4628aabcb8afba49776529c14a6104b2",
  "linkReferences": {},
  "deployedLinkReferences": {}
}