{
  "_format": "hh-sol-artifact-1",
  "contractName": "Birra20VentiWelcome",
  "sourceName": "contracts/Birra20VentiWelcome.sol",
  "abi": [
    {
      "inputs": [
        {
          "internalType": "string",
          "name": "name",
          "type": "string"
        },
        {
          "internalType": "string",
          "name": "symbol",
          "type": "string"
        },
        {
          "internalType": "address",
          "name": "owner",
          "type": "address"
        }
      ],
      "stateMutability": "nonpayable",
      "type": "constructor"
    },
    {
      "inputs": [
        {
          "internalType": "address",
          "name": "cliente",
          "type": "address"
        },
        {
          "internalType": "string",
          "name": "evento",
          "type": "string"
        }
      ],
      "name": "ClienteHaGiaTokenPerEvento",
      "type": "error"
    },
    {
      "inputs": [],
      "name": "ERC725Y_DataKeysValuesEmptyArray",
      "type": "error"
    },
    {
      "inputs": [],
      "name": "ERC725Y_DataKeysValuesLengthMismatch",
      "type": "error"
    },
    {
      "inputs": [],
      "name": "ERC725Y_MsgValueDisallowed",
      "type": "error"
    },
    {
      "inputs": [
        {
          "internalType": "bytes",
          "name": "storedData",
          "type": "bytes"
        }
      ],
      "name": "InvalidExtensionAddress",
      "type": "error"
    },
    {
      "inputs": [
        {
          "internalType": "bytes",
          "name": "data",
          "type": "bytes"
        }
      ],
      "name": "InvalidFunctionSelector",
      "type": "error"
    },
    {
      "inputs": [],
      "name": "LSP4TokenNameNotEditable",
      "type": "error"
    },
    {
      "inputs": [],
      "name": "LSP4TokenSymbolNotEditable",
      "type": "error"
    },
    {
      "inputs": [],
      "name": "LSP4TokenTypeNotEditable",
      "type": "error"
    },
    {
      "inputs": [
        {
          "internalType": "uint256",
          "name": "callIndex",
          "type": "uint256"
        }
      ],
      "name": "LSP8BatchCallFailed",
      "type": "error"
    },
    {
      "inputs": [],
      "name": "LSP8CannotSendToAddressZero",
      "type": "error"
    },
    {
      "inputs": [],
      "name": "LSP8CannotUseAddressZeroAsOperator",
      "type": "error"
    },
    {
      "inputs": [],
      "name": "LSP8InvalidTransferBatch",
      "type": "error"
    },
    {
      "inputs": [
        {
          "internalType": "bytes32",
          "name": "tokenId",
          "type": "bytes32"
        }
      ],
      "name": "LSP8NonExistentTokenId",
      "type": "error"
    },
    {
      "inputs": [
        {
          "internalType": "address",
          "name": "operator",
          "type": "address"
        },
        {
          "internalType": "bytes32",
          "name": "tokenId",
          "type": "bytes32"
        }
      ],
      "name": "LSP8NonExistingOperator",
      "type": "error"
    },
    {
      "inputs": [
        {
          "internalType": "bytes32",
          "name": "tokenId",
          "type": "bytes32"
        },
        {
          "internalType": "address",
          "name": "caller",
          "type": "address"
        }
      ],
      "name": "LSP8NotTokenOperator",
      "type": "error"
    },
    {
      "inputs": [
        {
          "internalType": "address",
          "name": "tokenOwner",
          "type": "address"
        },
        {
          "internalType": "bytes32",
          "name": "tokenId",
          "type": "bytes32"
        },
        {
          "internalType": "address",
          "name": "caller",
          "type": "address"
        }
      ],
      "name": "LSP8NotTokenOwner",
      "type": "error"
    },
    {
      "inputs": [
        {
          "internalType": "address",
          "name": "tokenReceiver",
          "type": "address"
        }
      ],
      "name": "LSP8NotifyTokenReceiverContractMissingLSP1Interface",
      "type": "error"
    },
    {
      "inputs": [
        {
          "internalType": "address",
          "name": "tokenReceiver",
          "type": "address"
        }
      ],
      "name": "LSP8NotifyTokenReceiverIsEOA",
      "type": "error"
    },
    {
      "inputs": [
        {
          "internalType": "address",
          "name": "operator",
          "type": "address"
        },
        {
          "internalType": "bytes32",
          "name": "tokenId",
          "type": "bytes32"
        }
      ],
      "name": "LSP8OperatorAlreadyAuthorized",
      "type": "error"
    },
    {
      "inputs": [
        {
          "internalType": "address",
          "name": "caller",
          "type": "address"
        },
        {
          "internalType": "address",
          "name": "tokenOwner",
          "type": "address"
        },
        {
          "internalType": "bytes32",
          "name": "tokenId",
          "type": "bytes32"
        }
      ],
      "name": "LSP8RevokeOperatorNotAuthorized",
      "type": "error"
    },
    {
      "inputs": [],
      "name": "LSP8TokenContractCannotHoldValue",
      "type": "error"
    },
    {
      "inputs": [
        {
          "internalType": "bytes32",
          "name": "tokenId",
          "type": "bytes32"
        }
      ],
      "name": "LSP8TokenIdAlreadyMinted",
      "type": "error"
    },
    {
      "inputs": [],
      "name": "LSP8TokenIdFormatNotEditable",
      "type": "error"
    },
    {
      "inputs": [],
      "name": "LSP8TokenIdsDataEmptyArray",
      "type": "error"
    },
    {
      "inputs": [],
      "name": "LSP8TokenIdsDataLengthMismatch",
      "type": "error"
    },
    {
      "inputs": [],
      "name": "LSP8TokenOwnerCannotBeOperator",
      "type": "error"
    },
    {
      "inputs": [
        {
          "internalType": "bytes32",
          "name": "tokenId",
          "type": "bytes32"
        },
        {
          "internalType": "address",
          "name": "oldOwner",
          "type": "address"
        },
        {
          "internalType": "address",
          "name": "newOwner",
          "type": "address"
        }
      ],
      "name": "LSP8TokenOwnerChanged",
      "type": "error"
    },
    {
      "inputs": [
        {
          "internalType": "bytes4",
          "name": "functionSelector",
          "type": "bytes4"
        }
      ],
      "name": "NoExtensionFoundForFunctionSelector",
      "type": "error"
    },
    {
      "inputs": [
        {
          "internalType": "address",
          "name": "caller",
          "type": "address"
        }
      ],
      "name": "NotAuthorized",
      "type": "error"
    },
    {
      "inputs": [],
      "name": "OwnableCannotSetZeroAddressAsOwner",
      "type": "error"
    },
    {
      "anonymous": false,
      "inputs": [
        {
          "indexed": true,
          "internalType": "bytes32",
          "name": "dataKey",
          "type": "bytes32"
        },
        {
          "indexed": false,
          "internalType": "bytes",
          "name": "dataValue",
          "type": "bytes"
        }
      ],
      "name": "DataChanged",
      "type": "event"
    },
    {
      "anonymous": false,
      "inputs": [
        {
          "indexed": true,
          "internalType": "address",
          "name": "operator",
          "type": "address"
        },
        {
          "indexed": true,
          "internalType": "address",
          "name": "tokenOwner",
          "type": "address"
        },
        {
          "indexed": true,
          "internalType": "bytes32",
          "name": "tokenId",
          "type": "bytes32"
        },
        {
          "indexed": false,
          "internalType": "bytes",
          "name": "operatorNotificationData",
          "type": "bytes"
        }
      ],
      "name": "OperatorAuthorizationChanged",
      "type": "event"
    },
    {
      "anonymous": false,
      "inputs": [
        {
          "indexed": true,
          "internalType": "address",
          "name": "operator",
          "type": "address"
        },
        {
          "indexed": true,
          "internalType": "address",
          "name": "tokenOwner",
          "type": "address"
        },
        {
          "indexed": true,
          "internalType": "bytes32",
          "name": "tokenId",
          "type": "bytes32"
        },
        {
          "indexed": false,
          "internalType": "bool",
          "name": "notified",
          "type": "bool"
        },
        {
          "indexed": false,
          "internalType": "bytes",
          "name": "operatorNotificationData",
          "type": "bytes"
        }
      ],
      "name": "OperatorRevoked",
      "type": "event"
    },
    {
      "anonymous": false,
      "inputs": [
        {
          "indexed": true,
          "internalType": "address",
          "name": "previousOwner",
          "type": "address"
        },
        {
          "indexed": true,
          "internalType": "address",
          "name": "newOwner",
          "type": "address"
        }
      ],
      "name": "OwnershipTransferred",
      "type": "event"
    },
    {
      "anonymous": false,
      "inputs": [
        {
          "indexed": true,
          "internalType": "address",
          "name": "cliente",
          "type": "address"
        },
        {
          "indexed": false,
          "internalType": "bytes32",
          "name": "tokenId",
          "type": "bytes32"
        },
        {
          "indexed": false,
          "internalType": "string",
          "name": "evento",
          "type": "string"
        },
        {
          "indexed": false,
          "internalType": "uint256",
          "name": "timestamp",
          "type": "uint256"
        }
      ],
      "name": "TokenBenvenutoMintato",
      "type": "event"
    },
    {
      "anonymous": false,
      "inputs": [
        {
          "indexed": true,
          "internalType": "bytes32",
          "name": "tokenId",
          "type": "bytes32"
        },
        {
          "indexed": true,
          "internalType": "bytes32",
          "name": "dataKey",
          "type": "bytes32"
        },
        {
          "indexed": false,
          "internalType": "bytes",
          "name": "dataValue",
          "type": "bytes"
        }
      ],
      "name": "TokenIdDataChanged",
      "type": "event"
    },
    {
      "anonymous": false,
      "inputs": [
        {
          "indexed": false,
          "internalType": "address",
          "name": "operator",
          "type": "address"
        },
        {
          "indexed": true,
          "internalType": "address",
          "name": "from",
          "type": "address"
        },
        {
          "indexed": true,
          "internalType": "address",
          "name": "to",
          "type": "address"
        },
        {
          "indexed": true,
          "internalType": "bytes32",
          "name": "tokenId",
          "type": "bytes32"
        },
        {
          "indexed": false,
          "internalType": "bool",
          "name": "force",
          "type": "bool"
        },
        {
          "indexed": false,
          "internalType": "bytes",
          "name": "data",
          "type": "bytes"
        }
      ],
      "name": "Transfer",
      "type": "event"
    },
    {
      "stateMutability": "payable",
      "type": "fallback"
    },
    {
      "inputs": [
        {
          "internalType": "address",
          "name": "operator",
          "type": "address"
        },
        {
          "internalType": "bytes32",
          "name": "tokenId",
          "type": "bytes32"
        },
        {
          "internalType": "bytes",
          "name": "operatorNotificationData",
          "type": "bytes"
        }
      ],
      "name": "authorizeOperator",
      "outputs": [],
      "stateMutability": "nonpayable",
      "type": "function"
    },
    {
      "inputs": [
        {
          "internalType": "address",
          "name": "tokenOwner",
          "type": "address"
        }
      ],
      "name": "balanceOf",
      "outputs": [
        {
          "internalType": "uint256",
          "name": "",
          "type": "uint256"
        }
      ],
      "stateMutability": "view",
      "type": "function"
    },
    {
      "inputs": [
        {
          "internalType": "bytes[]",
          "name": "data",
          "type": "bytes[]"
        }
      ],
      "name": "batchCalls",
      "outputs": [
        {
          "internalType": "bytes[]",
          "name": "results",
          "type": "bytes[]"
        }
      ],
      "stateMutability": "nonpayable",
      "type": "function"
    },
    {
      "inputs": [
        {
          "internalType": "bytes32",
          "name": "dataKey",
          "type": "bytes32"
        }
      ],
      "name": "getData",
      "outputs": [
        {
          "internalType": "bytes",
          "name": "dataValue",
          "type": "bytes"
        }
      ],
      "stateMutability": "view",
      "type": "function"
    },
    {
      "inputs": [
        {
          "internalType": "bytes32[]",
          "name": "dataKeys",
          "type": "bytes32[]"
        }
      ],
      "name": "getDataBatch",
      "outputs": [
        {
          "internalType": "bytes[]",
          "name": "dataValues",
          "type": "bytes[]"
        }
      ],
      "stateMutability": "view",
      "type": "function"
    },
    {
      "inputs": [
        {
          "internalType": "bytes32[]",
          "name": "tokenIds",
          "type": "bytes32[]"
        },
        {
          "internalType": "bytes32[]",
          "name": "dataKeys",
          "type": "bytes32[]"
        }
      ],
      "name": "getDataBatchForTokenIds",
      "outputs": [
        {
          "internalType": "bytes[]",
          "name": "dataValues",
          "type": "bytes[]"
        }
      ],
      "stateMutability": "view",
      "type": "function"
    },
    {
      "inputs": [
        {
          "internalType": "bytes32",
          "name": "tokenId",
          "type": "bytes32"
        },
        {
          "internalType": "bytes32",
          "name": "dataKey",
          "type": "bytes32"
        }
      ],
      "name": "getDataForTokenId",
      "outputs": [
        {
          "internalType": "bytes",
          "name": "dataValue",
          "type": "bytes"
        }
      ],
      "stateMutability": "view",
      "type": "function"
    },
    {
      "inputs": [
        {
          "internalType": "bytes32",
          "name": "tokenId",
          "type": "bytes32"
        }
      ],
      "name": "getOperatorsOf",
      "outputs": [
        {
          "internalType": "address[]",
          "name": "",
          "type": "address[]"
        }
      ],
      "stateMutability": "view",
      "type": "function"
    },
    {
      "inputs": [
        {
          "internalType": "address",
          "name": "",
          "type": "address"
        },
        {
          "internalType": "string",
          "name": "",
          "type": "string"
        }
      ],
      "name": "haRicevutoPerEvento",
      "outputs": [
        {
          "internalType": "bool",
          "name": "",
          "type": "bool"
        }
      ],
      "stateMutability": "view",
      "type": "function"
    },
    {
      "inputs": [
        {
          "internalType": "address",
          "name": "operator",
          "type": "address"
        },
        {
          "internalType": "bytes32",
          "name": "tokenId",
          "type": "bytes32"
        }
      ],
      "name": "isOperatorFor",
      "outputs": [
        {
          "internalType": "bool",
          "name": "",
          "type": "bool"
        }
      ],
      "stateMutability": "view",
      "type": "function"
    },
    {
      "inputs": [
        {
          "internalType": "address",
          "name": "cliente",
          "type": "address"
        },
        {
          "internalType": "string",
          "name": "evento",
          "type": "string"
        },
        {
          "internalType": "string",
          "name": "ipfsImageURI",
          "type": "string"
        },
        {
          "internalType": "uint256",
          "name": "imageWidth",
          "type": "uint256"
        },
        {
          "internalType": "uint256",
          "name": "imageHeight",
          "type": "uint256"
        }
      ],
      "name": "mintBenvenuto",
      "outputs": [],
      "stateMutability": "nonpayable",
      "type": "function"
    },
    {
      "inputs": [],
      "name": "owner",
      "outputs": [
        {
          "internalType": "address",
          "name": "",
          "type": "address"
        }
      ],
      "stateMutability": "view",
      "type": "function"
    },
    {
      "inputs": [],
      "name": "renounceOwnership",
      "outputs": [],
      "stateMutability": "nonpayable",
      "type": "function"
    },
    {
      "inputs": [
        {
          "internalType": "address",
          "name": "operator",
          "type": "address"
        },
        {
          "internalType": "bytes32",
          "name": "tokenId",
          "type": "bytes32"
        },
        {
          "internalType": "bool",
          "name": "notify",
          "type": "bool"
        },
        {
          "internalType": "bytes",
          "name": "operatorNotificationData",
          "type": "bytes"
        }
      ],
      "name": "revokeOperator",
      "outputs": [],
      "stateMutability": "nonpayable",
      "type": "function"
    },
    {
      "inputs": [
        {
          "internalType": "bytes32",
          "name": "dataKey",
          "type": "bytes32"
        },
        {
          "internalType": "bytes",
          "name": "dataValue",
          "type": "bytes"
        }
      ],
      "name": "setData",
      "outputs": [],
      "stateMutability": "payable",
      "type": "function"
    },
    {
      "inputs": [
        {
          "internalType": "bytes32[]",
          "name": "dataKeys",
          "type": "bytes32[]"
        },
        {
          "internalType": "bytes[]",
          "name": "dataValues",
          "type": "bytes[]"
        }
      ],
      "name": "setDataBatch",
      "outputs": [],
      "stateMutability": "payable",
      "type": "function"
    },
    {
      "inputs": [
        {
          "internalType": "bytes32[]",
          "name": "tokenIds",
          "type": "bytes32[]"
        },
        {
          "internalType": "bytes32[]",
          "name": "dataKeys",
          "type": "bytes32[]"
        },
        {
          "internalType": "bytes[]",
          "name": "dataValues",
          "type": "bytes[]"
        }
      ],
      "name": "setDataBatchForTokenIds",
      "outputs": [],
      "stateMutability": "nonpayable",
      "type": "function"
    },
    {
      "inputs": [
        {
          "internalType": "bytes32",
          "name": "tokenId",
          "type": "bytes32"
        },
        {
          "internalType": "bytes32",
          "name": "dataKey",
          "type": "bytes32"
        },
        {
          "internalType": "bytes",
          "name": "dataValue",
          "type": "bytes"
        }
      ],
      "name": "setDataForTokenId",
      "outputs": [],
      "stateMutability": "nonpayable",
      "type": "function"
    },
    {
      "inputs": [
        {
          "internalType": "bytes4",
          "name": "interfaceId",
          "type": "bytes4"
        }
      ],
      "name": "supportsInterface",
      "outputs": [
        {
          "internalType": "bool",
          "name": "",
          "type": "bool"
        }
      ],
      "stateMutability": "view",
      "type": "function"
    },
    {
      "inputs": [
        {
          "internalType": "address",
          "name": "",
          "type": "address"
        },
        {
          "internalType": "string",
          "name": "",
          "type": "string"
        }
      ],
      "name": "tokenDelClientePerEvento",
      "outputs": [
        {
          "internalType": "bytes32",
          "name": "",
          "type": "bytes32"
        }
      ],
      "stateMutability": "view",
      "type": "function"
    },
    {
      "inputs": [
        {
          "internalType": "address",
          "name": "tokenOwner",
          "type": "address"
        }
      ],
      "name": "tokenIdsOf",
      "outputs": [
        {
          "internalType": "bytes32[]",
          "name": "",
          "type": "bytes32[]"
        }
      ],
      "stateMutability": "view",
      "type": "function"
    },
    {
      "inputs": [
        {
          "internalType": "bytes32",
          "name": "tokenId",
          "type": "bytes32"
        }
      ],
      "name": "tokenOwnerOf",
      "outputs": [
        {
          "internalType": "address",
          "name": "",
          "type": "address"
        }
      ],
      "stateMutability": "view",
      "type": "function"
    },
    {
      "inputs": [],
      "name": "totalSupply",
      "outputs": [
        {
          "internalType": "uint256",
          "name": "",
          "type": "uint256"
        }
      ],
      "stateMutability": "view",
      "type": "function"
    },
    {
      "inputs": [
        {
          "internalType": "address",
          "name": "from",
          "type": "address"
        },
        {
          "internalType": "address",
          "name": "to",
          "type": "address"
        },
        {
          "internalType": "bytes32",
          "name": "tokenId",
          "type": "bytes32"
        },
        {
          "internalType": "bool",
          "name": "force",
          "type": "bool"
        },
        {
          "internalType": "bytes",
          "name": "data",
          "type": "bytes"
        }
      ],
      "name": "transfer",
      "outputs": [],
      "stateMutability": "nonpayable",
      "type": "function"
    },
    {
      "inputs": [
        {
          "internalType": "address[]",
          "name": "from",
          "type": "address[]"
        },
        {
          "internalType": "address[]",
          "name": "to",
          "type": "address[]"
        },
        {
          "internalType": "bytes32[]",
          "name": "tokenId",
          "type": "bytes32[]"
        },
        {
          "internalType": "bool[]",
          "name": "force",
          "type": "bool[]"
        },
        {
          "internalType": "bytes[]",
          "name": "data",
          "type": "bytes[]"
        }
      ],
      "name": "transferBatch",
      "outputs": [],
      "stateMutability": "nonpayable",
      "type": "function"
    },
    {
      "inputs": [
        {
          "internalType": "address",
          "name": "newOwner",
          "type": "address"
        }
      ],
      "name": "transferOwnership",
      "outputs": [],
      "stateMutability": "nonpayable",
      "type": "function"
    },
    {
      "stateMutability": "payable",
      "type": "receive"
    }
  ],
  "bytecode": "0x60808060405234610894576137ee803803809161001c8285610899565b833981016060828203126108945781516001600160401b03811161089457816100469184016108df565b60208301519091906001600160401b0381116108945760409161006a9185016108df565b9201516001600160a01b038116808203610894576100873361095f565b15610883576100959061095f565b60409081516100a48382610899565b60048152632936598960e21b602082015260008051602061376e833981519152600052600160205282600020815160018060401b03811161054c578154600181811c91168015610879575b602082101461052c57601f8111610831575b506020601f82116001146107aa57926000805160206137ce833981519152928261015c9360008051602061376e8339815191529660009161079f575b508160011b916000199060031b1c19161790555b855191829182610933565b0390a260008051602061372e8339815191526000908152600160205282902081516001600160401b03811161054c578154600181811c91168015610795575b602082101461052c57601f811161074d575b506020601f82116001146106e057926000805160206137ce83398151915292826102089360008051602061372e83398151915296600091610452575b508160011b916000199060031b1c19161790555b845191829182610933565b0390a26000805160206137ae83398151915260009081526001602052819020825192906001600160401b03841161054c578054600181811c911680156106d6575b602082101461052c57601f811161068e575b50602093601f811160011461062157916102b691836000805160206137ce833981519152946000805160206137ae833981519152969760009161045257508160011b916000199060031b1c1916179055845191829182610933565b0390a280519060016020830152602082526102d18183610899565b60008051602061374e83398151915260009081526001602052819020825192906001600160401b03841161054c578054600181811c91168015610617575b602082101461052c57601f81116105cf575b50602093601f8111600114610562579161037c91836000805160206137ce8339815191529460008051602061374e833981519152969760009161045257508160011b916000199060031b1c1916179055845191829182610933565b0390a280519060006020830152602082526103978183610899565b60008051602061378e83398151915260009081526001602052819020825192906001600160401b03841161054c578054600181811c91168015610542575b602082101461052c57601f81116104e4575b50602093601f811160011461045d579161044291836000805160206137ce8339815191529460008051602061378e833981519152969760009161045257508160011b916000199060031b1c1916179055845191829182610933565b0390a251612d8790816109a78239f35b9050830151386101e9565b601f19811682600052856000209060005b8181106104cc575082610442949260008051602061378e83398151915297986000805160206137ce8339815191529795600194106104b3575b5050811b0190556101fd565b85015160001960f88460031b161c1916905538806104a7565b8588015183556020978801976001909301920161046e565b816000526020600020601f860160051c81019160208710610522575b601f0160051c01905b81811061051657506103e7565b60008155600101610509565b9091508190610500565b634e487b7160e01b600052602260045260246000fd5b90607f16906103d5565b634e487b7160e01b600052604160045260246000fd5b601f19811682600052856000209060005b8181106105b757508261037c949260008051602061374e83398151915297986000805160206137ce8339815191529795600194106104b3575050811b0190556101fd565b85880151835560209788019760019093019201610573565b816000526020600020601f860160051c8101916020871061060d575b601f0160051c01905b8181106106015750610321565b600081556001016105f4565b90915081906105eb565b90607f169061030f565b601f19811682600052856000209060005b8181106106765750826102b694926000805160206137ae83398151915297986000805160206137ce8339815191529795600194106104b3575050811b0190556101fd565b85880151835560209788019760019093019201610632565b816000526020600020601f860160051c810191602087106106cc575b601f0160051c01905b8181106106c0575061025b565b600081556001016106b3565b90915081906106aa565b90607f1690610249565b601f1982169083600052806000209160005b81811061073557508360008051602061372e83398151915296936000805160206137ce833981519152969361020896600194106104b3575050811b0190556101fd565b9192602060018192868a0151815501940192016106f2565b826000526020600020601f830160051c8101916020841061078b575b601f0160051c01905b81811061077f57506101ad565b60008155600101610772565b9091508190610769565b90607f169061019b565b90508301513861013d565b601f1982169083600052806000209160005b81811061081957508360008051602061376e83398151915296936000805160206137ce833981519152969361015c9660019410610800575b5050811b019055610151565b85015160001960f88460031b161c1916905538806107f4565b9192602060018192868a0151815501940192016107bc565b826000526020600020601f830160051c8101916020841061086f575b601f0160051c01905b8181106108635750610101565b60008155600101610856565b909150819061084d565b90607f16906100ef565b6306b620db60e21b60005260046000fd5b600080fd5b601f909101601f19168101906001600160401b0382119082101761054c57604052565b60005b8381106108cf5750506000910152565b81810151838201526020016108bf565b81601f820112156108945780516001600160401b03811161054c5760405192610912601f8301601f191660200185610899565b818452602082840101116108945761093091602080850191016108bc565b90565b6040916020825261095381518092816020860152602086860191016108bc565b601f01601f1916010190565b600080546001600160a01b039283166001600160a01b03198216811783559216907f8be0079c531659141344cd1fd0a4f28419497f9722a3daafe3b4186f6b6457e09080a356fe6080604052600436101561002a575b36156100255761001d36611d08565b602081519101f35b611ccb565b60003560e01c806301ffc9a7146101ca57806316e023b3146101c557806318160ddd146101c05780631d26fce6146101bb578063217b2270146101b65780632a3654a4146101b157806337a649e9146101ac57806349a6078d146101a7578063511b6952146101a257806354f6127f1461019d5780636963d4381461019857806370a082311461019357806370afd2211461018e578063715018a61461018957806378b5a616146101845780637e87632c1461017f5780637f23690c1461017a57806386a10ddd146101755780638da5cb5b14610170578063979024211461016b578063a3b261f214610166578063be9f0e6f14610161578063d6c1407c1461015c578063db8c966314610157578063dedff9c6146101525763f2fde38b0361000e57611587565b611500565b611425565b6113de565b6112ee565b61126b565b611173565b61114a565b611048565b610ff3565b610f3b565b610d9a565b610d41565b6108e5565b61087e565b610812565b6107f3565b61078c565b6106c8565b610632565b610548565b610502565b610442565b610314565b6102de565b3461027d57602036600319011261027d576004356001600160e01b0319811680820361027d5761022191631d138b8360e11b8214918215610235575b508115610225575b5060405190151581529081906020820190565b0390f35b61022f9150611d42565b3861020e565b90915063a918fa6b60e01b8114908115610252575b509038610206565b6318a6a9a560e21b81149150811561026c575b503861024a565b6301ffc9a760e01b14905038610265565b600080fd5b60005b8381106102955750506000910152565b8181015183820152602001610285565b906020916102be81518092818552858086019101610282565b601f01601f1916010190565b9060206102db9281815201906102a5565b90565b3461027d57604036600319011261027d57610221610300602435600435611e7f565b6040519182916020835260208301906102a5565b3461027d57600036600319011261027d576020600254604051908152f35b634e487b7160e01b600052604160045260246000fd5b90601f801991011681019081106001600160401b0382111761036957604052565b610332565b6001600160401b0381116103695760051b60200190565b9080601f8301121561027d57813561039c8161036e565b926103aa6040519485610348565b81845260208085019260051b82010192831161027d57602001905b8282106103d25750505090565b81358152602091820191016103c5565b602081016020825282518091526040820191602060408360051b8301019401926000915b83831061041557505050505090565b9091929394602080610433600193603f1986820301875289516102a5565b97019301930191939290610406565b3461027d57604036600319011261027d576004356001600160401b03811161027d57610472903690600401610385565b6024356001600160401b03811161027d57610491903690600401610385565b9061049f8151835114611652565b6104a9815161166a565b9160005b82518110156104f457806104d86104c6600193866116ca565b516104d183866116ca565b5190611e7f565b6104e282876116ca565b526104ed81866116ca565b50016104ad565b6040518061022186826103e2565b3461027d57602036600319011261027d5760206105206004356116ff565b6040516001600160a01b039091168152f35b600435906001600160a01b038216820361027d57565b3461027d57604036600319011261027d57602061056f610566610532565b60243590611f1b565b6040519015158152f35b6001600160401b03811161036957601f01601f191660200190565b9291926105a082610579565b916105ae6040519384610348565b82948184528183011161027d578281602093846000960137010152565b90604060031983011261027d576004356001600160a01b038116810361027d5791602435906001600160401b03821161027d578060238301121561027d578160246102db93600401359101610594565b9061062e60209282815194859201610282565b0190565b3461027d57602060ff61067082610648366105cb565b9060018060a01b03166000526007825260406000208260405194838680955193849201610282565b82019081520301902054166040519015158152f35b602060408183019282815284518094520192019060005b8181106106a95750505090565b82516001600160a01b031684526020938401939092019160010161069c565b3461027d57602036600319011261027d576004356000818152600360205260409020546107019082906001600160a01b031615156116e3565b6000526005602052604060002060405190816020825491828152019160005260206000209060005b81811061074c576102218561074081870382610348565b60405191829182610685565b8254845260209093019260019283019201610729565b60443590811515820361027d57565b9080601f8301121561027d578160206102db93359101610594565b3461027d5760a036600319011261027d576107a5610532565b602435906001600160a01b038216820361027d57606435604435811515820361027d57608435936001600160401b03851161027d576107eb6107f1953690600401610771565b93611724565b005b3461027d57602036600319011261027d57610221610300600435611899565b3461027d57602036600319011261027d576004356001600160401b03811161027d573660238201121561027d578060040135906001600160401b03821161027d573660248360051b8301011161027d57610221916024610872920161199a565b604051918291826103e2565b3461027d57602036600319011261027d576001600160a01b0361089f610532565b1660005260046020526020604060002054604051908152f35b9181601f8401121561027d578235916001600160401b03831161027d576020838186019501011161027d57565b3461027d5760a036600319011261027d576108fe610532565b6024356001600160401b03811161027d5761091d9036906004016108b8565b916044356001600160401b03811161027d5761093d9036906004016108b8565b60005460643592608435916001600160a01b03163303610d2c576001600160a01b03851660009081526007602052604090206109859061097e908989611a6e565b5460ff1690565b610d0b5760085461099590611ae0565b6008556008546001600160a01b03861660009081526007602052604090209094906109c1908989611a6e565b805460ff191660011790556001600160a01b038616600090815260066020526040902085906109f1908a8a611a6e565b556109fa611955565b610a0590868861203b565b610a0e906121cc565b91610a18906121cc565b9260405193849360208501610ad890608c907f7b224c5350344d65746164617461223a7b226e616d65223a224269727261323081527f56656e74692057656c636f6d65222c226465736372697074696f6e223a22312060208201527f6269727261206f6d616767696f206f676e6920352061637175697374692e204f60408201527f7264696e6120636f6e2069206461746920636f6e20637569207469207365692060608201526b3932b3b4b9ba3930ba37971160a11b60808201520190565b74161134b6b0b3b2b9911d2dadbd913bb4b23a34111d60591b8152601501610aff9161061b565b6916113432b4b3b43a111d60b11b8152600a01610b1b9161061b565b6716113ab936111d1160c11b815260080190610b3692611947565b7f222c22766572696669636174696f6e223a7b226d6574686f64223a226b65636381527f616b32353628627974657329222c2264617461223a223078227d7d5d5d0000006020820152603d016e2c2261747472696275746573223a5b60881b8152600f017f7b226b6579223a226272616e64222c2276616c7565223a224269727261323056815266195b9d1a489f4b60ca1b60208201526027017f7b226b6579223a2262656e65666974222c2276616c7565223a2231206269727281527f61206f6d616767696f206f676e692035206163717569737469227d2c000000006020820152603c017f7b226b6579223a226576656e746f222c2276616c7565223a22000000000000008152601901610c4d908787611947565b61227d60f01b8152600201625d7d7d60e81b815260030103601f1981018252610c769082610348565b604051602081019080610ca78584603191702629a81c26b2ba30b230ba30a529a7a71d60791b825260118201520190565b03601f1981018252610cb99082610348565b51902090610cc691612280565b6040516001600160a01b039092169391928392610ce69242929085611af4565b037eec5b82228e8f7599d26dcc6f0fd04b059033d17fc8d39c7314e2b7228c3f6b91a2005b6040516393fc05f960e01b815280610d2889898960048501611aa8565b0390fd5b634a0bfec160e01b6000523360045260246000fd5b3461027d57600036600319011261027d57610d5a6123ae565b600080546001600160a01b0319811682556001600160a01b03167f8be0079c531659141344cd1fd0a4f28419497f9722a3daafe3b4186f6b6457e08280a3005b3461027d576020610dd681610dae366105cb565b9060018060a01b03166000526006825260406000208260405194838680955193849201610282565b82019081520301902054604051908152f35b9080601f8301121561027d57813590610e008261036e565b92610e0e6040519485610348565b82845260208085019360051b82010191821161027d57602001915b818310610e365750505090565b82356001600160a01b038116810361027d57815260209283019201610e29565b9080601f8301121561027d57813590610e6e8261036e565b92610e7c6040519485610348565b82845260208085019360051b82010191821161027d57602001915b818310610ea45750505090565b8235801515810361027d57815260209283019201610e97565b9080601f8301121561027d578135610ed48161036e565b92610ee26040519485610348565b81845260208085019260051b8201019183831161027d5760208201905b838210610f0e57505050505090565b81356001600160401b03811161027d57602091610f3087848094880101610771565b815201910190610eff565b3461027d5760a036600319011261027d576004356001600160401b03811161027d57610f6b903690600401610de8565b6024356001600160401b03811161027d57610f8a903690600401610de8565b906044356001600160401b03811161027d57610faa903690600401610385565b6064356001600160401b03811161027d57610fc9903690600401610e56565b90608435936001600160401b03851161027d57610fed6107f1953690600401610ebd565b93611b17565b604036600319011261027d576004356024356001600160401b03811161027d57611021903690600401610771565b6110296123ae565b34611037576107f191612280565b63f36ba73760e01b60005260046000fd5b3461027d57606036600319011261027d57611061610532565b602435604435916001600160401b03831161027d5761114561108a6107f1943690600401610771565b9280611095816116ff565b6001600160a01b038116906110b09033908490828514611be6565b6001600160a01b0385166110c5811515611c1d565b6110d182821415611c35565b8260005260056020526110f283876110ed846040600020612b00565b611c4d565b7f1b1b58aa2ec0cec2228b2d37124556d41f5a1f7b12f089171f896cc236671215604051806111218a826102ca565b0390a46111376040519485923360208501611c75565b03601f198101845283610348565b612b6c565b3461027d57600036600319011261027d576000546040516001600160a01b039091168152602090f35b604036600319011261027d576004356001600160401b03811161027d5761119e903690600401610385565b6024356001600160401b03811161027d576111bd903690600401610ebd565b906111c66123ae565b346110375780518251036112205780511561120f5760005b81518110156107f157806112096111f7600193856116ca565b5161120283876116ca565b5190612280565b016111de565b6397da5f9560e01b60005260046000fd5b633bcc897960e01b60005260046000fd5b602060408183019282815284518094520192019060005b8181106112555750505090565b8251845260209384019390920191600101611248565b3461027d57602036600319011261027d576001600160a01b0361128c610532565b166000526004602052604060002060405190816020825491828152019160005260206000209060005b8181106112d857610221856112cc81870382610348565b60405191829182611231565b82548452602090930192600192830192016112b5565b3461027d57606036600319011261027d576004356001600160401b03811161027d5761131e903690600401610385565b6024356001600160401b03811161027d5761133d903690600401610385565b6044356001600160401b03811161027d5761135c903690600401610ebd565b916113656123ae565b61137c8151835180911490816113d3575b50611652565b8051156113c25760005b81518110156107f157806113bc61139f600193856116ca565b516113aa83876116ca565b516113b584896116ca565b5191612543565b01611386565b6380c9830560e01b60005260046000fd5b905084511438611376565b3461027d57606036600319011261027d576044356004356024356001600160401b03831161027d576114176107f1933690600401610771565b916114206123ae565b612543565b3461027d57608036600319011261027d5761143e610532565b602435611449610762565b916064356001600160401b03811161027d57611469903690600401610771565b611472836116ff565b936001600160a01b038516338190036114d3575b6114a6906001600160a01b03851661149f811515611c1d565b1415611c35565b6114b38282868887612685565b6114b957005b6107f1936111376111459260405195869360208501611ca0565b336001600160a01b0385161461148657849063760b5acd60e01b6000523360045260245260445260646000fd5b3461027d57602036600319011261027d576004356001600160401b03811161027d57611530903690600401610385565b61153a815161166a565b9060005b8151811015611579578061155d611557600193856116ca565b51611899565b61156782866116ca565b5261157281856116ca565b500161153e565b6040518061022185826103e2565b3461027d57602036600319011261027d576115a0610532565b6115a86123ae565b6001600160a01b038116156115fe57600080546001600160a01b039283166001600160a01b03198216811783559216907f8be0079c531659141344cd1fd0a4f28419497f9722a3daafe3b4186f6b6457e09080a3005b60405162461bcd60e51b815260206004820152602660248201527f4f776e61626c653a206e6577206f776e657220697320746865207a65726f206160448201526564647265737360d01b6064820152608490fd5b1561165957565b6317d38eff60e11b60005260046000fd5b906116748261036e565b6116816040519182610348565b8281528092611692601f199161036e565b019060005b8281106116a357505050565b806060602080938501015201611697565b634e487b7160e01b600052603260045260246000fd5b80518210156116de5760209160051b010190565b6116b4565b156116eb5750565b635747cd1b60e11b60005260045260246000fd5b6000818152600360205260409020546001600160a01b0316906102db908215156116e3565b909293916117328133611f1b565b156118815761187f94926111379492611875838061175261187a966116ff565b6001600160a01b03858116906117a3908316611772888686868514611be6565b6001600160a01b038b1693611788851515611f6e565b85611792816116ff565b926001600160a01b03841614611f86565b6117ad83876128a4565b6001600160a01b03861660009081526004602052604090206117d0908490612c96565b506001600160a01b03891660009081526004602052604090206117f4908490612b00565b5061182c8961180d856000526003602052604060002090565b80546001600160a01b0319166001600160a01b03909216919091179055565b6040517fb333c813a7426a7a11e2b190cad52c44119421594b47f6f32ace6d8c7207b2bf908061185e8a8e3384611fbb565b0390a4604051978894859288863360208701611fe5565b612bd0565b612a2a565b565b631294d2a960e01b6000526004523360245260446000fd5b60005260016020526040600020604051908160008254926118b984611e45565b808452936001811690811561192557506001146118de575b506102db92500382610348565b90506000929192526020600020906000915b8183106119095750509060206102db92820101386118d1565b60209193508060019154838588010152019101909183926118f0565b9050602092506102db94915060ff191682840152151560051b820101386118d1565b908092918237016000815290565b60405190611964602083610348565b60008252565b3d15611995573d9061197b82610579565b916119896040519384610348565b82523d6000602084013e565b606090565b9190916119a68361166a565b9260005b8181106119b657505050565b6000828210156116de578160051b840135601e1985360301811215611a6a578401908135916001600160401b038311611a6a57602001908236038213611a67575060009181839250611a0d60405180938193611947565b0390305af4611a1a61196a565b9015611a405790600191611a2e82886116ca565b52611a3981876116ca565b50016119aa565b805190919015611a535750805190602001fd5b63234eb81960e01b60005260045260246000fd5b80fd5b5080fd5b6020919283604051948593843782019081520301902090565b908060209392818452848401376000828201840152601f01601f1916010190565b6001600160a01b0390911681526040602082018190526102db93910191611a87565b634e487b7160e01b600052601160045260246000fd5b6000198114611aef5760010190565b611aca565b94939291604092611b12928752606060208801526060870191611a87565b930152565b94939091928551938351851480611bdc575b80611bd2575b80611bc8575b15611bb75760005b858110611b4e575050505050509050565b80611bb1611b5e6001938b6116ca565b838060a01b03905116611b81611b74848a6116ca565b516001600160a01b031690565b611b8b84876116ca565b51611b9f611b99868a6116ca565b51151590565b91611baa868b6116ca565b5193611724565b01611b3d565b6393a8311960e01b60005260046000fd5b5082518514611b35565b5081518514611b2f565b5080518514611b29565b15611bf057505050565b632d938f5160e11b60009081526001600160a01b0391821660045260249290925291909116604452606490fd5b15611c2457565b639577b8b360e01b60005260046000fd5b15611c3c57565b6344fed6b160e11b60005260046000fd5b15611c56575050565b6314ec4d6d60e31b60005260018060a01b031660045260245260446000fd5b6102db939260809260018060a01b0316825260208201526001604082015281606082015201906102a5565b6102db939260809260018060a01b0316825260208201526000604082015281606082015201906102a5565b3415611ce2576330fa4a2160e11b60005260046000fd5b606460405163e5099ee360e01b8152602060048201526004602482015260006044820152fd5b60043610611d1b576102db906000612740565b60405163e5099ee360e01b815260206004820152908190610d289060248301906000611a87565b611dab611d8e611d89604051696773c5a04a6d4300884b60b11b60208201526000602a8201526301ffc9a760e01b602c82015260208152611d84604082610348565b612c34565b611899565b611da681805160148114908115611e1d575b506127ff565b61282c565b60601c908115611e1657602091600091604051848101916301ffc9a760e01b835263ffffffff60e01b16602482015260248152611de9604482610348565b5191617530fa6000513d82611e0a575b5081611e03575090565b9050151590565b60201115915038611df9565b5050600090565b90501538611da0565b919060405192602084015260408301526040825261187f606083610348565b90600182811c92168015611e75575b6020831014611e5f57565b634e487b7160e01b600052602260045260246000fd5b91607f1691611e54565b90611e8991611e26565b602081519101206000526001602052604060002060405190816000825492611eb084611e45565b80845293600181169081156119255750600114611ed457506102db92500382610348565b90506000929192526020600020906000915b818310611eff5750509060206102db92820101386118d1565b6020919350806001915483858801015201910190918392611ee6565b6001600160a01b03611f2c836116ff565b6001600160a01b0390921691168114918215611f4757505090565b6102db92506000526005602052604060002060019160005201602052604060002054151590565b15611f7557565b6324ecef4d60e01b60005260046000fd5b15611f9057505050565b635a9c31d360e01b60009081526004919091526001600160a01b039182166024529116604452606490fd5b6001600160a01b03909116815290151560208201526060604082018190526102db929101906102a5565b6001600160a01b03918216815291811660208301529091166040820152606081019190915260a0608082018190526102db929101906102a5565b156120275750565b6334c7b51160e01b60005260045260246000fd5b61187f926001600160a01b038216926001929161187a919061216090612062871515611f6e565b6000838152600360205260409020546120869084906001600160a01b03161561201f565b6000838152600360205260409020546120aa9084906001600160a01b03161561201f565b6120b5600254611ae0565b6002556001600160a01b03851660009081526004602052604090206120db908490612b00565b506120f48561180d856000526003602052604060002090565b828760007fb333c813a7426a7a11e2b190cad52c44119421594b47f6f32ace6d8c7207b2bf60405180612129878d3384611fbb565b0390a460a060405197889460208601918980851b0333168352600060208401526040830152606082015281608082015201906102a5565b03601f198101855284610348565b9061217882610579565b6121856040519182610348565b8281528092612196601f1991610579565b0190602036910137565b8015611aef576000190190565b6030019081603011611aef57565b9081518110156116de570160200190565b90811561225f57600082805b6122445750826121e78261216e565b91905b6121f357509150565b6121ff61223d916121a0565b93612228612218612212600a84066121ad565b60ff1690565b60f81b6001600160f81b03191690565b60001a61223586856121bb565b53600a900490565b92836121ea565b9061225161225991611ae0565b91600a900490565b806121d8565b905060405161226f604082610348565b60018152600360fc1b602082015290565b907ff675e9361af1c1664c1868cfa3eb97672d6b1a513aa5b81dec34c9ee330e818d821461239d577fdeba1e292f8ba88238e10ab3c7f88bd4be4fac56cad5194b6ecceaf653468af182036122e0576385c169bd60e01b60005260046000fd5b7f2f0a68ab07768e01943a599e73362a0e17a63a72e94dd2e384d2c1d4db932756820361231857630eceab6760e31b60005260046000fd5b7fe0261fa95db2eb3b5439bd033cda66d56b96f92f243a8228fd87550ed7bdfdb3820361235057634ef6d7fb60e01b60005260046000fd5b6123987fece574603820d07bc9b91f2a932baadf4628aabcb8afba49776529c14a6104b29183600052600160205261238c816040600020612476565b604051918291826102ca565b0390a2565b631b32400560e11b60005260046000fd5b6000546001600160a01b031633036123c257565b606460405162461bcd60e51b815260206004820152602060248201527f4f776e61626c653a2063616c6c6572206973206e6f7420746865206f776e65726044820152fd5b916124209183549060031b91821b91600019901b19161790565b9055565b601f821161243157505050565b6000526020600020906020601f840160051c8301931061246c575b601f0160051c01905b818110612460575050565b60008155600101612455565b909150819061244c565b91909182516001600160401b0381116103695761249d816124978454611e45565b84612424565b6020601f82116001146124da5781906124209394956000926124cf575b50508160011b916000199060031b1c19161790565b0151905038806124ba565b601f198216906124ef84600052602060002090565b9160005b81811061252b57509583600195969710612512575b505050811b019055565b015160001960f88460031b161c19169055388080612508565b9192602060018192868b0151815501940192016124f3565b909161254f8383611e26565b602081519101206000526001602052604060002081516001600160401b03811161036957612581816124978454611e45565b6020601f82116001146125f457916125d6827fa6e4251f855f750545fe414f120db91c76b88def14d120969e5bb2d3f05debbb95936125e4956000916125e9575b508160011b916000199060031b1c19161790565b9055604051918291826102ca565b0390a3565b9050840151386125c2565b601f1982169061260984600052602060002090565b9160005b81811061266d5750926125e49492600192827fa6e4251f855f750545fe414f120db91c76b88def14d120969e5bb2d3f05debbb989610612654575b5050811b01905561238c565b85015160001960f88460031b161c191690553880612648565b9192602060018192868a01518155019401920161260d565b9193928460005260056020526126a960406000209360018060a01b03168094612c96565b156126ff57604080519115158252602082018190526001600160a01b03909216937fc78cd419d6136f9f1c1c6aec1d3fae098cffaf8bc86314a8f2685e32fe574e3c9282916126fa918301906102a5565b0390a4565b84836312a8c6a360e21b60005260045260245260446000fd5b826034959392823701916bffffffffffffffffffffffff199060601b16825260148201520190565b63ffffffff60e01b6000351691612791611d8e611d89604051696773c5a04a6d4300884b60b11b60208201526000602a82015263ffffffff60e01b8716602c82015260208152611d84604082610348565b60601c9283156127eb575091600092916127be6127cc859460405192839160208301953491339188612718565b03601f198101835282610348565b519134905af16127da61196a565b90156127e35790565b602081519101fd5b63bb370b2b60e01b60005260045260246000fd5b156128075750565b6040516342bfe79f60e01b815260206004820152908190610d289060248301906102a5565b9060208251920151916bffffffffffffffffffffffff1983169260148210612852575050565b6bffffffffffffffffffffffff1960149290920360031b82901b16169150565b6000602091604051838101906301ffc9a760e01b8252631aed5a8560e21b602482015260248152611de9604482610348565b8160005260056020526040600020918254916000936020945b8481106128cc57505050505050565b60008254156116de5782815286902054604051906001600160a01b031660006128f58984610348565b80835286815260058952604081206001600160a01b039092169161291a908390612c96565b15612973579186917fc78cd419d6136f9f1c1c6aec1d3fae098cffaf8bc86314a8f2685e32fe574e3c6001959460405190815260408c8201528061296a888060a01b038b169560408301906102a5565b0390a4016128bd565b866044926312a8c6a360e21b8352600452602452fd5b60208183031261027d578051906001600160401b03821161027d570181601f8201121561027d5780516129bb81610579565b926129c96040519485610348565b8184526020828401011161027d576102db9160208085019101610282565b9060406102db927f0b084a55ebf70fd3c06fd755269dac2212c4d3f0f4d09079780bfa50c1b2984d815281602082015201906102a5565b6040513d6000823e3d90fd5b9190612a3583612872565b15612a9d5750612a5f6000928392604051948580948193631aed5a8560e21b8352600483016129e7565b03926001600160a01b03165af18015612a9857612a795750565b612a95903d806000833e612a8d8183610348565b810190612989565b50565b612a1e565b905015612aa75750565b803b15612acb57634349776d60e01b6000526001600160a01b031660045260246000fd5b630317313760e01b6000526001600160a01b031660045260246000fd5b80548210156116de5760005260206000200190600090565b6000828152600182016020526040902054611e1657805490680100000000000000008210156103695782612b55612b3e846001809601855584612ae8565b819391549060031b91821b91600019901b19161790565b905580549260005201602052604060002055600190565b612b7581612872565b612b7d575050565b612a5f600092918392604051948580948193631aed5a8560e21b83527f8a1c15a8799f71b547e08e2bcb2e85257e81b0a07eee2ce6712549eef1f0097060048401526040602484015260448301906102a5565b612bd981612872565b612be1575050565b612a5f600092918392604051948580948193631aed5a8560e21b83527fb23eae7e6d1564b295b4c3e3be402d9a2f0776c57bdf365903496f6fa481ab0060048401526040602484015260448301906102a5565b602081519101519060208110612c48575090565b6000199060200360031b1b1690565b80548015612c80576000190190612c6e8282612ae8565b8154906000199060031b1b1916905555565b634e487b7160e01b600052603160045260246000fd5b6001810191806000528260205260406000205492831515600014612d48576000198401848111611aef578354600019810194908511611aef576000958583612cea94612cf99803612cff575b505050612c57565b90600052602052604060002090565b55600190565b612d2f612d2991612d20612d16612d3f9588612ae8565b90549060031b1c90565b92839187612ae8565b90612406565b8590600052602052604060002090565b55388080612ce2565b5050505060009056fea26469706673582212202d200a2290cbae295d5fc50370c02d072761fe4fed1f24520c574014f155513264736f6c634300081c0033deba1e292f8ba88238e10ab3c7f88bd4be4fac56cad5194b6ecceaf653468af1e0261fa95db2eb3b5439bd033cda66d56b96f92f243a8228fd87550ed7bdfdb3eafec4d89fa9619884b60000a4d96624a38f7ac2d8d9a604ecf07c12c77e480cf675e9361af1c1664c1868cfa3eb97672d6b1a513aa5b81dec34c9ee330e818d2f0a68ab07768e01943a599e73362a0e17a63a72e94dd2e384d2c1d4db932756ece574603820d07bc9b91f2a932baadf4628aabcb8afba49776529c14a6104b2",
  "linkReferences": {},
  "deployedLinkReferences": {}
}