{
  "_format": "hh-sol-artifact-1",
  "contractName": "ERC725Y",
  "sourceName": "@erc725/smart-contracts-v8/contracts/ERC725Y.sol",
  "abi": [
    {
      "inputs": [
        {
          "internalType": "address",
          "name": "initialOwner",
          "type": "address"
        }
      ],
      "stateMutability": "payable",
      "type": "constructor"
    },
    {
      "inputs": [],
      "name": "ERC725Y_DataKeysValuesEmptyArray",
      "type": "error"
    },
    {
      "inputs": [],
      "name": "ERC725Y_DataKeysValuesLengthMismatch",
      "type": "error"
    },
    {
      "inputs": [],
      "name": "ERC725Y_MsgValueDisallowed",
      "type": "error"
    },
    {
      "inputs": [],
      "name": "OwnableCannotSetZeroAddressAsOwner",
      "type": "error"
    },
    {
      "anonymous": false,
      "inputs": [
        {
          "indexed": true,
          "internalType": "bytes32",
          "name": "dataKey",
          "type": "bytes32"
        },
        {
          "indexed": false,
          "internalType": "bytes",
          "name": "dataValue",
          "type": "bytes"
        }
      ],
      "name": "DataChanged",
      "type": "event"
    },
    {
      "anonymous": false,
      "inputs": [
        {
          "indexed": true,
          "internalType": "address",
          "name": "previousOwner",
          "type": "address"
        },
        {
          "indexed": true,
          "internalType": "address",
          "name": "newOwner",
          "type": "address"
        }
      ],
      "name": "OwnershipTransferred",
      "type": "event"
    },
    {
      "inputs": [
        {
          "internalType": "bytes32",
          "name": "dataKey",
          "type": "bytes32"
        }
      ],
      "name": "getData",
      "outputs": [
        {
          "internalType": "bytes",
          "name": "dataValue",
          "type": "bytes"
        }
      ],
      "stateMutability": "view",
      "type": "function"
    },
    {
      "inputs": [
        {
          "internalType": "bytes32[]",
          "name": "dataKeys",
          "type": "bytes32[]"
        }
      ],
      "name": "getDataBatch",
      "outputs": [
        {
          "internalType": "bytes[]",
          "name": "dataValues",
          "type": "bytes[]"
        }
      ],
      "stateMutability": "view",
      "type": "function"
    },
    {
      "inputs": [],
      "name": "owner",
      "outputs": [
        {
          "internalType": "address",
          "name": "",
          "type": "address"
        }
      ],
      "stateMutability": "view",
      "type": "function"
    },
    {
      "inputs": [],
      "name": "renounceOwnership",
      "outputs": [],
      "stateMutability": "nonpayable",
      "type": "function"
    },
    {
      "inputs": [
        {
          "internalType": "bytes32",
          "name": "dataKey",
          "type": "bytes32"
        },
        {
          "internalType": "bytes",
          "name": "dataValue",
          "type": "bytes"
        }
      ],
      "name": "setData",
      "outputs": [],
      "stateMutability": "payable",
      "type": "function"
    },
    {
      "inputs": [
        {
          "internalType": "bytes32[]",
          "name": "dataKeys",
          "type": "bytes32[]"
        },
        {
          "internalType": "bytes[]",
          "name": "dataValues",
          "type": "bytes[]"
        }
      ],
      "name": "setDataBatch",
      "outputs": [],
      "stateMutability": "payable",
      "type": "function"
    },
    {
      "inputs": [
        {
          "internalType": "bytes4",
          "name": "interfaceId",
          "type": "bytes4"
        }
      ],
      "name": "supportsInterface",
      "outputs": [
        {
          "internalType": "bool",
          "name": "",
          "type": "bool"
        }
      ],
      "stateMutability": "view",
      "type": "function"
    },
    {
      "inputs": [
        {
          "internalType": "address",
          "name": "newOwner",
          "type": "address"
        }
      ],
      "name": "transferOwnership",
      "outputs": [],
      "stateMutability": "nonpayable",
      "type": "function"
    }
  ],
  "bytecode": "0x6080601f610a3938819003918201601f19168301916001600160401b03831184841017607f57808492602094604052833981010312607a57516001600160a01b038116808203607a57604f336095565b15606957605a906095565b60405161095c90816100dd8239f35b6306b620db60e21b60005260046000fd5b600080fd5b634e487b7160e01b600052604160045260246000fd5b600080546001600160a01b039283166001600160a01b03198216811783559216907f8be0079c531659141344cd1fd0a4f28419497f9722a3daafe3b4186f6b6457e09080a356fe608080604052600436101561001357600080fd5b60003560e01c90816301ffc9a7146104a65750806354f6127f1461046f578063715018a6146104165780637f23690c146103d15780638da5cb5b146103a85780639790242114610265578063dedff9c6146101475763f2fde38b1461007757600080fd5b34610142576020366003190112610142576004356001600160a01b03811690819003610142576100a5610753565b80156100ee57600080546001600160a01b03198116831782556001600160a01b0316907f8be0079c531659141344cd1fd0a4f28419497f9722a3daafe3b4186f6b6457e09080a3005b60405162461bcd60e51b815260206004820152602660248201527f4f776e61626c653a206e6577206f776e657220697320746865207a65726f206160448201526564647265737360d01b6064820152608490fd5b600080fd5b346101425760203660031901126101425760043567ffffffffffffffff8111610142576101789036906004016105e1565b805190610184826105c9565b91610192604051938461053a565b8083526101a1601f19916105c9565b0160005b81811061025457505060005b81518110156101ec57806101d06101ca600193856106ef565b5161063e565b6101da82866106ef565b526101e581856106ef565b50016101b1565b826040518091602082016020835281518091526040830190602060408260051b8601019301916000905b82821061022557505050500390f35b919360019193955060206102448192603f198a820301865288516104f9565b9601920192018594939192610216565b8060606020809387010152016101a5565b60403660031901126101425760043567ffffffffffffffff8111610142576102919036906004016105e1565b6024359067ffffffffffffffff821161014257366023830112156101425781600401356102bd816105c9565b926102cb604051948561053a565b8184526024602085019260051b820101903682116101425760248101925b8284106103785785856102fa610753565b34610367578051825103610356578051156103455760005b8151811015610343578061033d61032b600193856106ef565b5161033683876106ef565b51906107ab565b01610312565b005b6397da5f9560e01b60005260046000fd5b633bcc897960e01b60005260046000fd5b63f36ba73760e01b60005260046000fd5b833567ffffffffffffffff81116101425760209161039d839260243691870101610572565b8152019301926102e9565b34610142576000366003190112610142576000546040516001600160a01b039091168152602090f35b60403660031901126101425760243567ffffffffffffffff8111610142576103fd903690600401610572565b610405610753565b3461036757610343906004356107ab565b346101425760003660031901126101425761042f610753565b600080546001600160a01b0319811682556001600160a01b03167f8be0079c531659141344cd1fd0a4f28419497f9722a3daafe3b4186f6b6457e08280a3005b34610142576020366003190112610142576104a261048e60043561063e565b6040519182916020835260208301906104f9565b0390f35b34610142576020366003190112610142576004359063ffffffff60e01b8216809203610142576020916318a6a9a560e21b81149081156104e8575b5015158152f35b6301ffc9a760e01b149050836104e1565b919082519283825260005b848110610525575050826000602080949584010152601f8019910116010190565b80602080928401015182828601015201610504565b90601f8019910116810190811067ffffffffffffffff82111761055c57604052565b634e487b7160e01b600052604160045260246000fd5b81601f820112156101425780359067ffffffffffffffff821161055c57604051926105a7601f8401601f19166020018561053a565b8284526020838301011161014257816000926020809301838601378301015290565b67ffffffffffffffff811161055c5760051b60200190565b9080601f830112156101425781356105f8816105c9565b92610606604051948561053a565b81845260208085019260051b82010192831161014257602001905b82821061062e5750505090565b8135815260209182019101610621565b600052600160205260406000206040519081600082549261065e84610719565b80845293600181169081156106cd5750600114610686575b506106839250038261053a565b90565b90506000929192526020600020906000915b8183106106b15750509060206106839282010138610676565b6020919350806001915483858801015201910190918392610698565b90506020925061068394915060ff191682840152151560051b82010138610676565b80518210156107035760209160051b010190565b634e487b7160e01b600052603260045260246000fd5b90600182811c92168015610749575b602083101461073357565b634e487b7160e01b600052602260045260246000fd5b91607f1691610728565b6000546001600160a01b0316330361076757565b606460405162461bcd60e51b815260206004820152602060248201527f4f776e61626c653a2063616c6c6572206973206e6f7420746865206f776e65726044820152fd5b908160005260016020526040600020815167ffffffffffffffff811161055c576107d58254610719565b601f81116108de575b506020601f82116001146108545791817fece574603820d07bc9b91f2a932baadf4628aabcb8afba49776529c14a6104b2949261084494600091610849575b508160011b916000199060031b1c19161790556040519182916020835260208301906104f9565b0390a2565b90508301513861081d565b601f1982169083600052806000209160005b8181106108c65750926108449492600192827fece574603820d07bc9b91f2a932baadf4628aabcb8afba49776529c14a6104b29896106108ad575b5050811b01905561048e565b85015160001960f88460031b161c1916905538806108a1565b9192602060018192868a015181550194019201610866565b826000526020600020601f830160051c8101916020841061091c575b601f0160051c01905b81811061091057506107de565b60008155600101610903565b90915081906108fa56fea2646970667358221220f43183227320338a68276050d3ac3203d19c70019d89b862e41b3ecc0e93a8ef64736f6c634300081c0033",
  "linkReferences": {},
  "deployedLinkReferences": {}
}