{"contracts/Birra20VentiWelcome.sol":{"Birra20VentiWelcome":{"abi":[{"inputs":[{"internalType":"string","name":"name","type":"string"},{"internalType":"string","name":"symbol","type":"string"},{"internalType":"address","name":"owner","type":"address"}],"stateMutability":"nonpayable","type":"constructor"},{"inputs":[{"internalType":"address","name":"cliente","type":"address"},{"internalType":"string","name":"evento","type":"string"}],"name":"ClienteHaGiaTokenPerEvento","type":"error"},{"inputs":[],"name":"ERC725Y_DataKeysValuesEmptyArray","type":"error"},{"inputs":[],"name":"ERC725Y_DataKeysValuesLengthMismatch","type":"error"},{"inputs":[],"name":"ERC725Y_MsgValueDisallowed","type":"error"},{"inputs":[{"internalType":"bytes","name":"storedData","type":"bytes"}],"name":"InvalidExtensionAddress","type":"error"},{"inputs":[{"internalType":"bytes","name":"data","type":"bytes"}],"name":"InvalidFunctionSelector","type":"error"},{"inputs":[],"name":"LSP4TokenNameNotEditable","type":"error"},{"inputs":[],"name":"LSP4TokenSymbolNotEditable","type":"error"},{"inputs":[],"name":"LSP4TokenTypeNotEditable","type":"error"},{"inputs":[{"internalType":"uint256","name":"callIndex","type":"uint256"}],"name":"LSP8BatchCallFailed","type":"error"},{"inputs":[],"name":"LSP8CannotSendToAddressZero","type":"error"},{"inputs":[],"name":"LSP8CannotUseAddressZeroAsOperator","type":"error"},{"inputs":[],"name":"LSP8InvalidTransferBatch","type":"error"},{"inputs":[{"internalType":"bytes32","name":"tokenId","type":"bytes32"}],"name":"LSP8NonExistentTokenId","type":"error"},{"inputs":[{"internalType":"address","name":"operator","type":"address"},{"internalType":"bytes32","name":"tokenId","type":"bytes32"}],"name":"LSP8NonExistingOperator","type":"error"},{"inputs":[{"internalType":"bytes32","name":"tokenId","type":"bytes32"},{"internalType":"address","name":"caller","type":"address"}],"name":"LSP8NotTokenOperator","type":"error"},{"inputs":[{"internalType":"address","name":"tokenOwner","type":"address"},{"internalType":"bytes32","name":"tokenId","type":"bytes32"},{"internalType":"address","name":"caller","type":"address"}],"name":"LSP8NotTokenOwner","type":"error"},{"inputs":[{"internalType":"address","name":"tokenReceiver","type":"address"}],"name":"LSP8NotifyTokenReceiverContractMissingLSP1Interface","type":"error"},{"inputs":[{"internalType":"address","name":"tokenReceiver","type":"address"}],"name":"LSP8NotifyTokenReceiverIsEOA","type":"error"},{"inputs":[{"internalType":"address","name":"operator","type":"address"},{"internalType":"bytes32","name":"tokenId","type":"bytes32"}],"name":"LSP8OperatorAlreadyAuthorized","type":"error"},{"inputs":[{"internalType":"address","name":"caller","type":"address"},{"internalType":"address","name":"tokenOwner","type":"address"},{"internalType":"bytes32","name":"tokenId","type":"bytes32"}],"name":"LSP8RevokeOperatorNotAuthorized","type":"error"},{"inputs":[],"name":"LSP8TokenContractCannotHoldValue","type":"error"},{"inputs":[{"internalType":"bytes32","name":"tokenId","type":"bytes32"}],"name":"LSP8TokenIdAlreadyMinted","type":"error"},{"inputs":[],"name":"LSP8TokenIdFormatNotEditable","type":"error"},{"inputs":[],"name":"LSP8TokenIdsDataEmptyArray","type":"error"},{"inputs":[],"name":"LSP8TokenIdsDataLengthMismatch","type":"error"},{"inputs":[],"name":"LSP8TokenOwnerCannotBeOperator","type":"error"},{"inputs":[{"internalType":"bytes32","name":"tokenId","type":"bytes32"},{"internalType":"address","name":"oldOwner","type":"address"},{"internalType":"address","name":"newOwner","type":"address"}],"name":"LSP8TokenOwnerChanged","type":"error"},{"inputs":[{"internalType":"bytes4","name":"functionSelector","type":"bytes4"}],"name":"NoExtensionFoundForFunctionSelector","type":"error"},{"inputs":[{"internalType":"address","name":"caller","type":"address"}],"name":"NotAuthorized","type":"error"},{"inputs":[],"name":"OwnableCannotSetZeroAddressAsOwner","type":"error"},{"anonymous":false,"inputs":[{"indexed":true,"internalType":"bytes32","name":"dataKey","type":"bytes32"},{"indexed":false,"internalType":"bytes","name":"dataValue","type":"bytes"}],"name":"DataChanged","type":"event"},{"anonymous":false,"inputs":[{"indexed":true,"internalType":"address","name":"operator","type":"address"},{"indexed":true,"internalType":"address","name":"tokenOwner","type":"address"},{"indexed":true,"internalType":"bytes32","name":"tokenId","type":"bytes32"},{"indexed":false,"internalType":"bytes","name":"operatorNotificationData","type":"bytes"}],"name":"OperatorAuthorizationChanged","type":"event"},{"anonymous":false,"inputs":[{"indexed":true,"internalType":"address","name":"operator","type":"address"},{"indexed":true,"internalType":"address","name":"tokenOwner","type":"address"},{"indexed":true,"internalType":"bytes32","name":"tokenId","type":"bytes32"},{"indexed":false,"internalType":"bool","name":"notified","type":"bool"},{"indexed":false,"internalType":"bytes","name":"operatorNotificationData","type":"bytes"}],"name":"OperatorRevoked","type":"event"},{"anonymous":false,"inputs":[{"indexed":true,"internalType":"address","name":"previousOwner","type":"address"},{"indexed":true,"internalType":"address","name":"newOwner","type":"address"}],"name":"OwnershipTransferred","type":"event"},{"anonymous":false,"inputs":[{"indexed":true,"internalType":"address","name":"cliente","type":"address"},{"indexed":false,"internalType":"bytes32","name":"tokenId","type":"bytes32"},{"indexed":false,"internalType":"string","name":"evento","type":"string"},{"indexed":false,"internalType":"uint256","name":"timestamp","type":"uint256"}],"name":"TokenBenvenutoMintato","type":"event"},{"anonymous":false,"inputs":[{"indexed":true,"internalType":"bytes32","name":"tokenId","type":"bytes32"},{"indexed":true,"internalType":"bytes32","name":"dataKey","type":"bytes32"},{"indexed":false,"internalType":"bytes","name":"dataValue","type":"bytes"}],"name":"TokenIdDataChanged","type":"event"},{"anonymous":false,"inputs":[{"indexed":false,"internalType":"address","name":"operator","type":"address"},{"indexed":true,"internalType":"address","name":"from","type":"address"},{"indexed":true,"internalType":"address","name":"to","type":"address"},{"indexed":true,"internalType":"bytes32","name":"tokenId","type":"bytes32"},{"indexed":false,"internalType":"bool","name":"force","type":"bool"},{"indexed":false,"internalType":"bytes","name":"data","type":"bytes"}],"name":"Transfer","type":"event"},{"stateMutability":"payable","type":"fallback"},{"inputs":[{"internalType":"address","name":"operator","type":"address"},{"internalType":"bytes32","name":"tokenId","type":"bytes32"},{"internalType":"bytes","name":"operatorNotificationData","type":"bytes"}],"name":"authorizeOperator","outputs":[],"stateMutability":"nonpayable","type":"function"},{"inputs":[{"internalType":"address","name":"tokenOwner","type":"address"}],"name":"balanceOf","outputs":[{"internalType":"uint256","name":"","type":"uint256"}],"stateMutability":"view","type":"function"},{"inputs":[{"internalType":"bytes[]","name":"data","type":"bytes[]"}],"name":"batchCalls","outputs":[{"internalType":"bytes[]","name":"results","type":"bytes[]"}],"stateMutability":"nonpayable","type":"function"},{"inputs":[{"internalType":"bytes32","name":"dataKey","type":"bytes32"}],"name":"getData","outputs":[{"internalType":"bytes","name":"dataValue","type":"bytes"}],"stateMutability":"view","type":"function"},{"inputs":[{"internalType":"bytes32[]","name":"dataKeys","type":"bytes32[]"}],"name":"getDataBatch","outputs":[{"internalType":"bytes[]","name":"dataValues","type":"bytes[]"}],"stateMutability":"view","type":"function"},{"inputs":[{"internalType":"bytes32[]","name":"tokenIds","type":"bytes32[]"},{"internalType":"bytes32[]","name":"dataKeys","type":"bytes32[]"}],"name":"getDataBatchForTokenIds","outputs":[{"internalType":"bytes[]","name":"dataValues","type":"bytes[]"}],"stateMutability":"view","type":"function"},{"inputs":[{"internalType":"bytes32","name":"tokenId","type":"bytes32"},{"internalType":"bytes32","name":"dataKey","type":"bytes32"}],"name":"getDataForTokenId","outputs":[{"internalType":"bytes","name":"dataValue","type":"bytes"}],"stateMutability":"view","type":"function"},{"inputs":[{"internalType":"bytes32","name":"tokenId","type":"bytes32"}],"name":"getOperatorsOf","outputs":[{"internalType":"address[]","name":"","type":"address[]"}],"stateMutability":"view","type":"function"},{"inputs":[{"internalType":"address","name":"","type":"address"},{"internalType":"string","name":"","type":"string"}],"name":"haRicevutoPerEvento","outputs":[{"internalType":"bool","name":"","type":"bool"}],"stateMutability":"view","type":"function"},{"inputs":[{"internalType":"address","name":"operator","type":"address"},{"internalType":"bytes32","name":"tokenId","type":"bytes32"}],"name":"isOperatorFor","outputs":[{"internalType":"bool","name":"","type":"bool"}],"stateMutability":"view","type":"function"},{"inputs":[{"internalType":"address","name":"cliente","type":"address"},{"internalType":"string","name":"evento","type":"string"},{"internalType":"string","name":"ipfsImageURI","type":"string"},{"internalType":"uint256","name":"imageWidth","type":"uint256"},{"internalType":"uint256","name":"imageHeight","type":"uint256"}],"name":"mintBenvenuto","outputs":[],"stateMutability":"nonpayable","type":"function"},{"inputs":[],"name":"owner","outputs":[{"internalType":"address","name":"","type":"address"}],"stateMutability":"view","type":"function"},{"inputs":[],"name":"renounceOwnership","outputs":[],"stateMutability":"nonpayable","type":"function"},{"inputs":[{"internalType":"address","name":"operator","type":"address"},{"internalType":"bytes32","name":"tokenId","type":"bytes32"},{"internalType":"bool","name":"notify","type":"bool"},{"internalType":"bytes","name":"operatorNotificationData","type":"bytes"}],"name":"revokeOperator","outputs":[],"stateMutability":"nonpayable","type":"function"},{"inputs":[{"internalType":"bytes32","name":"dataKey","type":"bytes32"},{"internalType":"bytes","name":"dataValue","type":"bytes"}],"name":"setData","outputs":[],"stateMutability":"payable","type":"function"},{"inputs":[{"internalType":"bytes32[]","name":"dataKeys","type":"bytes32[]"},{"internalType":"bytes[]","name":"dataValues","type":"bytes[]"}],"name":"setDataBatch","outputs":[],"stateMutability":"payable","type":"function"},{"inputs":[{"internalType":"bytes32[]","name":"tokenIds","type":"bytes32[]"},{"internalType":"bytes32[]","name":"dataKeys","type":"bytes32[]"},{"internalType":"bytes[]","name":"dataValues","type":"bytes[]"}],"name":"setDataBatchForTokenIds","outputs":[],"stateMutability":"nonpayable","type":"function"},{"inputs":[{"internalType":"bytes32","name":"tokenId","type":"bytes32"},{"internalType":"bytes32","name":"dataKey","type":"bytes32"},{"internalType":"bytes","name":"dataValue","type":"bytes"}],"name":"setDataForTokenId","outputs":[],"stateMutability":"nonpayable","type":"function"},{"inputs":[{"internalType":"bytes4","name":"interfaceId","type":"bytes4"}],"name":"supportsInterface","outputs":[{"internalType":"bool","name":"","type":"bool"}],"stateMutability":"view","type":"function"},{"inputs":[{"internalType":"address","name":"","type":"address"},{"internalType":"string","name":"","type":"string"}],"name":"tokenDelClientePerEvento","outputs":[{"internalType":"bytes32","name":"","type":"bytes32"}],"stateMutability":"view","type":"function"},{"inputs":[{"internalType":"address","name":"tokenOwner","type":"address"}],"name":"tokenIdsOf","outputs":[{"internalType":"bytes32[]","name":"","type":"bytes32[]"}],"stateMutability":"view","type":"function"},{"inputs":[{"internalType":"bytes32","name":"tokenId","type":"bytes32"}],"name":"tokenOwnerOf","outputs":[{"internalType":"address","name":"","type":"address"}],"stateMutability":"view","type":"function"},{"inputs":[],"name":"totalSupply","outputs":[{"internalType":"uint256","name":"","type":"uint256"}],"stateMutability":"view","type":"function"},{"inputs":[{"internalType":"address","name":"from","type":"address"},{"internalType":"address","name":"to","type":"address"},{"internalType":"bytes32","name":"tokenId","type":"bytes32"},{"internalType":"bool","name":"force","type":"bool"},{"internalType":"bytes","name":"data","type":"bytes"}],"name":"transfer","outputs":[],"stateMutability":"nonpayable","type":"function"},{"inputs":[{"internalType":"address[]","name":"from","type":"address[]"},{"internalType":"address[]","name":"to","type":"address[]"},{"internalType":"bytes32[]","name":"tokenId","type":"bytes32[]"},{"internalType":"bool[]","name":"force","type":"bool[]"},{"internalType":"bytes[]","name":"data","type":"bytes[]"}],"name":"transferBatch","outputs":[],"stateMutability":"nonpayable","type":"function"},{"inputs":[{"internalType":"address","name":"newOwner","type":"address"}],"name":"transferOwnership","outputs":[],"stateMutability":"nonpayable","type":"function"},{"stateMutability":"payable","type":"receive"}],"evm":{"bytecode":{"linkReferences":{},"object":"60808060405234610894576137ee803803809161001c8285610899565b833981016060828203126108945781516001600160401b03811161089457816100469184016108df565b60208301519091906001600160401b0381116108945760409161006a9185016108df565b9201516001600160a01b038116808203610894576100873361095f565b15610883576100959061095f565b60409081516100a48382610899565b60048152632936598960e21b602082015260008051602061376e833981519152600052600160205282600020815160018060401b03811161054c578154600181811c91168015610879575b602082101461052c57601f8111610831575b506020601f82116001146107aa57926000805160206137ce833981519152928261015c9360008051602061376e8339815191529660009161079f575b508160011b916000199060031b1c19161790555b855191829182610933565b0390a260008051602061372e8339815191526000908152600160205282902081516001600160401b03811161054c578154600181811c91168015610795575b602082101461052c57601f811161074d575b506020601f82116001146106e057926000805160206137ce83398151915292826102089360008051602061372e83398151915296600091610452575b508160011b916000199060031b1c19161790555b845191829182610933565b0390a26000805160206137ae83398151915260009081526001602052819020825192906001600160401b03841161054c578054600181811c911680156106d6575b602082101461052c57601f811161068e575b50602093601f811160011461062157916102b691836000805160206137ce833981519152946000805160206137ae833981519152969760009161045257508160011b916000199060031b1c1916179055845191829182610933565b0390a280519060016020830152602082526102d18183610899565b60008051602061374e83398151915260009081526001602052819020825192906001600160401b03841161054c578054600181811c91168015610617575b602082101461052c57601f81116105cf575b50602093601f8111600114610562579161037c91836000805160206137ce8339815191529460008051602061374e833981519152969760009161045257508160011b916000199060031b1c1916179055845191829182610933565b0390a280519060006020830152602082526103978183610899565b60008051602061378e83398151915260009081526001602052819020825192906001600160401b03841161054c578054600181811c91168015610542575b602082101461052c57601f81116104e4575b50602093601f811160011461045d579161044291836000805160206137ce8339815191529460008051602061378e833981519152969760009161045257508160011b916000199060031b1c1916179055845191829182610933565b0390a251612d8790816109a78239f35b9050830151386101e9565b601f19811682600052856000209060005b8181106104cc575082610442949260008051602061378e83398151915297986000805160206137ce8339815191529795600194106104b3575b5050811b0190556101fd565b85015160001960f88460031b161c1916905538806104a7565b8588015183556020978801976001909301920161046e565b816000526020600020601f860160051c81019160208710610522575b601f0160051c01905b81811061051657506103e7565b60008155600101610509565b9091508190610500565b634e487b7160e01b600052602260045260246000fd5b90607f16906103d5565b634e487b7160e01b600052604160045260246000fd5b601f19811682600052856000209060005b8181106105b757508261037c949260008051602061374e83398151915297986000805160206137ce8339815191529795600194106104b3575050811b0190556101fd565b85880151835560209788019760019093019201610573565b816000526020600020601f860160051c8101916020871061060d575b601f0160051c01905b8181106106015750610321565b600081556001016105f4565b90915081906105eb565b90607f169061030f565b601f19811682600052856000209060005b8181106106765750826102b694926000805160206137ae83398151915297986000805160206137ce8339815191529795600194106104b3575050811b0190556101fd565b85880151835560209788019760019093019201610632565b816000526020600020601f860160051c810191602087106106cc575b601f0160051c01905b8181106106c0575061025b565b600081556001016106b3565b90915081906106aa565b90607f1690610249565b601f1982169083600052806000209160005b81811061073557508360008051602061372e83398151915296936000805160206137ce833981519152969361020896600194106104b3575050811b0190556101fd565b9192602060018192868a0151815501940192016106f2565b826000526020600020601f830160051c8101916020841061078b575b601f0160051c01905b81811061077f57506101ad565b60008155600101610772565b9091508190610769565b90607f169061019b565b90508301513861013d565b601f1982169083600052806000209160005b81811061081957508360008051602061376e83398151915296936000805160206137ce833981519152969361015c9660019410610800575b5050811b019055610151565b85015160001960f88460031b161c1916905538806107f4565b9192602060018192868a0151815501940192016107bc565b826000526020600020601f830160051c8101916020841061086f575b601f0160051c01905b8181106108635750610101565b60008155600101610856565b909150819061084d565b90607f16906100ef565b6306b620db60e21b60005260046000fd5b600080fd5b601f909101601f19168101906001600160401b0382119082101761054c57604052565b60005b8381106108cf5750506000910152565b81810151838201526020016108bf565b81601f820112156108945780516001600160401b03811161054c5760405192610912601f8301601f191660200185610899565b818452602082840101116108945761093091602080850191016108bc565b90565b6040916020825261095381518092816020860152602086860191016108bc565b601f01601f1916010190565b600080546001600160a01b039283166001600160a01b03198216811783559216907f8be0079c531659141344cd1fd0a4f28419497f9722a3daafe3b4186f6b6457e09080a356fe6080604052600436101561002a575b36156100255761001d36611d08565b602081519101f35b611ccb565b60003560e01c806301ffc9a7146101ca57806316e023b3146101c557806318160ddd146101c05780631d26fce6146101bb578063217b2270146101b65780632a3654a4146101b157806337a649e9146101ac57806349a6078d146101a7578063511b6952146101a257806354f6127f1461019d5780636963d4381461019857806370a082311461019357806370afd2211461018e578063715018a61461018957806378b5a616146101845780637e87632c1461017f5780637f23690c1461017a57806386a10ddd146101755780638da5cb5b14610170578063979024211461016b578063a3b261f214610166578063be9f0e6f14610161578063d6c1407c1461015c578063db8c966314610157578063dedff9c6146101525763f2fde38b0361000e57611587565b611500565b611425565b6113de565b6112ee565b61126b565b611173565b61114a565b611048565b610ff3565b610f3b565b610d9a565b610d41565b6108e5565b61087e565b610812565b6107f3565b61078c565b6106c8565b610632565b610548565b610502565b610442565b610314565b6102de565b3461027d57602036600319011261027d576004356001600160e01b0319811680820361027d5761022191631d138b8360e11b8214918215610235575b508115610225575b5060405190151581529081906020820190565b0390f35b61022f9150611d42565b3861020e565b90915063a918fa6b60e01b8114908115610252575b509038610206565b6318a6a9a560e21b81149150811561026c575b503861024a565b6301ffc9a760e01b14905038610265565b600080fd5b60005b8381106102955750506000910152565b8181015183820152602001610285565b906020916102be81518092818552858086019101610282565b601f01601f1916010190565b9060206102db9281815201906102a5565b90565b3461027d57604036600319011261027d57610221610300602435600435611e7f565b6040519182916020835260208301906102a5565b3461027d57600036600319011261027d576020600254604051908152f35b634e487b7160e01b600052604160045260246000fd5b90601f801991011681019081106001600160401b0382111761036957604052565b610332565b6001600160401b0381116103695760051b60200190565b9080601f8301121561027d57813561039c8161036e565b926103aa6040519485610348565b81845260208085019260051b82010192831161027d57602001905b8282106103d25750505090565b81358152602091820191016103c5565b602081016020825282518091526040820191602060408360051b8301019401926000915b83831061041557505050505090565b9091929394602080610433600193603f1986820301875289516102a5565b97019301930191939290610406565b3461027d57604036600319011261027d576004356001600160401b03811161027d57610472903690600401610385565b6024356001600160401b03811161027d57610491903690600401610385565b9061049f8151835114611652565b6104a9815161166a565b9160005b82518110156104f457806104d86104c6600193866116ca565b516104d183866116ca565b5190611e7f565b6104e282876116ca565b526104ed81866116ca565b50016104ad565b6040518061022186826103e2565b3461027d57602036600319011261027d5760206105206004356116ff565b6040516001600160a01b039091168152f35b600435906001600160a01b038216820361027d57565b3461027d57604036600319011261027d57602061056f610566610532565b60243590611f1b565b6040519015158152f35b6001600160401b03811161036957601f01601f191660200190565b9291926105a082610579565b916105ae6040519384610348565b82948184528183011161027d578281602093846000960137010152565b90604060031983011261027d576004356001600160a01b038116810361027d5791602435906001600160401b03821161027d578060238301121561027d578160246102db93600401359101610594565b9061062e60209282815194859201610282565b0190565b3461027d57602060ff61067082610648366105cb565b9060018060a01b03166000526007825260406000208260405194838680955193849201610282565b82019081520301902054166040519015158152f35b602060408183019282815284518094520192019060005b8181106106a95750505090565b82516001600160a01b031684526020938401939092019160010161069c565b3461027d57602036600319011261027d576004356000818152600360205260409020546107019082906001600160a01b031615156116e3565b6000526005602052604060002060405190816020825491828152019160005260206000209060005b81811061074c576102218561074081870382610348565b60405191829182610685565b8254845260209093019260019283019201610729565b60443590811515820361027d57565b9080601f8301121561027d578160206102db93359101610594565b3461027d5760a036600319011261027d576107a5610532565b602435906001600160a01b038216820361027d57606435604435811515820361027d57608435936001600160401b03851161027d576107eb6107f1953690600401610771565b93611724565b005b3461027d57602036600319011261027d57610221610300600435611899565b3461027d57602036600319011261027d576004356001600160401b03811161027d573660238201121561027d578060040135906001600160401b03821161027d573660248360051b8301011161027d57610221916024610872920161199a565b604051918291826103e2565b3461027d57602036600319011261027d576001600160a01b0361089f610532565b1660005260046020526020604060002054604051908152f35b9181601f8401121561027d578235916001600160401b03831161027d576020838186019501011161027d57565b3461027d5760a036600319011261027d576108fe610532565b6024356001600160401b03811161027d5761091d9036906004016108b8565b916044356001600160401b03811161027d5761093d9036906004016108b8565b60005460643592608435916001600160a01b03163303610d2c576001600160a01b03851660009081526007602052604090206109859061097e908989611a6e565b5460ff1690565b610d0b5760085461099590611ae0565b6008556008546001600160a01b03861660009081526007602052604090209094906109c1908989611a6e565b805460ff191660011790556001600160a01b038616600090815260066020526040902085906109f1908a8a611a6e565b556109fa611955565b610a0590868861203b565b610a0e906121cc565b91610a18906121cc565b9260405193849360208501610ad890608c907f7b224c5350344d65746164617461223a7b226e616d65223a224269727261323081527f56656e74692057656c636f6d65222c226465736372697074696f6e223a22312060208201527f6269727261206f6d616767696f206f676e6920352061637175697374692e204f60408201527f7264696e6120636f6e2069206461746920636f6e20637569207469207365692060608201526b3932b3b4b9ba3930ba37971160a11b60808201520190565b74161134b6b0b3b2b9911d2dadbd913bb4b23a34111d60591b8152601501610aff9161061b565b6916113432b4b3b43a111d60b11b8152600a01610b1b9161061b565b6716113ab936111d1160c11b815260080190610b3692611947565b7f222c22766572696669636174696f6e223a7b226d6574686f64223a226b65636381527f616b32353628627974657329222c2264617461223a223078227d7d5d5d0000006020820152603d016e2c2261747472696275746573223a5b60881b8152600f017f7b226b6579223a226272616e64222c2276616c7565223a224269727261323056815266195b9d1a489f4b60ca1b60208201526027017f7b226b6579223a2262656e65666974222c2276616c7565223a2231206269727281527f61206f6d616767696f206f676e692035206163717569737469227d2c000000006020820152603c017f7b226b6579223a226576656e746f222c2276616c7565223a22000000000000008152601901610c4d908787611947565b61227d60f01b8152600201625d7d7d60e81b815260030103601f1981018252610c769082610348565b604051602081019080610ca78584603191702629a81c26b2ba30b230ba30a529a7a71d60791b825260118201520190565b03601f1981018252610cb99082610348565b51902090610cc691612280565b6040516001600160a01b039092169391928392610ce69242929085611af4565b037eec5b82228e8f7599d26dcc6f0fd04b059033d17fc8d39c7314e2b7228c3f6b91a2005b6040516393fc05f960e01b815280610d2889898960048501611aa8565b0390fd5b634a0bfec160e01b6000523360045260246000fd5b3461027d57600036600319011261027d57610d5a6123ae565b600080546001600160a01b0319811682556001600160a01b03167f8be0079c531659141344cd1fd0a4f28419497f9722a3daafe3b4186f6b6457e08280a3005b3461027d576020610dd681610dae366105cb565b9060018060a01b03166000526006825260406000208260405194838680955193849201610282565b82019081520301902054604051908152f35b9080601f8301121561027d57813590610e008261036e565b92610e0e6040519485610348565b82845260208085019360051b82010191821161027d57602001915b818310610e365750505090565b82356001600160a01b038116810361027d57815260209283019201610e29565b9080601f8301121561027d57813590610e6e8261036e565b92610e7c6040519485610348565b82845260208085019360051b82010191821161027d57602001915b818310610ea45750505090565b8235801515810361027d57815260209283019201610e97565b9080601f8301121561027d578135610ed48161036e565b92610ee26040519485610348565b81845260208085019260051b8201019183831161027d5760208201905b838210610f0e57505050505090565b81356001600160401b03811161027d57602091610f3087848094880101610771565b815201910190610eff565b3461027d5760a036600319011261027d576004356001600160401b03811161027d57610f6b903690600401610de8565b6024356001600160401b03811161027d57610f8a903690600401610de8565b906044356001600160401b03811161027d57610faa903690600401610385565b6064356001600160401b03811161027d57610fc9903690600401610e56565b90608435936001600160401b03851161027d57610fed6107f1953690600401610ebd565b93611b17565b604036600319011261027d576004356024356001600160401b03811161027d57611021903690600401610771565b6110296123ae565b34611037576107f191612280565b63f36ba73760e01b60005260046000fd5b3461027d57606036600319011261027d57611061610532565b602435604435916001600160401b03831161027d5761114561108a6107f1943690600401610771565b9280611095816116ff565b6001600160a01b038116906110b09033908490828514611be6565b6001600160a01b0385166110c5811515611c1d565b6110d182821415611c35565b8260005260056020526110f283876110ed846040600020612b00565b611c4d565b7f1b1b58aa2ec0cec2228b2d37124556d41f5a1f7b12f089171f896cc236671215604051806111218a826102ca565b0390a46111376040519485923360208501611c75565b03601f198101845283610348565b612b6c565b3461027d57600036600319011261027d576000546040516001600160a01b039091168152602090f35b604036600319011261027d576004356001600160401b03811161027d5761119e903690600401610385565b6024356001600160401b03811161027d576111bd903690600401610ebd565b906111c66123ae565b346110375780518251036112205780511561120f5760005b81518110156107f157806112096111f7600193856116ca565b5161120283876116ca565b5190612280565b016111de565b6397da5f9560e01b60005260046000fd5b633bcc897960e01b60005260046000fd5b602060408183019282815284518094520192019060005b8181106112555750505090565b8251845260209384019390920191600101611248565b3461027d57602036600319011261027d576001600160a01b0361128c610532565b166000526004602052604060002060405190816020825491828152019160005260206000209060005b8181106112d857610221856112cc81870382610348565b60405191829182611231565b82548452602090930192600192830192016112b5565b3461027d57606036600319011261027d576004356001600160401b03811161027d5761131e903690600401610385565b6024356001600160401b03811161027d5761133d903690600401610385565b6044356001600160401b03811161027d5761135c903690600401610ebd565b916113656123ae565b61137c8151835180911490816113d3575b50611652565b8051156113c25760005b81518110156107f157806113bc61139f600193856116ca565b516113aa83876116ca565b516113b584896116ca565b5191612543565b01611386565b6380c9830560e01b60005260046000fd5b905084511438611376565b3461027d57606036600319011261027d576044356004356024356001600160401b03831161027d576114176107f1933690600401610771565b916114206123ae565b612543565b3461027d57608036600319011261027d5761143e610532565b602435611449610762565b916064356001600160401b03811161027d57611469903690600401610771565b611472836116ff565b936001600160a01b038516338190036114d3575b6114a6906001600160a01b03851661149f811515611c1d565b1415611c35565b6114b38282868887612685565b6114b957005b6107f1936111376111459260405195869360208501611ca0565b336001600160a01b0385161461148657849063760b5acd60e01b6000523360045260245260445260646000fd5b3461027d57602036600319011261027d576004356001600160401b03811161027d57611530903690600401610385565b61153a815161166a565b9060005b8151811015611579578061155d611557600193856116ca565b51611899565b61156782866116ca565b5261157281856116ca565b500161153e565b6040518061022185826103e2565b3461027d57602036600319011261027d576115a0610532565b6115a86123ae565b6001600160a01b038116156115fe57600080546001600160a01b039283166001600160a01b03198216811783559216907f8be0079c531659141344cd1fd0a4f28419497f9722a3daafe3b4186f6b6457e09080a3005b60405162461bcd60e51b815260206004820152602660248201527f4f776e61626c653a206e6577206f776e657220697320746865207a65726f206160448201526564647265737360d01b6064820152608490fd5b1561165957565b6317d38eff60e11b60005260046000fd5b906116748261036e565b6116816040519182610348565b8281528092611692601f199161036e565b019060005b8281106116a357505050565b806060602080938501015201611697565b634e487b7160e01b600052603260045260246000fd5b80518210156116de5760209160051b010190565b6116b4565b156116eb5750565b635747cd1b60e11b60005260045260246000fd5b6000818152600360205260409020546001600160a01b0316906102db908215156116e3565b909293916117328133611f1b565b156118815761187f94926111379492611875838061175261187a966116ff565b6001600160a01b03858116906117a3908316611772888686868514611be6565b6001600160a01b038b1693611788851515611f6e565b85611792816116ff565b926001600160a01b03841614611f86565b6117ad83876128a4565b6001600160a01b03861660009081526004602052604090206117d0908490612c96565b506001600160a01b03891660009081526004602052604090206117f4908490612b00565b5061182c8961180d856000526003602052604060002090565b80546001600160a01b0319166001600160a01b03909216919091179055565b6040517fb333c813a7426a7a11e2b190cad52c44119421594b47f6f32ace6d8c7207b2bf908061185e8a8e3384611fbb565b0390a4604051978894859288863360208701611fe5565b612bd0565b612a2a565b565b631294d2a960e01b6000526004523360245260446000fd5b60005260016020526040600020604051908160008254926118b984611e45565b808452936001811690811561192557506001146118de575b506102db92500382610348565b90506000929192526020600020906000915b8183106119095750509060206102db92820101386118d1565b60209193508060019154838588010152019101909183926118f0565b9050602092506102db94915060ff191682840152151560051b820101386118d1565b908092918237016000815290565b60405190611964602083610348565b60008252565b3d15611995573d9061197b82610579565b916119896040519384610348565b82523d6000602084013e565b606090565b9190916119a68361166a565b9260005b8181106119b657505050565b6000828210156116de578160051b840135601e1985360301811215611a6a578401908135916001600160401b038311611a6a57602001908236038213611a67575060009181839250611a0d60405180938193611947565b0390305af4611a1a61196a565b9015611a405790600191611a2e82886116ca565b52611a3981876116ca565b50016119aa565b805190919015611a535750805190602001fd5b63234eb81960e01b60005260045260246000fd5b80fd5b5080fd5b6020919283604051948593843782019081520301902090565b908060209392818452848401376000828201840152601f01601f1916010190565b6001600160a01b0390911681526040602082018190526102db93910191611a87565b634e487b7160e01b600052601160045260246000fd5b6000198114611aef5760010190565b611aca565b94939291604092611b12928752606060208801526060870191611a87565b930152565b94939091928551938351851480611bdc575b80611bd2575b80611bc8575b15611bb75760005b858110611b4e575050505050509050565b80611bb1611b5e6001938b6116ca565b838060a01b03905116611b81611b74848a6116ca565b516001600160a01b031690565b611b8b84876116ca565b51611b9f611b99868a6116ca565b51151590565b91611baa868b6116ca565b5193611724565b01611b3d565b6393a8311960e01b60005260046000fd5b5082518514611b35565b5081518514611b2f565b5080518514611b29565b15611bf057505050565b632d938f5160e11b60009081526001600160a01b0391821660045260249290925291909116604452606490fd5b15611c2457565b639577b8b360e01b60005260046000fd5b15611c3c57565b6344fed6b160e11b60005260046000fd5b15611c56575050565b6314ec4d6d60e31b60005260018060a01b031660045260245260446000fd5b6102db939260809260018060a01b0316825260208201526001604082015281606082015201906102a5565b6102db939260809260018060a01b0316825260208201526000604082015281606082015201906102a5565b3415611ce2576330fa4a2160e11b60005260046000fd5b606460405163e5099ee360e01b8152602060048201526004602482015260006044820152fd5b60043610611d1b576102db906000612740565b60405163e5099ee360e01b815260206004820152908190610d289060248301906000611a87565b611dab611d8e611d89604051696773c5a04a6d4300884b60b11b60208201526000602a8201526301ffc9a760e01b602c82015260208152611d84604082610348565b612c34565b611899565b611da681805160148114908115611e1d575b506127ff565b61282c565b60601c908115611e1657602091600091604051848101916301ffc9a760e01b835263ffffffff60e01b16602482015260248152611de9604482610348565b5191617530fa6000513d82611e0a575b5081611e03575090565b9050151590565b60201115915038611df9565b5050600090565b90501538611da0565b919060405192602084015260408301526040825261187f606083610348565b90600182811c92168015611e75575b6020831014611e5f57565b634e487b7160e01b600052602260045260246000fd5b91607f1691611e54565b90611e8991611e26565b602081519101206000526001602052604060002060405190816000825492611eb084611e45565b80845293600181169081156119255750600114611ed457506102db92500382610348565b90506000929192526020600020906000915b818310611eff5750509060206102db92820101386118d1565b6020919350806001915483858801015201910190918392611ee6565b6001600160a01b03611f2c836116ff565b6001600160a01b0390921691168114918215611f4757505090565b6102db92506000526005602052604060002060019160005201602052604060002054151590565b15611f7557565b6324ecef4d60e01b60005260046000fd5b15611f9057505050565b635a9c31d360e01b60009081526004919091526001600160a01b039182166024529116604452606490fd5b6001600160a01b03909116815290151560208201526060604082018190526102db929101906102a5565b6001600160a01b03918216815291811660208301529091166040820152606081019190915260a0608082018190526102db929101906102a5565b156120275750565b6334c7b51160e01b60005260045260246000fd5b61187f926001600160a01b038216926001929161187a919061216090612062871515611f6e565b6000838152600360205260409020546120869084906001600160a01b03161561201f565b6000838152600360205260409020546120aa9084906001600160a01b03161561201f565b6120b5600254611ae0565b6002556001600160a01b03851660009081526004602052604090206120db908490612b00565b506120f48561180d856000526003602052604060002090565b828760007fb333c813a7426a7a11e2b190cad52c44119421594b47f6f32ace6d8c7207b2bf60405180612129878d3384611fbb565b0390a460a060405197889460208601918980851b0333168352600060208401526040830152606082015281608082015201906102a5565b03601f198101855284610348565b9061217882610579565b6121856040519182610348565b8281528092612196601f1991610579565b0190602036910137565b8015611aef576000190190565b6030019081603011611aef57565b9081518110156116de570160200190565b90811561225f57600082805b6122445750826121e78261216e565b91905b6121f357509150565b6121ff61223d916121a0565b93612228612218612212600a84066121ad565b60ff1690565b60f81b6001600160f81b03191690565b60001a61223586856121bb565b53600a900490565b92836121ea565b9061225161225991611ae0565b91600a900490565b806121d8565b905060405161226f604082610348565b60018152600360fc1b602082015290565b907ff675e9361af1c1664c1868cfa3eb97672d6b1a513aa5b81dec34c9ee330e818d821461239d577fdeba1e292f8ba88238e10ab3c7f88bd4be4fac56cad5194b6ecceaf653468af182036122e0576385c169bd60e01b60005260046000fd5b7f2f0a68ab07768e01943a599e73362a0e17a63a72e94dd2e384d2c1d4db932756820361231857630eceab6760e31b60005260046000fd5b7fe0261fa95db2eb3b5439bd033cda66d56b96f92f243a8228fd87550ed7bdfdb3820361235057634ef6d7fb60e01b60005260046000fd5b6123987fece574603820d07bc9b91f2a932baadf4628aabcb8afba49776529c14a6104b29183600052600160205261238c816040600020612476565b604051918291826102ca565b0390a2565b631b32400560e11b60005260046000fd5b6000546001600160a01b031633036123c257565b606460405162461bcd60e51b815260206004820152602060248201527f4f776e61626c653a2063616c6c6572206973206e6f7420746865206f776e65726044820152fd5b916124209183549060031b91821b91600019901b19161790565b9055565b601f821161243157505050565b6000526020600020906020601f840160051c8301931061246c575b601f0160051c01905b818110612460575050565b60008155600101612455565b909150819061244c565b91909182516001600160401b0381116103695761249d816124978454611e45565b84612424565b6020601f82116001146124da5781906124209394956000926124cf575b50508160011b916000199060031b1c19161790565b0151905038806124ba565b601f198216906124ef84600052602060002090565b9160005b81811061252b57509583600195969710612512575b505050811b019055565b015160001960f88460031b161c19169055388080612508565b9192602060018192868b0151815501940192016124f3565b909161254f8383611e26565b602081519101206000526001602052604060002081516001600160401b03811161036957612581816124978454611e45565b6020601f82116001146125f457916125d6827fa6e4251f855f750545fe414f120db91c76b88def14d120969e5bb2d3f05debbb95936125e4956000916125e9575b508160011b916000199060031b1c19161790565b9055604051918291826102ca565b0390a3565b9050840151386125c2565b601f1982169061260984600052602060002090565b9160005b81811061266d5750926125e49492600192827fa6e4251f855f750545fe414f120db91c76b88def14d120969e5bb2d3f05debbb989610612654575b5050811b01905561238c565b85015160001960f88460031b161c191690553880612648565b9192602060018192868a01518155019401920161260d565b9193928460005260056020526126a960406000209360018060a01b03168094612c96565b156126ff57604080519115158252602082018190526001600160a01b03909216937fc78cd419d6136f9f1c1c6aec1d3fae098cffaf8bc86314a8f2685e32fe574e3c9282916126fa918301906102a5565b0390a4565b84836312a8c6a360e21b60005260045260245260446000fd5b826034959392823701916bffffffffffffffffffffffff199060601b16825260148201520190565b63ffffffff60e01b6000351691612791611d8e611d89604051696773c5a04a6d4300884b60b11b60208201526000602a82015263ffffffff60e01b8716602c82015260208152611d84604082610348565b60601c9283156127eb575091600092916127be6127cc859460405192839160208301953491339188612718565b03601f198101835282610348565b519134905af16127da61196a565b90156127e35790565b602081519101fd5b63bb370b2b60e01b60005260045260246000fd5b156128075750565b6040516342bfe79f60e01b815260206004820152908190610d289060248301906102a5565b9060208251920151916bffffffffffffffffffffffff1983169260148210612852575050565b6bffffffffffffffffffffffff1960149290920360031b82901b16169150565b6000602091604051838101906301ffc9a760e01b8252631aed5a8560e21b602482015260248152611de9604482610348565b8160005260056020526040600020918254916000936020945b8481106128cc57505050505050565b60008254156116de5782815286902054604051906001600160a01b031660006128f58984610348565b80835286815260058952604081206001600160a01b039092169161291a908390612c96565b15612973579186917fc78cd419d6136f9f1c1c6aec1d3fae098cffaf8bc86314a8f2685e32fe574e3c6001959460405190815260408c8201528061296a888060a01b038b169560408301906102a5565b0390a4016128bd565b866044926312a8c6a360e21b8352600452602452fd5b60208183031261027d578051906001600160401b03821161027d570181601f8201121561027d5780516129bb81610579565b926129c96040519485610348565b8184526020828401011161027d576102db9160208085019101610282565b9060406102db927f0b084a55ebf70fd3c06fd755269dac2212c4d3f0f4d09079780bfa50c1b2984d815281602082015201906102a5565b6040513d6000823e3d90fd5b9190612a3583612872565b15612a9d5750612a5f6000928392604051948580948193631aed5a8560e21b8352600483016129e7565b03926001600160a01b03165af18015612a9857612a795750565b612a95903d806000833e612a8d8183610348565b810190612989565b50565b612a1e565b905015612aa75750565b803b15612acb57634349776d60e01b6000526001600160a01b031660045260246000fd5b630317313760e01b6000526001600160a01b031660045260246000fd5b80548210156116de5760005260206000200190600090565b6000828152600182016020526040902054611e1657805490680100000000000000008210156103695782612b55612b3e846001809601855584612ae8565b819391549060031b91821b91600019901b19161790565b905580549260005201602052604060002055600190565b612b7581612872565b612b7d575050565b612a5f600092918392604051948580948193631aed5a8560e21b83527f8a1c15a8799f71b547e08e2bcb2e85257e81b0a07eee2ce6712549eef1f0097060048401526040602484015260448301906102a5565b612bd981612872565b612be1575050565b612a5f600092918392604051948580948193631aed5a8560e21b83527fb23eae7e6d1564b295b4c3e3be402d9a2f0776c57bdf365903496f6fa481ab0060048401526040602484015260448301906102a5565b602081519101519060208110612c48575090565b6000199060200360031b1b1690565b80548015612c80576000190190612c6e8282612ae8565b8154906000199060031b1b1916905555565b634e487b7160e01b600052603160045260246000fd5b6001810191806000528260205260406000205492831515600014612d48576000198401848111611aef578354600019810194908511611aef576000958583612cea94612cf99803612cff575b505050612c57565b90600052602052604060002090565b55600190565b612d2f612d2991612d20612d16612d3f9588612ae8565b90549060031b1c90565b92839187612ae8565b90612406565b8590600052602052604060002090565b55388080612ce2565b5050505060009056fea26469706673582212202d200a2290cbae295d5fc50370c02d072761fe4fed1f24520c574014f155513264736f6c634300081c0033deba1e292f8ba88238e10ab3c7f88bd4be4fac56cad5194b6ecceaf653468af1e0261fa95db2eb3b5439bd033cda66d56b96f92f243a8228fd87550ed7bdfdb3eafec4d89fa9619884b60000a4d96624a38f7ac2d8d9a604ecf07c12c77e480cf675e9361af1c1664c1868cfa3eb97672d6b1a513aa5b81dec34c9ee330e818d2f0a68ab07768e01943a599e73362a0e17a63a72e94dd2e384d2c1d4db932756ece574603820d07bc9b91f2a932baadf4628aabcb8afba49776529c14a6104b2","opcodes":"PUSH1 0x80 DUP1 PUSH1 0x40 MSTORE CALLVALUE PUSH2 0x894 JUMPI PUSH2 0x37EE DUP1 CODESIZE SUB DUP1 SWAP2 PUSH2 0x1C DUP3 DUP6 PUSH2 0x899 JUMP JUMPDEST DUP4 CODECOPY DUP2 ADD PUSH1 0x60 DUP3 DUP3 SUB SLT PUSH2 0x894 JUMPI DUP2 MLOAD PUSH1 0x1 PUSH1 0x1 PUSH1 0x40 SHL SUB DUP2 GT PUSH2 0x894 JUMPI DUP2 PUSH2 0x46 SWAP2 DUP5 ADD PUSH2 0x8DF JUMP JUMPDEST PUSH1 0x20 DUP4 ADD MLOAD SWAP1 SWAP2 SWAP1 PUSH1 0x1 PUSH1 0x1 PUSH1 0x40 SHL SUB DUP2 GT PUSH2 0x894 JUMPI PUSH1 0x40 SWAP2 PUSH2 0x6A SWAP2 DUP6 ADD PUSH2 0x8DF JUMP JUMPDEST SWAP3 ADD MLOAD PUSH1 0x1 PUSH1 0x1 PUSH1 0xA0 SHL SUB DUP2 AND DUP1 DUP3 SUB PUSH2 0x894 JUMPI PUSH2 0x87 CALLER PUSH2 0x95F JUMP JUMPDEST ISZERO PUSH2 0x883 JUMPI PUSH2 0x95 SWAP1 PUSH2 0x95F JUMP JUMPDEST PUSH1 0x40 SWAP1 DUP2 MLOAD PUSH2 0xA4 DUP4 DUP3 PUSH2 0x899 JUMP JUMPDEST PUSH1 0x4 DUP2 MSTORE PUSH4 0x29365989 PUSH1 0xE2 SHL PUSH1 0x20 DUP3 ADD MSTORE PUSH1 0x0 DUP1 MLOAD PUSH1 0x20 PUSH2 0x376E DUP4 CODECOPY DUP2 MLOAD SWAP2 MSTORE PUSH1 0x0 MSTORE PUSH1 0x1 PUSH1 0x20 MSTORE DUP3 PUSH1 0x0 KECCAK256 DUP2 MLOAD PUSH1 0x1 DUP1 PUSH1 0x40 SHL SUB DUP2 GT PUSH2 0x54C JUMPI DUP2 SLOAD PUSH1 0x1 DUP2 DUP2 SHR SWAP2 AND DUP1 ISZERO PUSH2 0x879 JUMPI JUMPDEST PUSH1 0x20 DUP3 LT EQ PUSH2 0x52C JUMPI PUSH1 0x1F DUP2 GT PUSH2 0x831 JUMPI JUMPDEST POP PUSH1 0x20 PUSH1 0x1F DUP3 GT PUSH1 0x1 EQ PUSH2 0x7AA JUMPI SWAP3 PUSH1 0x0 DUP1 MLOAD PUSH1 0x20 PUSH2 0x37CE DUP4 CODECOPY DUP2 MLOAD SWAP2 MSTORE SWAP3 DUP3 PUSH2 0x15C SWAP4 PUSH1 0x0 DUP1 MLOAD PUSH1 0x20 PUSH2 0x376E DUP4 CODECOPY DUP2 MLOAD SWAP2 MSTORE SWAP7 PUSH1 0x0 SWAP2 PUSH2 0x79F JUMPI JUMPDEST POP DUP2 PUSH1 0x1 SHL SWAP2 PUSH1 0x0 NOT SWAP1 PUSH1 0x3 SHL SHR NOT AND OR SWAP1 SSTORE JUMPDEST DUP6 MLOAD SWAP2 DUP3 SWAP2 DUP3 PUSH2 0x933 JUMP JUMPDEST SUB SWAP1 LOG2 PUSH1 0x0 DUP1 MLOAD PUSH1 0x20 PUSH2 0x372E DUP4 CODECOPY DUP2 MLOAD SWAP2 MSTORE PUSH1 0x0 SWAP1 DUP2 MSTORE PUSH1 0x1 PUSH1 0x20 MSTORE DUP3 SWAP1 KECCAK256 DUP2 MLOAD PUSH1 0x1 PUSH1 0x1 PUSH1 0x40 SHL SUB DUP2 GT PUSH2 0x54C JUMPI DUP2 SLOAD PUSH1 0x1 DUP2 DUP2 SHR SWAP2 AND DUP1 ISZERO PUSH2 0x795 JUMPI JUMPDEST PUSH1 0x20 DUP3 LT EQ PUSH2 0x52C JUMPI PUSH1 0x1F DUP2 GT PUSH2 0x74D JUMPI JUMPDEST POP PUSH1 0x20 PUSH1 0x1F DUP3 GT PUSH1 0x1 EQ PUSH2 0x6E0 JUMPI SWAP3 PUSH1 0x0 DUP1 MLOAD PUSH1 0x20 PUSH2 0x37CE DUP4 CODECOPY DUP2 MLOAD SWAP2 MSTORE SWAP3 DUP3 PUSH2 0x208 SWAP4 PUSH1 0x0 DUP1 MLOAD PUSH1 0x20 PUSH2 0x372E DUP4 CODECOPY DUP2 MLOAD SWAP2 MSTORE SWAP7 PUSH1 0x0 SWAP2 PUSH2 0x452 JUMPI JUMPDEST POP DUP2 PUSH1 0x1 SHL SWAP2 PUSH1 0x0 NOT SWAP1 PUSH1 0x3 SHL SHR NOT AND OR SWAP1 SSTORE JUMPDEST DUP5 MLOAD SWAP2 DUP3 SWAP2 DUP3 PUSH2 0x933 JUMP JUMPDEST SUB SWAP1 LOG2 PUSH1 0x0 DUP1 MLOAD PUSH1 0x20 PUSH2 0x37AE DUP4 CODECOPY DUP2 MLOAD SWAP2 MSTORE PUSH1 0x0 SWAP1 DUP2 MSTORE PUSH1 0x1 PUSH1 0x20 MSTORE DUP2 SWAP1 KECCAK256 DUP3 MLOAD SWAP3 SWAP1 PUSH1 0x1 PUSH1 0x1 PUSH1 0x40 SHL SUB DUP5 GT PUSH2 0x54C JUMPI DUP1 SLOAD PUSH1 0x1 DUP2 DUP2 SHR SWAP2 AND DUP1 ISZERO PUSH2 0x6D6 JUMPI JUMPDEST PUSH1 0x20 DUP3 LT EQ PUSH2 0x52C JUMPI PUSH1 0x1F DUP2 GT PUSH2 0x68E JUMPI JUMPDEST POP PUSH1 0x20 SWAP4 PUSH1 0x1F DUP2 GT PUSH1 0x1 EQ PUSH2 0x621 JUMPI SWAP2 PUSH2 0x2B6 SWAP2 DUP4 PUSH1 0x0 DUP1 MLOAD PUSH1 0x20 PUSH2 0x37CE DUP4 CODECOPY DUP2 MLOAD SWAP2 MSTORE SWAP5 PUSH1 0x0 DUP1 MLOAD PUSH1 0x20 PUSH2 0x37AE DUP4 CODECOPY DUP2 MLOAD SWAP2 MSTORE SWAP7 SWAP8 PUSH1 0x0 SWAP2 PUSH2 0x452 JUMPI POP DUP2 PUSH1 0x1 SHL SWAP2 PUSH1 0x0 NOT SWAP1 PUSH1 0x3 SHL SHR NOT AND OR SWAP1 SSTORE DUP5 MLOAD SWAP2 DUP3 SWAP2 DUP3 PUSH2 0x933 JUMP JUMPDEST SUB SWAP1 LOG2 DUP1 MLOAD SWAP1 PUSH1 0x1 PUSH1 0x20 DUP4 ADD MSTORE PUSH1 0x20 DUP3 MSTORE PUSH2 0x2D1 DUP2 DUP4 PUSH2 0x899 JUMP JUMPDEST PUSH1 0x0 DUP1 MLOAD PUSH1 0x20 PUSH2 0x374E DUP4 CODECOPY DUP2 MLOAD SWAP2 MSTORE PUSH1 0x0 SWAP1 DUP2 MSTORE PUSH1 0x1 PUSH1 0x20 MSTORE DUP2 SWAP1 KECCAK256 DUP3 MLOAD SWAP3 SWAP1 PUSH1 0x1 PUSH1 0x1 PUSH1 0x40 SHL SUB DUP5 GT PUSH2 0x54C JUMPI DUP1 SLOAD PUSH1 0x1 DUP2 DUP2 SHR SWAP2 AND DUP1 ISZERO PUSH2 0x617 JUMPI JUMPDEST PUSH1 0x20 DUP3 LT EQ PUSH2 0x52C JUMPI PUSH1 0x1F DUP2 GT PUSH2 0x5CF JUMPI JUMPDEST POP PUSH1 0x20 SWAP4 PUSH1 0x1F DUP2 GT PUSH1 0x1 EQ PUSH2 0x562 JUMPI SWAP2 PUSH2 0x37C SWAP2 DUP4 PUSH1 0x0 DUP1 MLOAD PUSH1 0x20 PUSH2 0x37CE DUP4 CODECOPY DUP2 MLOAD SWAP2 MSTORE SWAP5 PUSH1 0x0 DUP1 MLOAD PUSH1 0x20 PUSH2 0x374E DUP4 CODECOPY DUP2 MLOAD SWAP2 MSTORE SWAP7 SWAP8 PUSH1 0x0 SWAP2 PUSH2 0x452 JUMPI POP DUP2 PUSH1 0x1 SHL SWAP2 PUSH1 0x0 NOT SWAP1 PUSH1 0x3 SHL SHR NOT AND OR SWAP1 SSTORE DUP5 MLOAD SWAP2 DUP3 SWAP2 DUP3 PUSH2 0x933 JUMP JUMPDEST SUB SWAP1 LOG2 DUP1 MLOAD SWAP1 PUSH1 0x0 PUSH1 0x20 DUP4 ADD MSTORE PUSH1 0x20 DUP3 MSTORE PUSH2 0x397 DUP2 DUP4 PUSH2 0x899 JUMP JUMPDEST PUSH1 0x0 DUP1 MLOAD PUSH1 0x20 PUSH2 0x378E DUP4 CODECOPY DUP2 MLOAD SWAP2 MSTORE PUSH1 0x0 SWAP1 DUP2 MSTORE PUSH1 0x1 PUSH1 0x20 MSTORE DUP2 SWAP1 KECCAK256 DUP3 MLOAD SWAP3 SWAP1 PUSH1 0x1 PUSH1 0x1 PUSH1 0x40 SHL SUB DUP5 GT PUSH2 0x54C JUMPI DUP1 SLOAD PUSH1 0x1 DUP2 DUP2 SHR SWAP2 AND DUP1 ISZERO PUSH2 0x542 JUMPI JUMPDEST PUSH1 0x20 DUP3 LT EQ PUSH2 0x52C JUMPI PUSH1 0x1F DUP2 GT PUSH2 0x4E4 JUMPI JUMPDEST POP PUSH1 0x20 SWAP4 PUSH1 0x1F DUP2 GT PUSH1 0x1 EQ PUSH2 0x45D JUMPI SWAP2 PUSH2 0x442 SWAP2 DUP4 PUSH1 0x0 DUP1 MLOAD PUSH1 0x20 PUSH2 0x37CE DUP4 CODECOPY DUP2 MLOAD SWAP2 MSTORE SWAP5 PUSH1 0x0 DUP1 MLOAD PUSH1 0x20 PUSH2 0x378E DUP4 CODECOPY DUP2 MLOAD SWAP2 MSTORE SWAP7 SWAP8 PUSH1 0x0 SWAP2 PUSH2 0x452 JUMPI POP DUP2 PUSH1 0x1 SHL SWAP2 PUSH1 0x0 NOT SWAP1 PUSH1 0x3 SHL SHR NOT AND OR SWAP1 SSTORE DUP5 MLOAD SWAP2 DUP3 SWAP2 DUP3 PUSH2 0x933 JUMP JUMPDEST SUB SWAP1 LOG2 MLOAD PUSH2 0x2D87 SWAP1 DUP2 PUSH2 0x9A7 DUP3 CODECOPY RETURN JUMPDEST SWAP1 POP DUP4 ADD MLOAD CODESIZE PUSH2 0x1E9 JUMP JUMPDEST PUSH1 0x1F NOT DUP2 AND DUP3 PUSH1 0x0 MSTORE DUP6 PUSH1 0x0 KECCAK256 SWAP1 PUSH1 0x0 JUMPDEST DUP2 DUP2 LT PUSH2 0x4CC JUMPI POP DUP3 PUSH2 0x442 SWAP5 SWAP3 PUSH1 0x0 DUP1 MLOAD PUSH1 0x20 PUSH2 0x378E DUP4 CODECOPY DUP2 MLOAD SWAP2 MSTORE SWAP8 SWAP9 PUSH1 0x0 DUP1 MLOAD PUSH1 0x20 PUSH2 0x37CE DUP4 CODECOPY DUP2 MLOAD SWAP2 MSTORE SWAP8 SWAP6 PUSH1 0x1 SWAP5 LT PUSH2 0x4B3 JUMPI JUMPDEST POP POP DUP2 SHL ADD SWAP1 SSTORE PUSH2 0x1FD JUMP JUMPDEST DUP6 ADD MLOAD PUSH1 0x0 NOT PUSH1 0xF8 DUP5 PUSH1 0x3 SHL AND SHR NOT AND SWAP1 SSTORE CODESIZE DUP1 PUSH2 0x4A7 JUMP JUMPDEST DUP6 DUP9 ADD MLOAD DUP4 SSTORE PUSH1 0x20 SWAP8 DUP9 ADD SWAP8 PUSH1 0x1 SWAP1 SWAP4 ADD SWAP3 ADD PUSH2 0x46E JUMP JUMPDEST DUP2 PUSH1 0x0 MSTORE PUSH1 0x20 PUSH1 0x0 KECCAK256 PUSH1 0x1F DUP7 ADD PUSH1 0x5 SHR DUP2 ADD SWAP2 PUSH1 0x20 DUP8 LT PUSH2 0x522 JUMPI JUMPDEST PUSH1 0x1F ADD PUSH1 0x5 SHR ADD SWAP1 JUMPDEST DUP2 DUP2 LT PUSH2 0x516 JUMPI POP PUSH2 0x3E7 JUMP JUMPDEST PUSH1 0x0 DUP2 SSTORE PUSH1 0x1 ADD PUSH2 0x509 JUMP JUMPDEST SWAP1 SWAP2 POP DUP2 SWAP1 PUSH2 0x500 JUMP JUMPDEST PUSH4 0x4E487B71 PUSH1 0xE0 SHL PUSH1 0x0 MSTORE PUSH1 0x22 PUSH1 0x4 MSTORE PUSH1 0x24 PUSH1 0x0 REVERT JUMPDEST SWAP1 PUSH1 0x7F AND SWAP1 PUSH2 0x3D5 JUMP JUMPDEST PUSH4 0x4E487B71 PUSH1 0xE0 SHL PUSH1 0x0 MSTORE PUSH1 0x41 PUSH1 0x4 MSTORE PUSH1 0x24 PUSH1 0x0 REVERT JUMPDEST PUSH1 0x1F NOT DUP2 AND DUP3 PUSH1 0x0 MSTORE DUP6 PUSH1 0x0 KECCAK256 SWAP1 PUSH1 0x0 JUMPDEST DUP2 DUP2 LT PUSH2 0x5B7 JUMPI POP DUP3 PUSH2 0x37C SWAP5 SWAP3 PUSH1 0x0 DUP1 MLOAD PUSH1 0x20 PUSH2 0x374E DUP4 CODECOPY DUP2 MLOAD SWAP2 MSTORE SWAP8 SWAP9 PUSH1 0x0 DUP1 MLOAD PUSH1 0x20 PUSH2 0x37CE DUP4 CODECOPY DUP2 MLOAD SWAP2 MSTORE SWAP8 SWAP6 PUSH1 0x1 SWAP5 LT PUSH2 0x4B3 JUMPI POP POP DUP2 SHL ADD SWAP1 SSTORE PUSH2 0x1FD JUMP JUMPDEST DUP6 DUP9 ADD MLOAD DUP4 SSTORE PUSH1 0x20 SWAP8 DUP9 ADD SWAP8 PUSH1 0x1 SWAP1 SWAP4 ADD SWAP3 ADD PUSH2 0x573 JUMP JUMPDEST DUP2 PUSH1 0x0 MSTORE PUSH1 0x20 PUSH1 0x0 KECCAK256 PUSH1 0x1F DUP7 ADD PUSH1 0x5 SHR DUP2 ADD SWAP2 PUSH1 0x20 DUP8 LT PUSH2 0x60D JUMPI JUMPDEST PUSH1 0x1F ADD PUSH1 0x5 SHR ADD SWAP1 JUMPDEST DUP2 DUP2 LT PUSH2 0x601 JUMPI POP PUSH2 0x321 JUMP JUMPDEST PUSH1 0x0 DUP2 SSTORE PUSH1 0x1 ADD PUSH2 0x5F4 JUMP JUMPDEST SWAP1 SWAP2 POP DUP2 SWAP1 PUSH2 0x5EB JUMP JUMPDEST SWAP1 PUSH1 0x7F AND SWAP1 PUSH2 0x30F JUMP JUMPDEST PUSH1 0x1F NOT DUP2 AND DUP3 PUSH1 0x0 MSTORE DUP6 PUSH1 0x0 KECCAK256 SWAP1 PUSH1 0x0 JUMPDEST DUP2 DUP2 LT PUSH2 0x676 JUMPI POP DUP3 PUSH2 0x2B6 SWAP5 SWAP3 PUSH1 0x0 DUP1 MLOAD PUSH1 0x20 PUSH2 0x37AE DUP4 CODECOPY DUP2 MLOAD SWAP2 MSTORE SWAP8 SWAP9 PUSH1 0x0 DUP1 MLOAD PUSH1 0x20 PUSH2 0x37CE DUP4 CODECOPY DUP2 MLOAD SWAP2 MSTORE SWAP8 SWAP6 PUSH1 0x1 SWAP5 LT PUSH2 0x4B3 JUMPI POP POP DUP2 SHL ADD SWAP1 SSTORE PUSH2 0x1FD JUMP JUMPDEST DUP6 DUP9 ADD MLOAD DUP4 SSTORE PUSH1 0x20 SWAP8 DUP9 ADD SWAP8 PUSH1 0x1 SWAP1 SWAP4 ADD SWAP3 ADD PUSH2 0x632 JUMP JUMPDEST DUP2 PUSH1 0x0 MSTORE PUSH1 0x20 PUSH1 0x0 KECCAK256 PUSH1 0x1F DUP7 ADD PUSH1 0x5 SHR DUP2 ADD SWAP2 PUSH1 0x20 DUP8 LT PUSH2 0x6CC JUMPI JUMPDEST PUSH1 0x1F ADD PUSH1 0x5 SHR ADD SWAP1 JUMPDEST DUP2 DUP2 LT PUSH2 0x6C0 JUMPI POP PUSH2 0x25B JUMP JUMPDEST PUSH1 0x0 DUP2 SSTORE PUSH1 0x1 ADD PUSH2 0x6B3 JUMP JUMPDEST SWAP1 SWAP2 POP DUP2 SWAP1 PUSH2 0x6AA JUMP JUMPDEST SWAP1 PUSH1 0x7F AND SWAP1 PUSH2 0x249 JUMP JUMPDEST PUSH1 0x1F NOT DUP3 AND SWAP1 DUP4 PUSH1 0x0 MSTORE DUP1 PUSH1 0x0 KECCAK256 SWAP2 PUSH1 0x0 JUMPDEST DUP2 DUP2 LT PUSH2 0x735 JUMPI POP DUP4 PUSH1 0x0 DUP1 MLOAD PUSH1 0x20 PUSH2 0x372E DUP4 CODECOPY DUP2 MLOAD SWAP2 MSTORE SWAP7 SWAP4 PUSH1 0x0 DUP1 MLOAD PUSH1 0x20 PUSH2 0x37CE DUP4 CODECOPY DUP2 MLOAD SWAP2 MSTORE SWAP7 SWAP4 PUSH2 0x208 SWAP7 PUSH1 0x1 SWAP5 LT PUSH2 0x4B3 JUMPI POP POP DUP2 SHL ADD SWAP1 SSTORE PUSH2 0x1FD JUMP JUMPDEST SWAP2 SWAP3 PUSH1 0x20 PUSH1 0x1 DUP2 SWAP3 DUP7 DUP11 ADD MLOAD DUP2 SSTORE ADD SWAP5 ADD SWAP3 ADD PUSH2 0x6F2 JUMP JUMPDEST DUP3 PUSH1 0x0 MSTORE PUSH1 0x20 PUSH1 0x0 KECCAK256 PUSH1 0x1F DUP4 ADD PUSH1 0x5 SHR DUP2 ADD SWAP2 PUSH1 0x20 DUP5 LT PUSH2 0x78B JUMPI JUMPDEST PUSH1 0x1F ADD PUSH1 0x5 SHR ADD SWAP1 JUMPDEST DUP2 DUP2 LT PUSH2 0x77F JUMPI POP PUSH2 0x1AD JUMP JUMPDEST PUSH1 0x0 DUP2 SSTORE PUSH1 0x1 ADD PUSH2 0x772 JUMP JUMPDEST SWAP1 SWAP2 POP DUP2 SWAP1 PUSH2 0x769 JUMP JUMPDEST SWAP1 PUSH1 0x7F AND SWAP1 PUSH2 0x19B JUMP JUMPDEST SWAP1 POP DUP4 ADD MLOAD CODESIZE PUSH2 0x13D JUMP JUMPDEST PUSH1 0x1F NOT DUP3 AND SWAP1 DUP4 PUSH1 0x0 MSTORE DUP1 PUSH1 0x0 KECCAK256 SWAP2 PUSH1 0x0 JUMPDEST DUP2 DUP2 LT PUSH2 0x819 JUMPI POP DUP4 PUSH1 0x0 DUP1 MLOAD PUSH1 0x20 PUSH2 0x376E DUP4 CODECOPY DUP2 MLOAD SWAP2 MSTORE SWAP7 SWAP4 PUSH1 0x0 DUP1 MLOAD PUSH1 0x20 PUSH2 0x37CE DUP4 CODECOPY DUP2 MLOAD SWAP2 MSTORE SWAP7 SWAP4 PUSH2 0x15C SWAP7 PUSH1 0x1 SWAP5 LT PUSH2 0x800 JUMPI JUMPDEST POP POP DUP2 SHL ADD SWAP1 SSTORE PUSH2 0x151 JUMP JUMPDEST DUP6 ADD MLOAD PUSH1 0x0 NOT PUSH1 0xF8 DUP5 PUSH1 0x3 SHL AND SHR NOT AND SWAP1 SSTORE CODESIZE DUP1 PUSH2 0x7F4 JUMP JUMPDEST SWAP2 SWAP3 PUSH1 0x20 PUSH1 0x1 DUP2 SWAP3 DUP7 DUP11 ADD MLOAD DUP2 SSTORE ADD SWAP5 ADD SWAP3 ADD PUSH2 0x7BC JUMP JUMPDEST DUP3 PUSH1 0x0 MSTORE PUSH1 0x20 PUSH1 0x0 KECCAK256 PUSH1 0x1F DUP4 ADD PUSH1 0x5 SHR DUP2 ADD SWAP2 PUSH1 0x20 DUP5 LT PUSH2 0x86F JUMPI JUMPDEST PUSH1 0x1F ADD PUSH1 0x5 SHR ADD SWAP1 JUMPDEST DUP2 DUP2 LT PUSH2 0x863 JUMPI POP PUSH2 0x101 JUMP JUMPDEST PUSH1 0x0 DUP2 SSTORE PUSH1 0x1 ADD PUSH2 0x856 JUMP JUMPDEST SWAP1 SWAP2 POP DUP2 SWAP1 PUSH2 0x84D JUMP JUMPDEST SWAP1 PUSH1 0x7F AND SWAP1 PUSH2 0xEF JUMP JUMPDEST PUSH4 0x6B620DB PUSH1 0xE2 SHL PUSH1 0x0 MSTORE PUSH1 0x4 PUSH1 0x0 REVERT JUMPDEST PUSH1 0x0 DUP1 REVERT JUMPDEST PUSH1 0x1F SWAP1 SWAP2 ADD PUSH1 0x1F NOT AND DUP2 ADD SWAP1 PUSH1 0x1 PUSH1 0x1 PUSH1 0x40 SHL SUB DUP3 GT SWAP1 DUP3 LT OR PUSH2 0x54C JUMPI PUSH1 0x40 MSTORE JUMP JUMPDEST PUSH1 0x0 JUMPDEST DUP4 DUP2 LT PUSH2 0x8CF JUMPI POP POP PUSH1 0x0 SWAP2 ADD MSTORE JUMP JUMPDEST DUP2 DUP2 ADD MLOAD DUP4 DUP3 ADD MSTORE PUSH1 0x20 ADD PUSH2 0x8BF JUMP JUMPDEST DUP2 PUSH1 0x1F DUP3 ADD SLT ISZERO PUSH2 0x894 JUMPI DUP1 MLOAD PUSH1 0x1 PUSH1 0x1 PUSH1 0x40 SHL SUB DUP2 GT PUSH2 0x54C JUMPI PUSH1 0x40 MLOAD SWAP3 PUSH2 0x912 PUSH1 0x1F DUP4 ADD PUSH1 0x1F NOT AND PUSH1 0x20 ADD DUP6 PUSH2 0x899 JUMP JUMPDEST DUP2 DUP5 MSTORE PUSH1 0x20 DUP3 DUP5 ADD ADD GT PUSH2 0x894 JUMPI PUSH2 0x930 SWAP2 PUSH1 0x20 DUP1 DUP6 ADD SWAP2 ADD PUSH2 0x8BC JUMP JUMPDEST SWAP1 JUMP JUMPDEST PUSH1 0x40 SWAP2 PUSH1 0x20 DUP3 MSTORE PUSH2 0x953 DUP2 MLOAD DUP1 SWAP3 DUP2 PUSH1 0x20 DUP7 ADD MSTORE PUSH1 0x20 DUP7 DUP7 ADD SWAP2 ADD PUSH2 0x8BC JUMP JUMPDEST PUSH1 0x1F ADD PUSH1 0x1F NOT AND ADD ADD SWAP1 JUMP JUMPDEST PUSH1 0x0 DUP1 SLOAD PUSH1 0x1 PUSH1 0x1 PUSH1 0xA0 SHL SUB SWAP3 DUP4 AND PUSH1 0x1 PUSH1 0x1 PUSH1 0xA0 SHL SUB NOT DUP3 AND DUP2 OR DUP4 SSTORE SWAP3 AND SWAP1 PUSH32 0x8BE0079C531659141344CD1FD0A4F28419497F9722A3DAAFE3B4186F6B6457E0 SWAP1 DUP1 LOG3 JUMP INVALID PUSH1 0x80 PUSH1 0x40 MSTORE PUSH1 0x4 CALLDATASIZE LT ISZERO PUSH2 0x2A JUMPI JUMPDEST CALLDATASIZE ISZERO PUSH2 0x25 JUMPI PUSH2 0x1D CALLDATASIZE PUSH2 0x1D08 JUMP JUMPDEST PUSH1 0x20 DUP2 MLOAD SWAP2 ADD RETURN JUMPDEST PUSH2 0x1CCB JUMP JUMPDEST PUSH1 0x0 CALLDATALOAD PUSH1 0xE0 SHR DUP1 PUSH4 0x1FFC9A7 EQ PUSH2 0x1CA JUMPI DUP1 PUSH4 0x16E023B3 EQ PUSH2 0x1C5 JUMPI DUP1 PUSH4 0x18160DDD EQ PUSH2 0x1C0 JUMPI DUP1 PUSH4 0x1D26FCE6 EQ PUSH2 0x1BB JUMPI DUP1 PUSH4 0x217B2270 EQ PUSH2 0x1B6 JUMPI DUP1 PUSH4 0x2A3654A4 EQ PUSH2 0x1B1 JUMPI DUP1 PUSH4 0x37A649E9 EQ PUSH2 0x1AC JUMPI DUP1 PUSH4 0x49A6078D EQ PUSH2 0x1A7 JUMPI DUP1 PUSH4 0x511B6952 EQ PUSH2 0x1A2 JUMPI DUP1 PUSH4 0x54F6127F EQ PUSH2 0x19D JUMPI DUP1 PUSH4 0x6963D438 EQ PUSH2 0x198 JUMPI DUP1 PUSH4 0x70A08231 EQ PUSH2 0x193 JUMPI DUP1 PUSH4 0x70AFD221 EQ PUSH2 0x18E JUMPI DUP1 PUSH4 0x715018A6 EQ PUSH2 0x189 JUMPI DUP1 PUSH4 0x78B5A616 EQ PUSH2 0x184 JUMPI DUP1 PUSH4 0x7E87632C EQ PUSH2 0x17F JUMPI DUP1 PUSH4 0x7F23690C EQ PUSH2 0x17A JUMPI DUP1 PUSH4 0x86A10DDD EQ PUSH2 0x175 JUMPI DUP1 PUSH4 0x8DA5CB5B EQ PUSH2 0x170 JUMPI DUP1 PUSH4 0x97902421 EQ PUSH2 0x16B JUMPI DUP1 PUSH4 0xA3B261F2 EQ PUSH2 0x166 JUMPI DUP1 PUSH4 0xBE9F0E6F EQ PUSH2 0x161 JUMPI DUP1 PUSH4 0xD6C1407C EQ PUSH2 0x15C JUMPI DUP1 PUSH4 0xDB8C9663 EQ PUSH2 0x157 JUMPI DUP1 PUSH4 0xDEDFF9C6 EQ PUSH2 0x152 JUMPI PUSH4 0xF2FDE38B SUB PUSH2 0xE JUMPI PUSH2 0x1587 JUMP JUMPDEST PUSH2 0x1500 JUMP JUMPDEST PUSH2 0x1425 JUMP JUMPDEST PUSH2 0x13DE JUMP JUMPDEST PUSH2 0x12EE JUMP JUMPDEST PUSH2 0x126B JUMP JUMPDEST PUSH2 0x1173 JUMP JUMPDEST PUSH2 0x114A JUMP JUMPDEST PUSH2 0x1048 JUMP JUMPDEST PUSH2 0xFF3 JUMP JUMPDEST PUSH2 0xF3B JUMP JUMPDEST PUSH2 0xD9A JUMP JUMPDEST PUSH2 0xD41 JUMP JUMPDEST PUSH2 0x8E5 JUMP JUMPDEST PUSH2 0x87E JUMP JUMPDEST PUSH2 0x812 JUMP JUMPDEST PUSH2 0x7F3 JUMP JUMPDEST PUSH2 0x78C JUMP JUMPDEST PUSH2 0x6C8 JUMP JUMPDEST PUSH2 0x632 JUMP JUMPDEST PUSH2 0x548 JUMP JUMPDEST PUSH2 0x502 JUMP JUMPDEST PUSH2 0x442 JUMP JUMPDEST PUSH2 0x314 JUMP JUMPDEST PUSH2 0x2DE JUMP JUMPDEST CALLVALUE PUSH2 0x27D JUMPI PUSH1 0x20 CALLDATASIZE PUSH1 0x3 NOT ADD SLT PUSH2 0x27D JUMPI PUSH1 0x4 CALLDATALOAD PUSH1 0x1 PUSH1 0x1 PUSH1 0xE0 SHL SUB NOT DUP2 AND DUP1 DUP3 SUB PUSH2 0x27D JUMPI PUSH2 0x221 SWAP2 PUSH4 0x1D138B83 PUSH1 0xE1 SHL DUP3 EQ SWAP2 DUP3 ISZERO PUSH2 0x235 JUMPI JUMPDEST POP DUP2 ISZERO PUSH2 0x225 JUMPI JUMPDEST POP PUSH1 0x40 MLOAD SWAP1 ISZERO ISZERO DUP2 MSTORE SWAP1 DUP2 SWAP1 PUSH1 0x20 DUP3 ADD SWAP1 JUMP JUMPDEST SUB SWAP1 RETURN JUMPDEST PUSH2 0x22F SWAP2 POP PUSH2 0x1D42 JUMP JUMPDEST CODESIZE PUSH2 0x20E JUMP JUMPDEST SWAP1 SWAP2 POP PUSH4 0xA918FA6B PUSH1 0xE0 SHL DUP2 EQ SWAP1 DUP2 ISZERO PUSH2 0x252 JUMPI JUMPDEST POP SWAP1 CODESIZE PUSH2 0x206 JUMP JUMPDEST PUSH4 0x18A6A9A5 PUSH1 0xE2 SHL DUP2 EQ SWAP2 POP DUP2 ISZERO PUSH2 0x26C JUMPI JUMPDEST POP CODESIZE PUSH2 0x24A JUMP JUMPDEST PUSH4 0x1FFC9A7 PUSH1 0xE0 SHL EQ SWAP1 POP CODESIZE PUSH2 0x265 JUMP JUMPDEST PUSH1 0x0 DUP1 REVERT JUMPDEST PUSH1 0x0 JUMPDEST DUP4 DUP2 LT PUSH2 0x295 JUMPI POP POP PUSH1 0x0 SWAP2 ADD MSTORE JUMP JUMPDEST DUP2 DUP2 ADD MLOAD DUP4 DUP3 ADD MSTORE PUSH1 0x20 ADD PUSH2 0x285 JUMP JUMPDEST SWAP1 PUSH1 0x20 SWAP2 PUSH2 0x2BE DUP2 MLOAD DUP1 SWAP3 DUP2 DUP6 MSTORE DUP6 DUP1 DUP7 ADD SWAP2 ADD PUSH2 0x282 JUMP JUMPDEST PUSH1 0x1F ADD PUSH1 0x1F NOT AND ADD ADD SWAP1 JUMP JUMPDEST SWAP1 PUSH1 0x20 PUSH2 0x2DB SWAP3 DUP2 DUP2 MSTORE ADD SWAP1 PUSH2 0x2A5 JUMP JUMPDEST SWAP1 JUMP JUMPDEST CALLVALUE PUSH2 0x27D JUMPI PUSH1 0x40 CALLDATASIZE PUSH1 0x3 NOT ADD SLT PUSH2 0x27D JUMPI PUSH2 0x221 PUSH2 0x300 PUSH1 0x24 CALLDATALOAD PUSH1 0x4 CALLDATALOAD PUSH2 0x1E7F JUMP JUMPDEST PUSH1 0x40 MLOAD SWAP2 DUP3 SWAP2 PUSH1 0x20 DUP4 MSTORE PUSH1 0x20 DUP4 ADD SWAP1 PUSH2 0x2A5 JUMP JUMPDEST CALLVALUE PUSH2 0x27D JUMPI PUSH1 0x0 CALLDATASIZE PUSH1 0x3 NOT ADD SLT PUSH2 0x27D JUMPI PUSH1 0x20 PUSH1 0x2 SLOAD PUSH1 0x40 MLOAD SWAP1 DUP2 MSTORE RETURN JUMPDEST PUSH4 0x4E487B71 PUSH1 0xE0 SHL PUSH1 0x0 MSTORE PUSH1 0x41 PUSH1 0x4 MSTORE PUSH1 0x24 PUSH1 0x0 REVERT JUMPDEST SWAP1 PUSH1 0x1F DUP1 NOT SWAP2 ADD AND DUP2 ADD SWAP1 DUP2 LT PUSH1 0x1 PUSH1 0x1 PUSH1 0x40 SHL SUB DUP3 GT OR PUSH2 0x369 JUMPI PUSH1 0x40 MSTORE JUMP JUMPDEST PUSH2 0x332 JUMP JUMPDEST PUSH1 0x1 PUSH1 0x1 PUSH1 0x40 SHL SUB DUP2 GT PUSH2 0x369 JUMPI PUSH1 0x5 SHL PUSH1 0x20 ADD SWAP1 JUMP JUMPDEST SWAP1 DUP1 PUSH1 0x1F DUP4 ADD SLT ISZERO PUSH2 0x27D JUMPI DUP2 CALLDATALOAD PUSH2 0x39C DUP2 PUSH2 0x36E JUMP JUMPDEST SWAP3 PUSH2 0x3AA PUSH1 0x40 MLOAD SWAP5 DUP6 PUSH2 0x348 JUMP JUMPDEST DUP2 DUP5 MSTORE PUSH1 0x20 DUP1 DUP6 ADD SWAP3 PUSH1 0x5 SHL DUP3 ADD ADD SWAP3 DUP4 GT PUSH2 0x27D JUMPI PUSH1 0x20 ADD SWAP1 JUMPDEST DUP3 DUP3 LT PUSH2 0x3D2 JUMPI POP POP POP SWAP1 JUMP JUMPDEST DUP2 CALLDATALOAD DUP2 MSTORE PUSH1 0x20 SWAP2 DUP3 ADD SWAP2 ADD PUSH2 0x3C5 JUMP JUMPDEST PUSH1 0x20 DUP2 ADD PUSH1 0x20 DUP3 MSTORE DUP3 MLOAD DUP1 SWAP2 MSTORE PUSH1 0x40 DUP3 ADD SWAP2 PUSH1 0x20 PUSH1 0x40 DUP4 PUSH1 0x5 SHL DUP4 ADD ADD SWAP5 ADD SWAP3 PUSH1 0x0 SWAP2 JUMPDEST DUP4 DUP4 LT PUSH2 0x415 JUMPI POP POP POP POP POP SWAP1 JUMP JUMPDEST SWAP1 SWAP2 SWAP3 SWAP4 SWAP5 PUSH1 0x20 DUP1 PUSH2 0x433 PUSH1 0x1 SWAP4 PUSH1 0x3F NOT DUP7 DUP3 SUB ADD DUP8 MSTORE DUP10 MLOAD PUSH2 0x2A5 JUMP JUMPDEST SWAP8 ADD SWAP4 ADD SWAP4 ADD SWAP2 SWAP4 SWAP3 SWAP1 PUSH2 0x406 JUMP JUMPDEST CALLVALUE PUSH2 0x27D JUMPI PUSH1 0x40 CALLDATASIZE PUSH1 0x3 NOT ADD SLT PUSH2 0x27D JUMPI PUSH1 0x4 CALLDATALOAD PUSH1 0x1 PUSH1 0x1 PUSH1 0x40 SHL SUB DUP2 GT PUSH2 0x27D JUMPI PUSH2 0x472 SWAP1 CALLDATASIZE SWAP1 PUSH1 0x4 ADD PUSH2 0x385 JUMP JUMPDEST PUSH1 0x24 CALLDATALOAD PUSH1 0x1 PUSH1 0x1 PUSH1 0x40 SHL SUB DUP2 GT PUSH2 0x27D JUMPI PUSH2 0x491 SWAP1 CALLDATASIZE SWAP1 PUSH1 0x4 ADD PUSH2 0x385 JUMP JUMPDEST SWAP1 PUSH2 0x49F DUP2 MLOAD DUP4 MLOAD EQ PUSH2 0x1652 JUMP JUMPDEST PUSH2 0x4A9 DUP2 MLOAD PUSH2 0x166A JUMP JUMPDEST SWAP2 PUSH1 0x0 JUMPDEST DUP3 MLOAD DUP2 LT ISZERO PUSH2 0x4F4 JUMPI DUP1 PUSH2 0x4D8 PUSH2 0x4C6 PUSH1 0x1 SWAP4 DUP7 PUSH2 0x16CA JUMP JUMPDEST MLOAD PUSH2 0x4D1 DUP4 DUP7 PUSH2 0x16CA JUMP JUMPDEST MLOAD SWAP1 PUSH2 0x1E7F JUMP JUMPDEST PUSH2 0x4E2 DUP3 DUP8 PUSH2 0x16CA JUMP JUMPDEST MSTORE PUSH2 0x4ED DUP2 DUP7 PUSH2 0x16CA JUMP JUMPDEST POP ADD PUSH2 0x4AD JUMP JUMPDEST PUSH1 0x40 MLOAD DUP1 PUSH2 0x221 DUP7 DUP3 PUSH2 0x3E2 JUMP JUMPDEST CALLVALUE PUSH2 0x27D JUMPI PUSH1 0x20 CALLDATASIZE PUSH1 0x3 NOT ADD SLT PUSH2 0x27D JUMPI PUSH1 0x20 PUSH2 0x520 PUSH1 0x4 CALLDATALOAD PUSH2 0x16FF JUMP JUMPDEST PUSH1 0x40 MLOAD PUSH1 0x1 PUSH1 0x1 PUSH1 0xA0 SHL SUB SWAP1 SWAP2 AND DUP2 MSTORE RETURN JUMPDEST PUSH1 0x4 CALLDATALOAD SWAP1 PUSH1 0x1 PUSH1 0x1 PUSH1 0xA0 SHL SUB DUP3 AND DUP3 SUB PUSH2 0x27D JUMPI JUMP JUMPDEST CALLVALUE PUSH2 0x27D JUMPI PUSH1 0x40 CALLDATASIZE PUSH1 0x3 NOT ADD SLT PUSH2 0x27D JUMPI PUSH1 0x20 PUSH2 0x56F PUSH2 0x566 PUSH2 0x532 JUMP JUMPDEST PUSH1 0x24 CALLDATALOAD SWAP1 PUSH2 0x1F1B JUMP JUMPDEST PUSH1 0x40 MLOAD SWAP1 ISZERO ISZERO DUP2 MSTORE RETURN JUMPDEST PUSH1 0x1 PUSH1 0x1 PUSH1 0x40 SHL SUB DUP2 GT PUSH2 0x369 JUMPI PUSH1 0x1F ADD PUSH1 0x1F NOT AND PUSH1 0x20 ADD SWAP1 JUMP JUMPDEST SWAP3 SWAP2 SWAP3 PUSH2 0x5A0 DUP3 PUSH2 0x579 JUMP JUMPDEST SWAP2 PUSH2 0x5AE PUSH1 0x40 MLOAD SWAP4 DUP5 PUSH2 0x348 JUMP JUMPDEST DUP3 SWAP5 DUP2 DUP5 MSTORE DUP2 DUP4 ADD GT PUSH2 0x27D JUMPI DUP3 DUP2 PUSH1 0x20 SWAP4 DUP5 PUSH1 0x0 SWAP7 ADD CALLDATACOPY ADD ADD MSTORE JUMP JUMPDEST SWAP1 PUSH1 0x40 PUSH1 0x3 NOT DUP4 ADD SLT PUSH2 0x27D JUMPI PUSH1 0x4 CALLDATALOAD PUSH1 0x1 PUSH1 0x1 PUSH1 0xA0 SHL SUB DUP2 AND DUP2 SUB PUSH2 0x27D JUMPI SWAP2 PUSH1 0x24 CALLDATALOAD SWAP1 PUSH1 0x1 PUSH1 0x1 PUSH1 0x40 SHL SUB DUP3 GT PUSH2 0x27D JUMPI DUP1 PUSH1 0x23 DUP4 ADD SLT ISZERO PUSH2 0x27D JUMPI DUP2 PUSH1 0x24 PUSH2 0x2DB SWAP4 PUSH1 0x4 ADD CALLDATALOAD SWAP2 ADD PUSH2 0x594 JUMP JUMPDEST SWAP1 PUSH2 0x62E PUSH1 0x20 SWAP3 DUP3 DUP2 MLOAD SWAP5 DUP6 SWAP3 ADD PUSH2 0x282 JUMP JUMPDEST ADD SWAP1 JUMP JUMPDEST CALLVALUE PUSH2 0x27D JUMPI PUSH1 0x20 PUSH1 0xFF PUSH2 0x670 DUP3 PUSH2 0x648 CALLDATASIZE PUSH2 0x5CB JUMP JUMPDEST SWAP1 PUSH1 0x1 DUP1 PUSH1 0xA0 SHL SUB AND PUSH1 0x0 MSTORE PUSH1 0x7 DUP3 MSTORE PUSH1 0x40 PUSH1 0x0 KECCAK256 DUP3 PUSH1 0x40 MLOAD SWAP5 DUP4 DUP7 DUP1 SWAP6 MLOAD SWAP4 DUP5 SWAP3 ADD PUSH2 0x282 JUMP JUMPDEST DUP3 ADD SWAP1 DUP2 MSTORE SUB ADD SWAP1 KECCAK256 SLOAD AND PUSH1 0x40 MLOAD SWAP1 ISZERO ISZERO DUP2 MSTORE RETURN JUMPDEST PUSH1 0x20 PUSH1 0x40 DUP2 DUP4 ADD SWAP3 DUP3 DUP2 MSTORE DUP5 MLOAD DUP1 SWAP5 MSTORE ADD SWAP3 ADD SWAP1 PUSH1 0x0 JUMPDEST DUP2 DUP2 LT PUSH2 0x6A9 JUMPI POP POP POP SWAP1 JUMP JUMPDEST DUP3 MLOAD PUSH1 0x1 PUSH1 0x1 PUSH1 0xA0 SHL SUB AND DUP5 MSTORE PUSH1 0x20 SWAP4 DUP5 ADD SWAP4 SWAP1 SWAP3 ADD SWAP2 PUSH1 0x1 ADD PUSH2 0x69C JUMP JUMPDEST CALLVALUE PUSH2 0x27D JUMPI PUSH1 0x20 CALLDATASIZE PUSH1 0x3 NOT ADD SLT PUSH2 0x27D JUMPI PUSH1 0x4 CALLDATALOAD PUSH1 0x0 DUP2 DUP2 MSTORE PUSH1 0x3 PUSH1 0x20 MSTORE PUSH1 0x40 SWAP1 KECCAK256 SLOAD PUSH2 0x701 SWAP1 DUP3 SWAP1 PUSH1 0x1 PUSH1 0x1 PUSH1 0xA0 SHL SUB AND ISZERO ISZERO PUSH2 0x16E3 JUMP JUMPDEST PUSH1 0x0 MSTORE PUSH1 0x5 PUSH1 0x20 MSTORE PUSH1 0x40 PUSH1 0x0 KECCAK256 PUSH1 0x40 MLOAD SWAP1 DUP2 PUSH1 0x20 DUP3 SLOAD SWAP2 DUP3 DUP2 MSTORE ADD SWAP2 PUSH1 0x0 MSTORE PUSH1 0x20 PUSH1 0x0 KECCAK256 SWAP1 PUSH1 0x0 JUMPDEST DUP2 DUP2 LT PUSH2 0x74C JUMPI PUSH2 0x221 DUP6 PUSH2 0x740 DUP2 DUP8 SUB DUP3 PUSH2 0x348 JUMP JUMPDEST PUSH1 0x40 MLOAD SWAP2 DUP3 SWAP2 DUP3 PUSH2 0x685 JUMP JUMPDEST DUP3 SLOAD DUP5 MSTORE PUSH1 0x20 SWAP1 SWAP4 ADD SWAP3 PUSH1 0x1 SWAP3 DUP4 ADD SWAP3 ADD PUSH2 0x729 JUMP JUMPDEST PUSH1 0x44 CALLDATALOAD SWAP1 DUP2 ISZERO ISZERO DUP3 SUB PUSH2 0x27D JUMPI JUMP JUMPDEST SWAP1 DUP1 PUSH1 0x1F DUP4 ADD SLT ISZERO PUSH2 0x27D JUMPI DUP2 PUSH1 0x20 PUSH2 0x2DB SWAP4 CALLDATALOAD SWAP2 ADD PUSH2 0x594 JUMP JUMPDEST CALLVALUE PUSH2 0x27D JUMPI PUSH1 0xA0 CALLDATASIZE PUSH1 0x3 NOT ADD SLT PUSH2 0x27D JUMPI PUSH2 0x7A5 PUSH2 0x532 JUMP JUMPDEST PUSH1 0x24 CALLDATALOAD SWAP1 PUSH1 0x1 PUSH1 0x1 PUSH1 0xA0 SHL SUB DUP3 AND DUP3 SUB PUSH2 0x27D JUMPI PUSH1 0x64 CALLDATALOAD PUSH1 0x44 CALLDATALOAD DUP2 ISZERO ISZERO DUP3 SUB PUSH2 0x27D JUMPI PUSH1 0x84 CALLDATALOAD SWAP4 PUSH1 0x1 PUSH1 0x1 PUSH1 0x40 SHL SUB DUP6 GT PUSH2 0x27D JUMPI PUSH2 0x7EB PUSH2 0x7F1 SWAP6 CALLDATASIZE SWAP1 PUSH1 0x4 ADD PUSH2 0x771 JUMP JUMPDEST SWAP4 PUSH2 0x1724 JUMP JUMPDEST STOP JUMPDEST CALLVALUE PUSH2 0x27D JUMPI PUSH1 0x20 CALLDATASIZE PUSH1 0x3 NOT ADD SLT PUSH2 0x27D JUMPI PUSH2 0x221 PUSH2 0x300 PUSH1 0x4 CALLDATALOAD PUSH2 0x1899 JUMP JUMPDEST CALLVALUE PUSH2 0x27D JUMPI PUSH1 0x20 CALLDATASIZE PUSH1 0x3 NOT ADD SLT PUSH2 0x27D JUMPI PUSH1 0x4 CALLDATALOAD PUSH1 0x1 PUSH1 0x1 PUSH1 0x40 SHL SUB DUP2 GT PUSH2 0x27D JUMPI CALLDATASIZE PUSH1 0x23 DUP3 ADD SLT ISZERO PUSH2 0x27D JUMPI DUP1 PUSH1 0x4 ADD CALLDATALOAD SWAP1 PUSH1 0x1 PUSH1 0x1 PUSH1 0x40 SHL SUB DUP3 GT PUSH2 0x27D JUMPI CALLDATASIZE PUSH1 0x24 DUP4 PUSH1 0x5 SHL DUP4 ADD ADD GT PUSH2 0x27D JUMPI PUSH2 0x221 SWAP2 PUSH1 0x24 PUSH2 0x872 SWAP3 ADD PUSH2 0x199A JUMP JUMPDEST PUSH1 0x40 MLOAD SWAP2 DUP3 SWAP2 DUP3 PUSH2 0x3E2 JUMP JUMPDEST CALLVALUE PUSH2 0x27D JUMPI PUSH1 0x20 CALLDATASIZE PUSH1 0x3 NOT ADD SLT PUSH2 0x27D JUMPI PUSH1 0x1 PUSH1 0x1 PUSH1 0xA0 SHL SUB PUSH2 0x89F PUSH2 0x532 JUMP JUMPDEST AND PUSH1 0x0 MSTORE PUSH1 0x4 PUSH1 0x20 MSTORE PUSH1 0x20 PUSH1 0x40 PUSH1 0x0 KECCAK256 SLOAD PUSH1 0x40 MLOAD SWAP1 DUP2 MSTORE RETURN JUMPDEST SWAP2 DUP2 PUSH1 0x1F DUP5 ADD SLT ISZERO PUSH2 0x27D JUMPI DUP3 CALLDATALOAD SWAP2 PUSH1 0x1 PUSH1 0x1 PUSH1 0x40 SHL SUB DUP4 GT PUSH2 0x27D JUMPI PUSH1 0x20 DUP4 DUP2 DUP7 ADD SWAP6 ADD ADD GT PUSH2 0x27D JUMPI JUMP JUMPDEST CALLVALUE PUSH2 0x27D JUMPI PUSH1 0xA0 CALLDATASIZE PUSH1 0x3 NOT ADD SLT PUSH2 0x27D JUMPI PUSH2 0x8FE PUSH2 0x532 JUMP JUMPDEST PUSH1 0x24 CALLDATALOAD PUSH1 0x1 PUSH1 0x1 PUSH1 0x40 SHL SUB DUP2 GT PUSH2 0x27D JUMPI PUSH2 0x91D SWAP1 CALLDATASIZE SWAP1 PUSH1 0x4 ADD PUSH2 0x8B8 JUMP JUMPDEST SWAP2 PUSH1 0x44 CALLDATALOAD PUSH1 0x1 PUSH1 0x1 PUSH1 0x40 SHL SUB DUP2 GT PUSH2 0x27D JUMPI PUSH2 0x93D SWAP1 CALLDATASIZE SWAP1 PUSH1 0x4 ADD PUSH2 0x8B8 JUMP JUMPDEST PUSH1 0x0 SLOAD PUSH1 0x64 CALLDATALOAD SWAP3 PUSH1 0x84 CALLDATALOAD SWAP2 PUSH1 0x1 PUSH1 0x1 PUSH1 0xA0 SHL SUB AND CALLER SUB PUSH2 0xD2C JUMPI PUSH1 0x1 PUSH1 0x1 PUSH1 0xA0 SHL SUB DUP6 AND PUSH1 0x0 SWAP1 DUP2 MSTORE PUSH1 0x7 PUSH1 0x20 MSTORE PUSH1 0x40 SWAP1 KECCAK256 PUSH2 0x985 SWAP1 PUSH2 0x97E SWAP1 DUP10 DUP10 PUSH2 0x1A6E JUMP JUMPDEST SLOAD PUSH1 0xFF AND SWAP1 JUMP JUMPDEST PUSH2 0xD0B JUMPI PUSH1 0x8 SLOAD PUSH2 0x995 SWAP1 PUSH2 0x1AE0 JUMP JUMPDEST PUSH1 0x8 SSTORE PUSH1 0x8 SLOAD PUSH1 0x1 PUSH1 0x1 PUSH1 0xA0 SHL SUB DUP7 AND PUSH1 0x0 SWAP1 DUP2 MSTORE PUSH1 0x7 PUSH1 0x20 MSTORE PUSH1 0x40 SWAP1 KECCAK256 SWAP1 SWAP5 SWAP1 PUSH2 0x9C1 SWAP1 DUP10 DUP10 PUSH2 0x1A6E JUMP JUMPDEST DUP1 SLOAD PUSH1 0xFF NOT AND PUSH1 0x1 OR SWAP1 SSTORE PUSH1 0x1 PUSH1 0x1 PUSH1 0xA0 SHL SUB DUP7 AND PUSH1 0x0 SWAP1 DUP2 MSTORE PUSH1 0x6 PUSH1 0x20 MSTORE PUSH1 0x40 SWAP1 KECCAK256 DUP6 SWAP1 PUSH2 0x9F1 SWAP1 DUP11 DUP11 PUSH2 0x1A6E JUMP JUMPDEST SSTORE PUSH2 0x9FA PUSH2 0x1955 JUMP JUMPDEST PUSH2 0xA05 SWAP1 DUP7 DUP9 PUSH2 0x203B JUMP JUMPDEST PUSH2 0xA0E SWAP1 PUSH2 0x21CC JUMP JUMPDEST SWAP2 PUSH2 0xA18 SWAP1 PUSH2 0x21CC JUMP JUMPDEST SWAP3 PUSH1 0x40 MLOAD SWAP4 DUP5 SWAP4 PUSH1 0x20 DUP6 ADD PUSH2 0xAD8 SWAP1 PUSH1 0x8C SWAP1 PUSH32 0x7B224C5350344D65746164617461223A7B226E616D65223A2242697272613230 DUP2 MSTORE PUSH32 0x56656E74692057656C636F6D65222C226465736372697074696F6E223A223120 PUSH1 0x20 DUP3 ADD MSTORE PUSH32 0x6269727261206F6D616767696F206F676E6920352061637175697374692E204F PUSH1 0x40 DUP3 ADD MSTORE PUSH32 0x7264696E6120636F6E2069206461746920636F6E206375692074692073656920 PUSH1 0x60 DUP3 ADD MSTORE PUSH12 0x3932B3B4B9BA3930BA379711 PUSH1 0xA1 SHL PUSH1 0x80 DUP3 ADD MSTORE ADD SWAP1 JUMP JUMPDEST PUSH21 0x161134B6B0B3B2B9911D2DADBD913BB4B23A34111D PUSH1 0x59 SHL DUP2 MSTORE PUSH1 0x15 ADD PUSH2 0xAFF SWAP2 PUSH2 0x61B JUMP JUMPDEST PUSH10 0x16113432B4B3B43A111D PUSH1 0xB1 SHL DUP2 MSTORE PUSH1 0xA ADD PUSH2 0xB1B SWAP2 PUSH2 0x61B JUMP JUMPDEST PUSH8 0x16113AB936111D11 PUSH1 0xC1 SHL DUP2 MSTORE PUSH1 0x8 ADD SWAP1 PUSH2 0xB36 SWAP3 PUSH2 0x1947 JUMP JUMPDEST PUSH32 0x222C22766572696669636174696F6E223A7B226D6574686F64223A226B656363 DUP2 MSTORE PUSH32 0x616B32353628627974657329222C2264617461223A223078227D7D5D5D000000 PUSH1 0x20 DUP3 ADD MSTORE PUSH1 0x3D ADD PUSH15 0x2C2261747472696275746573223A5B PUSH1 0x88 SHL DUP2 MSTORE PUSH1 0xF ADD PUSH32 0x7B226B6579223A226272616E64222C2276616C7565223A224269727261323056 DUP2 MSTORE PUSH7 0x195B9D1A489F4B PUSH1 0xCA SHL PUSH1 0x20 DUP3 ADD MSTORE PUSH1 0x27 ADD PUSH32 0x7B226B6579223A2262656E65666974222C2276616C7565223A22312062697272 DUP2 MSTORE PUSH32 0x61206F6D616767696F206F676E692035206163717569737469227D2C00000000 PUSH1 0x20 DUP3 ADD MSTORE PUSH1 0x3C ADD PUSH32 0x7B226B6579223A226576656E746F222C2276616C7565223A2200000000000000 DUP2 MSTORE PUSH1 0x19 ADD PUSH2 0xC4D SWAP1 DUP8 DUP8 PUSH2 0x1947 JUMP JUMPDEST PUSH2 0x227D PUSH1 0xF0 SHL DUP2 MSTORE PUSH1 0x2 ADD PUSH3 0x5D7D7D PUSH1 0xE8 SHL DUP2 MSTORE PUSH1 0x3 ADD SUB PUSH1 0x1F NOT DUP2 ADD DUP3 MSTORE PUSH2 0xC76 SWAP1 DUP3 PUSH2 0x348 JUMP JUMPDEST PUSH1 0x40 MLOAD PUSH1 0x20 DUP2 ADD SWAP1 DUP1 PUSH2 0xCA7 DUP6 DUP5 PUSH1 0x31 SWAP2 PUSH17 0x2629A81C26B2BA30B230BA30A529A7A71D PUSH1 0x79 SHL DUP3 MSTORE PUSH1 0x11 DUP3 ADD MSTORE ADD SWAP1 JUMP JUMPDEST SUB PUSH1 0x1F NOT DUP2 ADD DUP3 MSTORE PUSH2 0xCB9 SWAP1 DUP3 PUSH2 0x348 JUMP JUMPDEST MLOAD SWAP1 KECCAK256 SWAP1 PUSH2 0xCC6 SWAP2 PUSH2 0x2280 JUMP JUMPDEST PUSH1 0x40 MLOAD PUSH1 0x1 PUSH1 0x1 PUSH1 0xA0 SHL SUB SWAP1 SWAP3 AND SWAP4 SWAP2 SWAP3 DUP4 SWAP3 PUSH2 0xCE6 SWAP3 TIMESTAMP SWAP3 SWAP1 DUP6 PUSH2 0x1AF4 JUMP JUMPDEST SUB PUSH31 0xEC5B82228E8F7599D26DCC6F0FD04B059033D17FC8D39C7314E2B7228C3F6B SWAP2 LOG2 STOP JUMPDEST PUSH1 0x40 MLOAD PUSH4 0x93FC05F9 PUSH1 0xE0 SHL DUP2 MSTORE DUP1 PUSH2 0xD28 DUP10 DUP10 DUP10 PUSH1 0x4 DUP6 ADD PUSH2 0x1AA8 JUMP JUMPDEST SUB SWAP1 REVERT JUMPDEST PUSH4 0x4A0BFEC1 PUSH1 0xE0 SHL PUSH1 0x0 MSTORE CALLER PUSH1 0x4 MSTORE PUSH1 0x24 PUSH1 0x0 REVERT JUMPDEST CALLVALUE PUSH2 0x27D JUMPI PUSH1 0x0 CALLDATASIZE PUSH1 0x3 NOT ADD SLT PUSH2 0x27D JUMPI PUSH2 0xD5A PUSH2 0x23AE JUMP JUMPDEST PUSH1 0x0 DUP1 SLOAD PUSH1 0x1 PUSH1 0x1 PUSH1 0xA0 SHL SUB NOT DUP2 AND DUP3 SSTORE PUSH1 0x1 PUSH1 0x1 PUSH1 0xA0 SHL SUB AND PUSH32 0x8BE0079C531659141344CD1FD0A4F28419497F9722A3DAAFE3B4186F6B6457E0 DUP3 DUP1 LOG3 STOP JUMPDEST CALLVALUE PUSH2 0x27D JUMPI PUSH1 0x20 PUSH2 0xDD6 DUP2 PUSH2 0xDAE CALLDATASIZE PUSH2 0x5CB JUMP JUMPDEST SWAP1 PUSH1 0x1 DUP1 PUSH1 0xA0 SHL SUB AND PUSH1 0x0 MSTORE PUSH1 0x6 DUP3 MSTORE PUSH1 0x40 PUSH1 0x0 KECCAK256 DUP3 PUSH1 0x40 MLOAD SWAP5 DUP4 DUP7 DUP1 SWAP6 MLOAD SWAP4 DUP5 SWAP3 ADD PUSH2 0x282 JUMP JUMPDEST DUP3 ADD SWAP1 DUP2 MSTORE SUB ADD SWAP1 KECCAK256 SLOAD PUSH1 0x40 MLOAD SWAP1 DUP2 MSTORE RETURN JUMPDEST SWAP1 DUP1 PUSH1 0x1F DUP4 ADD SLT ISZERO PUSH2 0x27D JUMPI DUP2 CALLDATALOAD SWAP1 PUSH2 0xE00 DUP3 PUSH2 0x36E JUMP JUMPDEST SWAP3 PUSH2 0xE0E PUSH1 0x40 MLOAD SWAP5 DUP6 PUSH2 0x348 JUMP JUMPDEST DUP3 DUP5 MSTORE PUSH1 0x20 DUP1 DUP6 ADD SWAP4 PUSH1 0x5 SHL DUP3 ADD ADD SWAP2 DUP3 GT PUSH2 0x27D JUMPI PUSH1 0x20 ADD SWAP2 JUMPDEST DUP2 DUP4 LT PUSH2 0xE36 JUMPI POP POP POP SWAP1 JUMP JUMPDEST DUP3 CALLDATALOAD PUSH1 0x1 PUSH1 0x1 PUSH1 0xA0 SHL SUB DUP2 AND DUP2 SUB PUSH2 0x27D JUMPI DUP2 MSTORE PUSH1 0x20 SWAP3 DUP4 ADD SWAP3 ADD PUSH2 0xE29 JUMP JUMPDEST SWAP1 DUP1 PUSH1 0x1F DUP4 ADD SLT ISZERO PUSH2 0x27D JUMPI DUP2 CALLDATALOAD SWAP1 PUSH2 0xE6E DUP3 PUSH2 0x36E JUMP JUMPDEST SWAP3 PUSH2 0xE7C PUSH1 0x40 MLOAD SWAP5 DUP6 PUSH2 0x348 JUMP JUMPDEST DUP3 DUP5 MSTORE PUSH1 0x20 DUP1 DUP6 ADD SWAP4 PUSH1 0x5 SHL DUP3 ADD ADD SWAP2 DUP3 GT PUSH2 0x27D JUMPI PUSH1 0x20 ADD SWAP2 JUMPDEST DUP2 DUP4 LT PUSH2 0xEA4 JUMPI POP POP POP SWAP1 JUMP JUMPDEST DUP3 CALLDATALOAD DUP1 ISZERO ISZERO DUP2 SUB PUSH2 0x27D JUMPI DUP2 MSTORE PUSH1 0x20 SWAP3 DUP4 ADD SWAP3 ADD PUSH2 0xE97 JUMP JUMPDEST SWAP1 DUP1 PUSH1 0x1F DUP4 ADD SLT ISZERO PUSH2 0x27D JUMPI DUP2 CALLDATALOAD PUSH2 0xED4 DUP2 PUSH2 0x36E JUMP JUMPDEST SWAP3 PUSH2 0xEE2 PUSH1 0x40 MLOAD SWAP5 DUP6 PUSH2 0x348 JUMP JUMPDEST DUP2 DUP5 MSTORE PUSH1 0x20 DUP1 DUP6 ADD SWAP3 PUSH1 0x5 SHL DUP3 ADD ADD SWAP2 DUP4 DUP4 GT PUSH2 0x27D JUMPI PUSH1 0x20 DUP3 ADD SWAP1 JUMPDEST DUP4 DUP3 LT PUSH2 0xF0E JUMPI POP POP POP POP POP SWAP1 JUMP JUMPDEST DUP2 CALLDATALOAD PUSH1 0x1 PUSH1 0x1 PUSH1 0x40 SHL SUB DUP2 GT PUSH2 0x27D JUMPI PUSH1 0x20 SWAP2 PUSH2 0xF30 DUP8 DUP5 DUP1 SWAP5 DUP9 ADD ADD PUSH2 0x771 JUMP JUMPDEST DUP2 MSTORE ADD SWAP2 ADD SWAP1 PUSH2 0xEFF JUMP JUMPDEST CALLVALUE PUSH2 0x27D JUMPI PUSH1 0xA0 CALLDATASIZE PUSH1 0x3 NOT ADD SLT PUSH2 0x27D JUMPI PUSH1 0x4 CALLDATALOAD PUSH1 0x1 PUSH1 0x1 PUSH1 0x40 SHL SUB DUP2 GT PUSH2 0x27D JUMPI PUSH2 0xF6B SWAP1 CALLDATASIZE SWAP1 PUSH1 0x4 ADD PUSH2 0xDE8 JUMP JUMPDEST PUSH1 0x24 CALLDATALOAD PUSH1 0x1 PUSH1 0x1 PUSH1 0x40 SHL SUB DUP2 GT PUSH2 0x27D JUMPI PUSH2 0xF8A SWAP1 CALLDATASIZE SWAP1 PUSH1 0x4 ADD PUSH2 0xDE8 JUMP JUMPDEST SWAP1 PUSH1 0x44 CALLDATALOAD PUSH1 0x1 PUSH1 0x1 PUSH1 0x40 SHL SUB DUP2 GT PUSH2 0x27D JUMPI PUSH2 0xFAA SWAP1 CALLDATASIZE SWAP1 PUSH1 0x4 ADD PUSH2 0x385 JUMP JUMPDEST PUSH1 0x64 CALLDATALOAD PUSH1 0x1 PUSH1 0x1 PUSH1 0x40 SHL SUB DUP2 GT PUSH2 0x27D JUMPI PUSH2 0xFC9 SWAP1 CALLDATASIZE SWAP1 PUSH1 0x4 ADD PUSH2 0xE56 JUMP JUMPDEST SWAP1 PUSH1 0x84 CALLDATALOAD SWAP4 PUSH1 0x1 PUSH1 0x1 PUSH1 0x40 SHL SUB DUP6 GT PUSH2 0x27D JUMPI PUSH2 0xFED PUSH2 0x7F1 SWAP6 CALLDATASIZE SWAP1 PUSH1 0x4 ADD PUSH2 0xEBD JUMP JUMPDEST SWAP4 PUSH2 0x1B17 JUMP JUMPDEST PUSH1 0x40 CALLDATASIZE PUSH1 0x3 NOT ADD SLT PUSH2 0x27D JUMPI PUSH1 0x4 CALLDATALOAD PUSH1 0x24 CALLDATALOAD PUSH1 0x1 PUSH1 0x1 PUSH1 0x40 SHL SUB DUP2 GT PUSH2 0x27D JUMPI PUSH2 0x1021 SWAP1 CALLDATASIZE SWAP1 PUSH1 0x4 ADD PUSH2 0x771 JUMP JUMPDEST PUSH2 0x1029 PUSH2 0x23AE JUMP JUMPDEST CALLVALUE PUSH2 0x1037 JUMPI PUSH2 0x7F1 SWAP2 PUSH2 0x2280 JUMP JUMPDEST PUSH4 0xF36BA737 PUSH1 0xE0 SHL PUSH1 0x0 MSTORE PUSH1 0x4 PUSH1 0x0 REVERT JUMPDEST CALLVALUE PUSH2 0x27D JUMPI PUSH1 0x60 CALLDATASIZE PUSH1 0x3 NOT ADD SLT PUSH2 0x27D JUMPI PUSH2 0x1061 PUSH2 0x532 JUMP JUMPDEST PUSH1 0x24 CALLDATALOAD PUSH1 0x44 CALLDATALOAD SWAP2 PUSH1 0x1 PUSH1 0x1 PUSH1 0x40 SHL SUB DUP4 GT PUSH2 0x27D JUMPI PUSH2 0x1145 PUSH2 0x108A PUSH2 0x7F1 SWAP5 CALLDATASIZE SWAP1 PUSH1 0x4 ADD PUSH2 0x771 JUMP JUMPDEST SWAP3 DUP1 PUSH2 0x1095 DUP2 PUSH2 0x16FF JUMP JUMPDEST PUSH1 0x1 PUSH1 0x1 PUSH1 0xA0 SHL SUB DUP2 AND SWAP1 PUSH2 0x10B0 SWAP1 CALLER SWAP1 DUP5 SWAP1 DUP3 DUP6 EQ PUSH2 0x1BE6 JUMP JUMPDEST PUSH1 0x1 PUSH1 0x1 PUSH1 0xA0 SHL SUB DUP6 AND PUSH2 0x10C5 DUP2 ISZERO ISZERO PUSH2 0x1C1D JUMP JUMPDEST PUSH2 0x10D1 DUP3 DUP3 EQ ISZERO PUSH2 0x1C35 JUMP JUMPDEST DUP3 PUSH1 0x0 MSTORE PUSH1 0x5 PUSH1 0x20 MSTORE PUSH2 0x10F2 DUP4 DUP8 PUSH2 0x10ED DUP5 PUSH1 0x40 PUSH1 0x0 KECCAK256 PUSH2 0x2B00 JUMP JUMPDEST PUSH2 0x1C4D JUMP JUMPDEST PUSH32 0x1B1B58AA2EC0CEC2228B2D37124556D41F5A1F7B12F089171F896CC236671215 PUSH1 0x40 MLOAD DUP1 PUSH2 0x1121 DUP11 DUP3 PUSH2 0x2CA JUMP JUMPDEST SUB SWAP1 LOG4 PUSH2 0x1137 PUSH1 0x40 MLOAD SWAP5 DUP6 SWAP3 CALLER PUSH1 0x20 DUP6 ADD PUSH2 0x1C75 JUMP JUMPDEST SUB PUSH1 0x1F NOT DUP2 ADD DUP5 MSTORE DUP4 PUSH2 0x348 JUMP JUMPDEST PUSH2 0x2B6C JUMP JUMPDEST CALLVALUE PUSH2 0x27D JUMPI PUSH1 0x0 CALLDATASIZE PUSH1 0x3 NOT ADD SLT PUSH2 0x27D JUMPI PUSH1 0x0 SLOAD PUSH1 0x40 MLOAD PUSH1 0x1 PUSH1 0x1 PUSH1 0xA0 SHL SUB SWAP1 SWAP2 AND DUP2 MSTORE PUSH1 0x20 SWAP1 RETURN JUMPDEST PUSH1 0x40 CALLDATASIZE PUSH1 0x3 NOT ADD SLT PUSH2 0x27D JUMPI PUSH1 0x4 CALLDATALOAD PUSH1 0x1 PUSH1 0x1 PUSH1 0x40 SHL SUB DUP2 GT PUSH2 0x27D JUMPI PUSH2 0x119E SWAP1 CALLDATASIZE SWAP1 PUSH1 0x4 ADD PUSH2 0x385 JUMP JUMPDEST PUSH1 0x24 CALLDATALOAD PUSH1 0x1 PUSH1 0x1 PUSH1 0x40 SHL SUB DUP2 GT PUSH2 0x27D JUMPI PUSH2 0x11BD SWAP1 CALLDATASIZE SWAP1 PUSH1 0x4 ADD PUSH2 0xEBD JUMP JUMPDEST SWAP1 PUSH2 0x11C6 PUSH2 0x23AE JUMP JUMPDEST CALLVALUE PUSH2 0x1037 JUMPI DUP1 MLOAD DUP3 MLOAD SUB PUSH2 0x1220 JUMPI DUP1 MLOAD ISZERO PUSH2 0x120F JUMPI PUSH1 0x0 JUMPDEST DUP2 MLOAD DUP2 LT ISZERO PUSH2 0x7F1 JUMPI DUP1 PUSH2 0x1209 PUSH2 0x11F7 PUSH1 0x1 SWAP4 DUP6 PUSH2 0x16CA JUMP JUMPDEST MLOAD PUSH2 0x1202 DUP4 DUP8 PUSH2 0x16CA JUMP JUMPDEST MLOAD SWAP1 PUSH2 0x2280 JUMP JUMPDEST ADD PUSH2 0x11DE JUMP JUMPDEST PUSH4 0x97DA5F95 PUSH1 0xE0 SHL PUSH1 0x0 MSTORE PUSH1 0x4 PUSH1 0x0 REVERT JUMPDEST PUSH4 0x3BCC8979 PUSH1 0xE0 SHL PUSH1 0x0 MSTORE PUSH1 0x4 PUSH1 0x0 REVERT JUMPDEST PUSH1 0x20 PUSH1 0x40 DUP2 DUP4 ADD SWAP3 DUP3 DUP2 MSTORE DUP5 MLOAD DUP1 SWAP5 MSTORE ADD SWAP3 ADD SWAP1 PUSH1 0x0 JUMPDEST DUP2 DUP2 LT PUSH2 0x1255 JUMPI POP POP POP SWAP1 JUMP JUMPDEST DUP3 MLOAD DUP5 MSTORE PUSH1 0x20 SWAP4 DUP5 ADD SWAP4 SWAP1 SWAP3 ADD SWAP2 PUSH1 0x1 ADD PUSH2 0x1248 JUMP JUMPDEST CALLVALUE PUSH2 0x27D JUMPI PUSH1 0x20 CALLDATASIZE PUSH1 0x3 NOT ADD SLT PUSH2 0x27D JUMPI PUSH1 0x1 PUSH1 0x1 PUSH1 0xA0 SHL SUB PUSH2 0x128C PUSH2 0x532 JUMP JUMPDEST AND PUSH1 0x0 MSTORE PUSH1 0x4 PUSH1 0x20 MSTORE PUSH1 0x40 PUSH1 0x0 KECCAK256 PUSH1 0x40 MLOAD SWAP1 DUP2 PUSH1 0x20 DUP3 SLOAD SWAP2 DUP3 DUP2 MSTORE ADD SWAP2 PUSH1 0x0 MSTORE PUSH1 0x20 PUSH1 0x0 KECCAK256 SWAP1 PUSH1 0x0 JUMPDEST DUP2 DUP2 LT PUSH2 0x12D8 JUMPI PUSH2 0x221 DUP6 PUSH2 0x12CC DUP2 DUP8 SUB DUP3 PUSH2 0x348 JUMP JUMPDEST PUSH1 0x40 MLOAD SWAP2 DUP3 SWAP2 DUP3 PUSH2 0x1231 JUMP JUMPDEST DUP3 SLOAD DUP5 MSTORE PUSH1 0x20 SWAP1 SWAP4 ADD SWAP3 PUSH1 0x1 SWAP3 DUP4 ADD SWAP3 ADD PUSH2 0x12B5 JUMP JUMPDEST CALLVALUE PUSH2 0x27D JUMPI PUSH1 0x60 CALLDATASIZE PUSH1 0x3 NOT ADD SLT PUSH2 0x27D JUMPI PUSH1 0x4 CALLDATALOAD PUSH1 0x1 PUSH1 0x1 PUSH1 0x40 SHL SUB DUP2 GT PUSH2 0x27D JUMPI PUSH2 0x131E SWAP1 CALLDATASIZE SWAP1 PUSH1 0x4 ADD PUSH2 0x385 JUMP JUMPDEST PUSH1 0x24 CALLDATALOAD PUSH1 0x1 PUSH1 0x1 PUSH1 0x40 SHL SUB DUP2 GT PUSH2 0x27D JUMPI PUSH2 0x133D SWAP1 CALLDATASIZE SWAP1 PUSH1 0x4 ADD PUSH2 0x385 JUMP JUMPDEST PUSH1 0x44 CALLDATALOAD PUSH1 0x1 PUSH1 0x1 PUSH1 0x40 SHL SUB DUP2 GT PUSH2 0x27D JUMPI PUSH2 0x135C SWAP1 CALLDATASIZE SWAP1 PUSH1 0x4 ADD PUSH2 0xEBD JUMP JUMPDEST SWAP2 PUSH2 0x1365 PUSH2 0x23AE JUMP JUMPDEST PUSH2 0x137C DUP2 MLOAD DUP4 MLOAD DUP1 SWAP2 EQ SWAP1 DUP2 PUSH2 0x13D3 JUMPI JUMPDEST POP PUSH2 0x1652 JUMP JUMPDEST DUP1 MLOAD ISZERO PUSH2 0x13C2 JUMPI PUSH1 0x0 JUMPDEST DUP2 MLOAD DUP2 LT ISZERO PUSH2 0x7F1 JUMPI DUP1 PUSH2 0x13BC PUSH2 0x139F PUSH1 0x1 SWAP4 DUP6 PUSH2 0x16CA JUMP JUMPDEST MLOAD PUSH2 0x13AA DUP4 DUP8 PUSH2 0x16CA JUMP JUMPDEST MLOAD PUSH2 0x13B5 DUP5 DUP10 PUSH2 0x16CA JUMP JUMPDEST MLOAD SWAP2 PUSH2 0x2543 JUMP JUMPDEST ADD PUSH2 0x1386 JUMP JUMPDEST PUSH4 0x80C98305 PUSH1 0xE0 SHL PUSH1 0x0 MSTORE PUSH1 0x4 PUSH1 0x0 REVERT JUMPDEST SWAP1 POP DUP5 MLOAD EQ CODESIZE PUSH2 0x1376 JUMP JUMPDEST CALLVALUE PUSH2 0x27D JUMPI PUSH1 0x60 CALLDATASIZE PUSH1 0x3 NOT ADD SLT PUSH2 0x27D JUMPI PUSH1 0x44 CALLDATALOAD PUSH1 0x4 CALLDATALOAD PUSH1 0x24 CALLDATALOAD PUSH1 0x1 PUSH1 0x1 PUSH1 0x40 SHL SUB DUP4 GT PUSH2 0x27D JUMPI PUSH2 0x1417 PUSH2 0x7F1 SWAP4 CALLDATASIZE SWAP1 PUSH1 0x4 ADD PUSH2 0x771 JUMP JUMPDEST SWAP2 PUSH2 0x1420 PUSH2 0x23AE JUMP JUMPDEST PUSH2 0x2543 JUMP JUMPDEST CALLVALUE PUSH2 0x27D JUMPI PUSH1 0x80 CALLDATASIZE PUSH1 0x3 NOT ADD SLT PUSH2 0x27D JUMPI PUSH2 0x143E PUSH2 0x532 JUMP JUMPDEST PUSH1 0x24 CALLDATALOAD PUSH2 0x1449 PUSH2 0x762 JUMP JUMPDEST SWAP2 PUSH1 0x64 CALLDATALOAD PUSH1 0x1 PUSH1 0x1 PUSH1 0x40 SHL SUB DUP2 GT PUSH2 0x27D JUMPI PUSH2 0x1469 SWAP1 CALLDATASIZE SWAP1 PUSH1 0x4 ADD PUSH2 0x771 JUMP JUMPDEST PUSH2 0x1472 DUP4 PUSH2 0x16FF JUMP JUMPDEST SWAP4 PUSH1 0x1 PUSH1 0x1 PUSH1 0xA0 SHL SUB DUP6 AND CALLER DUP2 SWAP1 SUB PUSH2 0x14D3 JUMPI JUMPDEST PUSH2 0x14A6 SWAP1 PUSH1 0x1 PUSH1 0x1 PUSH1 0xA0 SHL SUB DUP6 AND PUSH2 0x149F DUP2 ISZERO ISZERO PUSH2 0x1C1D JUMP JUMPDEST EQ ISZERO PUSH2 0x1C35 JUMP JUMPDEST PUSH2 0x14B3 DUP3 DUP3 DUP7 DUP9 DUP8 PUSH2 0x2685 JUMP JUMPDEST PUSH2 0x14B9 JUMPI STOP JUMPDEST PUSH2 0x7F1 SWAP4 PUSH2 0x1137 PUSH2 0x1145 SWAP3 PUSH1 0x40 MLOAD SWAP6 DUP7 SWAP4 PUSH1 0x20 DUP6 ADD PUSH2 0x1CA0 JUMP JUMPDEST CALLER PUSH1 0x1 PUSH1 0x1 PUSH1 0xA0 SHL SUB DUP6 AND EQ PUSH2 0x1486 JUMPI DUP5 SWAP1 PUSH4 0x760B5ACD PUSH1 0xE0 SHL PUSH1 0x0 MSTORE CALLER PUSH1 0x4 MSTORE PUSH1 0x24 MSTORE PUSH1 0x44 MSTORE PUSH1 0x64 PUSH1 0x0 REVERT JUMPDEST CALLVALUE PUSH2 0x27D JUMPI PUSH1 0x20 CALLDATASIZE PUSH1 0x3 NOT ADD SLT PUSH2 0x27D JUMPI PUSH1 0x4 CALLDATALOAD PUSH1 0x1 PUSH1 0x1 PUSH1 0x40 SHL SUB DUP2 GT PUSH2 0x27D JUMPI PUSH2 0x1530 SWAP1 CALLDATASIZE SWAP1 PUSH1 0x4 ADD PUSH2 0x385 JUMP JUMPDEST PUSH2 0x153A DUP2 MLOAD PUSH2 0x166A JUMP JUMPDEST SWAP1 PUSH1 0x0 JUMPDEST DUP2 MLOAD DUP2 LT ISZERO PUSH2 0x1579 JUMPI DUP1 PUSH2 0x155D PUSH2 0x1557 PUSH1 0x1 SWAP4 DUP6 PUSH2 0x16CA JUMP JUMPDEST MLOAD PUSH2 0x1899 JUMP JUMPDEST PUSH2 0x1567 DUP3 DUP7 PUSH2 0x16CA JUMP JUMPDEST MSTORE PUSH2 0x1572 DUP2 DUP6 PUSH2 0x16CA JUMP JUMPDEST POP ADD PUSH2 0x153E JUMP JUMPDEST PUSH1 0x40 MLOAD DUP1 PUSH2 0x221 DUP6 DUP3 PUSH2 0x3E2 JUMP JUMPDEST CALLVALUE PUSH2 0x27D JUMPI PUSH1 0x20 CALLDATASIZE PUSH1 0x3 NOT ADD SLT PUSH2 0x27D JUMPI PUSH2 0x15A0 PUSH2 0x532 JUMP JUMPDEST PUSH2 0x15A8 PUSH2 0x23AE JUMP JUMPDEST PUSH1 0x1 PUSH1 0x1 PUSH1 0xA0 SHL SUB DUP2 AND ISZERO PUSH2 0x15FE JUMPI PUSH1 0x0 DUP1 SLOAD PUSH1 0x1 PUSH1 0x1 PUSH1 0xA0 SHL SUB SWAP3 DUP4 AND PUSH1 0x1 PUSH1 0x1 PUSH1 0xA0 SHL SUB NOT DUP3 AND DUP2 OR DUP4 SSTORE SWAP3 AND SWAP1 PUSH32 0x8BE0079C531659141344CD1FD0A4F28419497F9722A3DAAFE3B4186F6B6457E0 SWAP1 DUP1 LOG3 STOP JUMPDEST PUSH1 0x40 MLOAD PUSH3 0x461BCD PUSH1 0xE5 SHL DUP2 MSTORE PUSH1 0x20 PUSH1 0x4 DUP3 ADD MSTORE PUSH1 0x26 PUSH1 0x24 DUP3 ADD MSTORE PUSH32 0x4F776E61626C653A206E6577206F776E657220697320746865207A65726F2061 PUSH1 0x44 DUP3 ADD MSTORE PUSH6 0x646472657373 PUSH1 0xD0 SHL PUSH1 0x64 DUP3 ADD MSTORE PUSH1 0x84 SWAP1 REVERT JUMPDEST ISZERO PUSH2 0x1659 JUMPI JUMP JUMPDEST PUSH4 0x17D38EFF PUSH1 0xE1 SHL PUSH1 0x0 MSTORE PUSH1 0x4 PUSH1 0x0 REVERT JUMPDEST SWAP1 PUSH2 0x1674 DUP3 PUSH2 0x36E JUMP JUMPDEST PUSH2 0x1681 PUSH1 0x40 MLOAD SWAP2 DUP3 PUSH2 0x348 JUMP JUMPDEST DUP3 DUP2 MSTORE DUP1 SWAP3 PUSH2 0x1692 PUSH1 0x1F NOT SWAP2 PUSH2 0x36E JUMP JUMPDEST ADD SWAP1 PUSH1 0x0 JUMPDEST DUP3 DUP2 LT PUSH2 0x16A3 JUMPI POP POP POP JUMP JUMPDEST DUP1 PUSH1 0x60 PUSH1 0x20 DUP1 SWAP4 DUP6 ADD ADD MSTORE ADD PUSH2 0x1697 JUMP JUMPDEST PUSH4 0x4E487B71 PUSH1 0xE0 SHL PUSH1 0x0 MSTORE PUSH1 0x32 PUSH1 0x4 MSTORE PUSH1 0x24 PUSH1 0x0 REVERT JUMPDEST DUP1 MLOAD DUP3 LT ISZERO PUSH2 0x16DE JUMPI PUSH1 0x20 SWAP2 PUSH1 0x5 SHL ADD ADD SWAP1 JUMP JUMPDEST PUSH2 0x16B4 JUMP JUMPDEST ISZERO PUSH2 0x16EB JUMPI POP JUMP JUMPDEST PUSH4 0x5747CD1B PUSH1 0xE1 SHL PUSH1 0x0 MSTORE PUSH1 0x4 MSTORE PUSH1 0x24 PUSH1 0x0 REVERT JUMPDEST PUSH1 0x0 DUP2 DUP2 MSTORE PUSH1 0x3 PUSH1 0x20 MSTORE PUSH1 0x40 SWAP1 KECCAK256 SLOAD PUSH1 0x1 PUSH1 0x1 PUSH1 0xA0 SHL SUB AND SWAP1 PUSH2 0x2DB SWAP1 DUP3 ISZERO ISZERO PUSH2 0x16E3 JUMP JUMPDEST SWAP1 SWAP3 SWAP4 SWAP2 PUSH2 0x1732 DUP2 CALLER PUSH2 0x1F1B JUMP JUMPDEST ISZERO PUSH2 0x1881 JUMPI PUSH2 0x187F SWAP5 SWAP3 PUSH2 0x1137 SWAP5 SWAP3 PUSH2 0x1875 DUP4 DUP1 PUSH2 0x1752 PUSH2 0x187A SWAP7 PUSH2 0x16FF JUMP JUMPDEST PUSH1 0x1 PUSH1 0x1 PUSH1 0xA0 SHL SUB DUP6 DUP2 AND SWAP1 PUSH2 0x17A3 SWAP1 DUP4 AND PUSH2 0x1772 DUP9 DUP7 DUP7 DUP7 DUP6 EQ PUSH2 0x1BE6 JUMP JUMPDEST PUSH1 0x1 PUSH1 0x1 PUSH1 0xA0 SHL SUB DUP12 AND SWAP4 PUSH2 0x1788 DUP6 ISZERO ISZERO PUSH2 0x1F6E JUMP JUMPDEST DUP6 PUSH2 0x1792 DUP2 PUSH2 0x16FF JUMP JUMPDEST SWAP3 PUSH1 0x1 PUSH1 0x1 PUSH1 0xA0 SHL SUB DUP5 AND EQ PUSH2 0x1F86 JUMP JUMPDEST PUSH2 0x17AD DUP4 DUP8 PUSH2 0x28A4 JUMP JUMPDEST PUSH1 0x1 PUSH1 0x1 PUSH1 0xA0 SHL SUB DUP7 AND PUSH1 0x0 SWAP1 DUP2 MSTORE PUSH1 0x4 PUSH1 0x20 MSTORE PUSH1 0x40 SWAP1 KECCAK256 PUSH2 0x17D0 SWAP1 DUP5 SWAP1 PUSH2 0x2C96 JUMP JUMPDEST POP PUSH1 0x1 PUSH1 0x1 PUSH1 0xA0 SHL SUB DUP10 AND PUSH1 0x0 SWAP1 DUP2 MSTORE PUSH1 0x4 PUSH1 0x20 MSTORE PUSH1 0x40 SWAP1 KECCAK256 PUSH2 0x17F4 SWAP1 DUP5 SWAP1 PUSH2 0x2B00 JUMP JUMPDEST POP PUSH2 0x182C DUP10 PUSH2 0x180D DUP6 PUSH1 0x0 MSTORE PUSH1 0x3 PUSH1 0x20 MSTORE PUSH1 0x40 PUSH1 0x0 KECCAK256 SWAP1 JUMP JUMPDEST DUP1 SLOAD PUSH1 0x1 PUSH1 0x1 PUSH1 0xA0 SHL SUB NOT AND PUSH1 0x1 PUSH1 0x1 PUSH1 0xA0 SHL SUB SWAP1 SWAP3 AND SWAP2 SWAP1 SWAP2 OR SWAP1 SSTORE JUMP JUMPDEST PUSH1 0x40 MLOAD PUSH32 0xB333C813A7426A7A11E2B190CAD52C44119421594B47F6F32ACE6D8C7207B2BF SWAP1 DUP1 PUSH2 0x185E DUP11 DUP15 CALLER DUP5 PUSH2 0x1FBB JUMP JUMPDEST SUB SWAP1 LOG4 PUSH1 0x40 MLOAD SWAP8 DUP9 SWAP5 DUP6 SWAP3 DUP9 DUP7 CALLER PUSH1 0x20 DUP8 ADD PUSH2 0x1FE5 JUMP JUMPDEST PUSH2 0x2BD0 JUMP JUMPDEST PUSH2 0x2A2A JUMP JUMPDEST JUMP JUMPDEST PUSH4 0x1294D2A9 PUSH1 0xE0 SHL PUSH1 0x0 MSTORE PUSH1 0x4 MSTORE CALLER PUSH1 0x24 MSTORE PUSH1 0x44 PUSH1 0x0 REVERT JUMPDEST PUSH1 0x0 MSTORE PUSH1 0x1 PUSH1 0x20 MSTORE PUSH1 0x40 PUSH1 0x0 KECCAK256 PUSH1 0x40 MLOAD SWAP1 DUP2 PUSH1 0x0 DUP3 SLOAD SWAP3 PUSH2 0x18B9 DUP5 PUSH2 0x1E45 JUMP JUMPDEST DUP1 DUP5 MSTORE SWAP4 PUSH1 0x1 DUP2 AND SWAP1 DUP2 ISZERO PUSH2 0x1925 JUMPI POP PUSH1 0x1 EQ PUSH2 0x18DE JUMPI JUMPDEST POP PUSH2 0x2DB SWAP3 POP SUB DUP3 PUSH2 0x348 JUMP JUMPDEST SWAP1 POP PUSH1 0x0 SWAP3 SWAP2 SWAP3 MSTORE PUSH1 0x20 PUSH1 0x0 KECCAK256 SWAP1 PUSH1 0x0 SWAP2 JUMPDEST DUP2 DUP4 LT PUSH2 0x1909 JUMPI POP POP SWAP1 PUSH1 0x20 PUSH2 0x2DB SWAP3 DUP3 ADD ADD CODESIZE PUSH2 0x18D1 JUMP JUMPDEST PUSH1 0x20 SWAP2 SWAP4 POP DUP1 PUSH1 0x1 SWAP2 SLOAD DUP4 DUP6 DUP9 ADD ADD MSTORE ADD SWAP2 ADD SWAP1 SWAP2 DUP4 SWAP3 PUSH2 0x18F0 JUMP JUMPDEST SWAP1 POP PUSH1 0x20 SWAP3 POP PUSH2 0x2DB SWAP5 SWAP2 POP PUSH1 0xFF NOT AND DUP3 DUP5 ADD MSTORE ISZERO ISZERO PUSH1 0x5 SHL DUP3 ADD ADD CODESIZE PUSH2 0x18D1 JUMP JUMPDEST SWAP1 DUP1 SWAP3 SWAP2 DUP3 CALLDATACOPY ADD PUSH1 0x0 DUP2 MSTORE SWAP1 JUMP JUMPDEST PUSH1 0x40 MLOAD SWAP1 PUSH2 0x1964 PUSH1 0x20 DUP4 PUSH2 0x348 JUMP JUMPDEST PUSH1 0x0 DUP3 MSTORE JUMP JUMPDEST RETURNDATASIZE ISZERO PUSH2 0x1995 JUMPI RETURNDATASIZE SWAP1 PUSH2 0x197B DUP3 PUSH2 0x579 JUMP JUMPDEST SWAP2 PUSH2 0x1989 PUSH1 0x40 MLOAD SWAP4 DUP5 PUSH2 0x348 JUMP JUMPDEST DUP3 MSTORE RETURNDATASIZE PUSH1 0x0 PUSH1 0x20 DUP5 ADD RETURNDATACOPY JUMP JUMPDEST PUSH1 0x60 SWAP1 JUMP JUMPDEST SWAP2 SWAP1 SWAP2 PUSH2 0x19A6 DUP4 PUSH2 0x166A JUMP JUMPDEST SWAP3 PUSH1 0x0 JUMPDEST DUP2 DUP2 LT PUSH2 0x19B6 JUMPI POP POP POP JUMP JUMPDEST PUSH1 0x0 DUP3 DUP3 LT ISZERO PUSH2 0x16DE JUMPI DUP2 PUSH1 0x5 SHL DUP5 ADD CALLDATALOAD PUSH1 0x1E NOT DUP6 CALLDATASIZE SUB ADD DUP2 SLT ISZERO PUSH2 0x1A6A JUMPI DUP5 ADD SWAP1 DUP2 CALLDATALOAD SWAP2 PUSH1 0x1 PUSH1 0x1 PUSH1 0x40 SHL SUB DUP4 GT PUSH2 0x1A6A JUMPI PUSH1 0x20 ADD SWAP1 DUP3 CALLDATASIZE SUB DUP3 SGT PUSH2 0x1A67 JUMPI POP PUSH1 0x0 SWAP2 DUP2 DUP4 SWAP3 POP PUSH2 0x1A0D PUSH1 0x40 MLOAD DUP1 SWAP4 DUP2 SWAP4 PUSH2 0x1947 JUMP JUMPDEST SUB SWAP1 ADDRESS GAS DELEGATECALL PUSH2 0x1A1A PUSH2 0x196A JUMP JUMPDEST SWAP1 ISZERO PUSH2 0x1A40 JUMPI SWAP1 PUSH1 0x1 SWAP2 PUSH2 0x1A2E DUP3 DUP9 PUSH2 0x16CA JUMP JUMPDEST MSTORE PUSH2 0x1A39 DUP2 DUP8 PUSH2 0x16CA JUMP JUMPDEST POP ADD PUSH2 0x19AA JUMP JUMPDEST DUP1 MLOAD SWAP1 SWAP2 SWAP1 ISZERO PUSH2 0x1A53 JUMPI POP DUP1 MLOAD SWAP1 PUSH1 0x20 ADD REVERT JUMPDEST PUSH4 0x234EB819 PUSH1 0xE0 SHL PUSH1 0x0 MSTORE PUSH1 0x4 MSTORE PUSH1 0x24 PUSH1 0x0 REVERT JUMPDEST DUP1 REVERT JUMPDEST POP DUP1 REVERT JUMPDEST PUSH1 0x20 SWAP2 SWAP3 DUP4 PUSH1 0x40 MLOAD SWAP5 DUP6 SWAP4 DUP5 CALLDATACOPY DUP3 ADD SWAP1 DUP2 MSTORE SUB ADD SWAP1 KECCAK256 SWAP1 JUMP JUMPDEST SWAP1 DUP1 PUSH1 0x20 SWAP4 SWAP3 DUP2 DUP5 MSTORE DUP5 DUP5 ADD CALLDATACOPY PUSH1 0x0 DUP3 DUP3 ADD DUP5 ADD MSTORE PUSH1 0x1F ADD PUSH1 0x1F NOT AND ADD ADD SWAP1 JUMP JUMPDEST PUSH1 0x1 PUSH1 0x1 PUSH1 0xA0 SHL SUB SWAP1 SWAP2 AND DUP2 MSTORE PUSH1 0x40 PUSH1 0x20 DUP3 ADD DUP2 SWAP1 MSTORE PUSH2 0x2DB SWAP4 SWAP2 ADD SWAP2 PUSH2 0x1A87 JUMP JUMPDEST PUSH4 0x4E487B71 PUSH1 0xE0 SHL PUSH1 0x0 MSTORE PUSH1 0x11 PUSH1 0x4 MSTORE PUSH1 0x24 PUSH1 0x0 REVERT JUMPDEST PUSH1 0x0 NOT DUP2 EQ PUSH2 0x1AEF JUMPI PUSH1 0x1 ADD SWAP1 JUMP JUMPDEST PUSH2 0x1ACA JUMP JUMPDEST SWAP5 SWAP4 SWAP3 SWAP2 PUSH1 0x40 SWAP3 PUSH2 0x1B12 SWAP3 DUP8 MSTORE PUSH1 0x60 PUSH1 0x20 DUP9 ADD MSTORE PUSH1 0x60 DUP8 ADD SWAP2 PUSH2 0x1A87 JUMP JUMPDEST SWAP4 ADD MSTORE JUMP JUMPDEST SWAP5 SWAP4 SWAP1 SWAP2 SWAP3 DUP6 MLOAD SWAP4 DUP4 MLOAD DUP6 EQ DUP1 PUSH2 0x1BDC JUMPI JUMPDEST DUP1 PUSH2 0x1BD2 JUMPI JUMPDEST DUP1 PUSH2 0x1BC8 JUMPI JUMPDEST ISZERO PUSH2 0x1BB7 JUMPI PUSH1 0x0 JUMPDEST DUP6 DUP2 LT PUSH2 0x1B4E JUMPI POP POP POP POP POP POP SWAP1 POP JUMP JUMPDEST DUP1 PUSH2 0x1BB1 PUSH2 0x1B5E PUSH1 0x1 SWAP4 DUP12 PUSH2 0x16CA JUMP JUMPDEST DUP4 DUP1 PUSH1 0xA0 SHL SUB SWAP1 MLOAD AND PUSH2 0x1B81 PUSH2 0x1B74 DUP5 DUP11 PUSH2 0x16CA JUMP JUMPDEST MLOAD PUSH1 0x1 PUSH1 0x1 PUSH1 0xA0 SHL SUB AND SWAP1 JUMP JUMPDEST PUSH2 0x1B8B DUP5 DUP8 PUSH2 0x16CA JUMP JUMPDEST MLOAD PUSH2 0x1B9F PUSH2 0x1B99 DUP7 DUP11 PUSH2 0x16CA JUMP JUMPDEST MLOAD ISZERO ISZERO SWAP1 JUMP JUMPDEST SWAP2 PUSH2 0x1BAA DUP7 DUP12 PUSH2 0x16CA JUMP JUMPDEST MLOAD SWAP4 PUSH2 0x1724 JUMP JUMPDEST ADD PUSH2 0x1B3D JUMP JUMPDEST PUSH4 0x93A83119 PUSH1 0xE0 SHL PUSH1 0x0 MSTORE PUSH1 0x4 PUSH1 0x0 REVERT JUMPDEST POP DUP3 MLOAD DUP6 EQ PUSH2 0x1B35 JUMP JUMPDEST POP DUP2 MLOAD DUP6 EQ PUSH2 0x1B2F JUMP JUMPDEST POP DUP1 MLOAD DUP6 EQ PUSH2 0x1B29 JUMP JUMPDEST ISZERO PUSH2 0x1BF0 JUMPI POP POP POP JUMP JUMPDEST PUSH4 0x2D938F51 PUSH1 0xE1 SHL PUSH1 0x0 SWAP1 DUP2 MSTORE PUSH1 0x1 PUSH1 0x1 PUSH1 0xA0 SHL SUB SWAP2 DUP3 AND PUSH1 0x4 MSTORE PUSH1 0x24 SWAP3 SWAP1 SWAP3 MSTORE SWAP2 SWAP1 SWAP2 AND PUSH1 0x44 MSTORE PUSH1 0x64 SWAP1 REVERT JUMPDEST ISZERO PUSH2 0x1C24 JUMPI JUMP JUMPDEST PUSH4 0x9577B8B3 PUSH1 0xE0 SHL PUSH1 0x0 MSTORE PUSH1 0x4 PUSH1 0x0 REVERT JUMPDEST ISZERO PUSH2 0x1C3C JUMPI JUMP JUMPDEST PUSH4 0x44FED6B1 PUSH1 0xE1 SHL PUSH1 0x0 MSTORE PUSH1 0x4 PUSH1 0x0 REVERT JUMPDEST ISZERO PUSH2 0x1C56 JUMPI POP POP JUMP JUMPDEST PUSH4 0x14EC4D6D PUSH1 0xE3 SHL PUSH1 0x0 MSTORE PUSH1 0x1 DUP1 PUSH1 0xA0 SHL SUB AND PUSH1 0x4 MSTORE PUSH1 0x24 MSTORE PUSH1 0x44 PUSH1 0x0 REVERT JUMPDEST PUSH2 0x2DB SWAP4 SWAP3 PUSH1 0x80 SWAP3 PUSH1 0x1 DUP1 PUSH1 0xA0 SHL SUB AND DUP3 MSTORE PUSH1 0x20 DUP3 ADD MSTORE PUSH1 0x1 PUSH1 0x40 DUP3 ADD MSTORE DUP2 PUSH1 0x60 DUP3 ADD MSTORE ADD SWAP1 PUSH2 0x2A5 JUMP JUMPDEST PUSH2 0x2DB SWAP4 SWAP3 PUSH1 0x80 SWAP3 PUSH1 0x1 DUP1 PUSH1 0xA0 SHL SUB AND DUP3 MSTORE PUSH1 0x20 DUP3 ADD MSTORE PUSH1 0x0 PUSH1 0x40 DUP3 ADD MSTORE DUP2 PUSH1 0x60 DUP3 ADD MSTORE ADD SWAP1 PUSH2 0x2A5 JUMP JUMPDEST CALLVALUE ISZERO PUSH2 0x1CE2 JUMPI PUSH4 0x30FA4A21 PUSH1 0xE1 SHL PUSH1 0x0 MSTORE PUSH1 0x4 PUSH1 0x0 REVERT JUMPDEST PUSH1 0x64 PUSH1 0x40 MLOAD PUSH4 0xE5099EE3 PUSH1 0xE0 SHL DUP2 MSTORE PUSH1 0x20 PUSH1 0x4 DUP3 ADD MSTORE PUSH1 0x4 PUSH1 0x24 DUP3 ADD MSTORE PUSH1 0x0 PUSH1 0x44 DUP3 ADD MSTORE REVERT JUMPDEST PUSH1 0x4 CALLDATASIZE LT PUSH2 0x1D1B JUMPI PUSH2 0x2DB SWAP1 PUSH1 0x0 PUSH2 0x2740 JUMP JUMPDEST PUSH1 0x40 MLOAD PUSH4 0xE5099EE3 PUSH1 0xE0 SHL DUP2 MSTORE PUSH1 0x20 PUSH1 0x4 DUP3 ADD MSTORE SWAP1 DUP2 SWAP1 PUSH2 0xD28 SWAP1 PUSH1 0x24 DUP4 ADD SWAP1 PUSH1 0x0 PUSH2 0x1A87 JUMP JUMPDEST PUSH2 0x1DAB PUSH2 0x1D8E PUSH2 0x1D89 PUSH1 0x40 MLOAD PUSH10 0x6773C5A04A6D4300884B PUSH1 0xB1 SHL PUSH1 0x20 DUP3 ADD MSTORE PUSH1 0x0 PUSH1 0x2A DUP3 ADD MSTORE PUSH4 0x1FFC9A7 PUSH1 0xE0 SHL PUSH1 0x2C DUP3 ADD MSTORE PUSH1 0x20 DUP2 MSTORE PUSH2 0x1D84 PUSH1 0x40 DUP3 PUSH2 0x348 JUMP JUMPDEST PUSH2 0x2C34 JUMP JUMPDEST PUSH2 0x1899 JUMP JUMPDEST PUSH2 0x1DA6 DUP2 DUP1 MLOAD PUSH1 0x14 DUP2 EQ SWAP1 DUP2 ISZERO PUSH2 0x1E1D JUMPI JUMPDEST POP PUSH2 0x27FF JUMP JUMPDEST PUSH2 0x282C JUMP JUMPDEST PUSH1 0x60 SHR SWAP1 DUP2 ISZERO PUSH2 0x1E16 JUMPI PUSH1 0x20 SWAP2 PUSH1 0x0 SWAP2 PUSH1 0x40 MLOAD DUP5 DUP2 ADD SWAP2 PUSH4 0x1FFC9A7 PUSH1 0xE0 SHL DUP4 MSTORE PUSH4 0xFFFFFFFF PUSH1 0xE0 SHL AND PUSH1 0x24 DUP3 ADD MSTORE PUSH1 0x24 DUP2 MSTORE PUSH2 0x1DE9 PUSH1 0x44 DUP3 PUSH2 0x348 JUMP JUMPDEST MLOAD SWAP2 PUSH2 0x7530 STATICCALL PUSH1 0x0 MLOAD RETURNDATASIZE DUP3 PUSH2 0x1E0A JUMPI JUMPDEST POP DUP2 PUSH2 0x1E03 JUMPI POP SWAP1 JUMP JUMPDEST SWAP1 POP ISZERO ISZERO SWAP1 JUMP JUMPDEST PUSH1 0x20 GT ISZERO SWAP2 POP CODESIZE PUSH2 0x1DF9 JUMP JUMPDEST POP POP PUSH1 0x0 SWAP1 JUMP JUMPDEST SWAP1 POP ISZERO CODESIZE PUSH2 0x1DA0 JUMP JUMPDEST SWAP2 SWAP1 PUSH1 0x40 MLOAD SWAP3 PUSH1 0x20 DUP5 ADD MSTORE PUSH1 0x40 DUP4 ADD MSTORE PUSH1 0x40 DUP3 MSTORE PUSH2 0x187F PUSH1 0x60 DUP4 PUSH2 0x348 JUMP JUMPDEST SWAP1 PUSH1 0x1 DUP3 DUP2 SHR SWAP3 AND DUP1 ISZERO PUSH2 0x1E75 JUMPI JUMPDEST PUSH1 0x20 DUP4 LT EQ PUSH2 0x1E5F JUMPI JUMP JUMPDEST PUSH4 0x4E487B71 PUSH1 0xE0 SHL PUSH1 0x0 MSTORE PUSH1 0x22 PUSH1 0x4 MSTORE PUSH1 0x24 PUSH1 0x0 REVERT JUMPDEST SWAP2 PUSH1 0x7F AND SWAP2 PUSH2 0x1E54 JUMP JUMPDEST SWAP1 PUSH2 0x1E89 SWAP2 PUSH2 0x1E26 JUMP JUMPDEST PUSH1 0x20 DUP2 MLOAD SWAP2 ADD KECCAK256 PUSH1 0x0 MSTORE PUSH1 0x1 PUSH1 0x20 MSTORE PUSH1 0x40 PUSH1 0x0 KECCAK256 PUSH1 0x40 MLOAD SWAP1 DUP2 PUSH1 0x0 DUP3 SLOAD SWAP3 PUSH2 0x1EB0 DUP5 PUSH2 0x1E45 JUMP JUMPDEST DUP1 DUP5 MSTORE SWAP4 PUSH1 0x1 DUP2 AND SWAP1 DUP2 ISZERO PUSH2 0x1925 JUMPI POP PUSH1 0x1 EQ PUSH2 0x1ED4 JUMPI POP PUSH2 0x2DB SWAP3 POP SUB DUP3 PUSH2 0x348 JUMP JUMPDEST SWAP1 POP PUSH1 0x0 SWAP3 SWAP2 SWAP3 MSTORE PUSH1 0x20 PUSH1 0x0 KECCAK256 SWAP1 PUSH1 0x0 SWAP2 JUMPDEST DUP2 DUP4 LT PUSH2 0x1EFF JUMPI POP POP SWAP1 PUSH1 0x20 PUSH2 0x2DB SWAP3 DUP3 ADD ADD CODESIZE PUSH2 0x18D1 JUMP JUMPDEST PUSH1 0x20 SWAP2 SWAP4 POP DUP1 PUSH1 0x1 SWAP2 SLOAD DUP4 DUP6 DUP9 ADD ADD MSTORE ADD SWAP2 ADD SWAP1 SWAP2 DUP4 SWAP3 PUSH2 0x1EE6 JUMP JUMPDEST PUSH1 0x1 PUSH1 0x1 PUSH1 0xA0 SHL SUB PUSH2 0x1F2C DUP4 PUSH2 0x16FF JUMP JUMPDEST PUSH1 0x1 PUSH1 0x1 PUSH1 0xA0 SHL SUB SWAP1 SWAP3 AND SWAP2 AND DUP2 EQ SWAP2 DUP3 ISZERO PUSH2 0x1F47 JUMPI POP POP SWAP1 JUMP JUMPDEST PUSH2 0x2DB SWAP3 POP PUSH1 0x0 MSTORE PUSH1 0x5 PUSH1 0x20 MSTORE PUSH1 0x40 PUSH1 0x0 KECCAK256 PUSH1 0x1 SWAP2 PUSH1 0x0 MSTORE ADD PUSH1 0x20 MSTORE PUSH1 0x40 PUSH1 0x0 KECCAK256 SLOAD ISZERO ISZERO SWAP1 JUMP JUMPDEST ISZERO PUSH2 0x1F75 JUMPI JUMP JUMPDEST PUSH4 0x24ECEF4D PUSH1 0xE0 SHL PUSH1 0x0 MSTORE PUSH1 0x4 PUSH1 0x0 REVERT JUMPDEST ISZERO PUSH2 0x1F90 JUMPI POP POP POP JUMP JUMPDEST PUSH4 0x5A9C31D3 PUSH1 0xE0 SHL PUSH1 0x0 SWAP1 DUP2 MSTORE PUSH1 0x4 SWAP2 SWAP1 SWAP2 MSTORE PUSH1 0x1 PUSH1 0x1 PUSH1 0xA0 SHL SUB SWAP2 DUP3 AND PUSH1 0x24 MSTORE SWAP2 AND PUSH1 0x44 MSTORE PUSH1 0x64 SWAP1 REVERT JUMPDEST PUSH1 0x1 PUSH1 0x1 PUSH1 0xA0 SHL SUB SWAP1 SWAP2 AND DUP2 MSTORE SWAP1 ISZERO ISZERO PUSH1 0x20 DUP3 ADD MSTORE PUSH1 0x60 PUSH1 0x40 DUP3 ADD DUP2 SWAP1 MSTORE PUSH2 0x2DB SWAP3 SWAP2 ADD SWAP1 PUSH2 0x2A5 JUMP JUMPDEST PUSH1 0x1 PUSH1 0x1 PUSH1 0xA0 SHL SUB SWAP2 DUP3 AND DUP2 MSTORE SWAP2 DUP2 AND PUSH1 0x20 DUP4 ADD MSTORE SWAP1 SWAP2 AND PUSH1 0x40 DUP3 ADD MSTORE PUSH1 0x60 DUP2 ADD SWAP2 SWAP1 SWAP2 MSTORE PUSH1 0xA0 PUSH1 0x80 DUP3 ADD DUP2 SWAP1 MSTORE PUSH2 0x2DB SWAP3 SWAP2 ADD SWAP1 PUSH2 0x2A5 JUMP JUMPDEST ISZERO PUSH2 0x2027 JUMPI POP JUMP JUMPDEST PUSH4 0x34C7B511 PUSH1 0xE0 SHL PUSH1 0x0 MSTORE PUSH1 0x4 MSTORE PUSH1 0x24 PUSH1 0x0 REVERT JUMPDEST PUSH2 0x187F SWAP3 PUSH1 0x1 PUSH1 0x1 PUSH1 0xA0 SHL SUB DUP3 AND SWAP3 PUSH1 0x1 SWAP3 SWAP2 PUSH2 0x187A SWAP2 SWAP1 PUSH2 0x2160 SWAP1 PUSH2 0x2062 DUP8 ISZERO ISZERO PUSH2 0x1F6E JUMP JUMPDEST PUSH1 0x0 DUP4 DUP2 MSTORE PUSH1 0x3 PUSH1 0x20 MSTORE PUSH1 0x40 SWAP1 KECCAK256 SLOAD PUSH2 0x2086 SWAP1 DUP5 SWAP1 PUSH1 0x1 PUSH1 0x1 PUSH1 0xA0 SHL SUB AND ISZERO PUSH2 0x201F JUMP JUMPDEST PUSH1 0x0 DUP4 DUP2 MSTORE PUSH1 0x3 PUSH1 0x20 MSTORE PUSH1 0x40 SWAP1 KECCAK256 SLOAD PUSH2 0x20AA SWAP1 DUP5 SWAP1 PUSH1 0x1 PUSH1 0x1 PUSH1 0xA0 SHL SUB AND ISZERO PUSH2 0x201F JUMP JUMPDEST PUSH2 0x20B5 PUSH1 0x2 SLOAD PUSH2 0x1AE0 JUMP JUMPDEST PUSH1 0x2 SSTORE PUSH1 0x1 PUSH1 0x1 PUSH1 0xA0 SHL SUB DUP6 AND PUSH1 0x0 SWAP1 DUP2 MSTORE PUSH1 0x4 PUSH1 0x20 MSTORE PUSH1 0x40 SWAP1 KECCAK256 PUSH2 0x20DB SWAP1 DUP5 SWAP1 PUSH2 0x2B00 JUMP JUMPDEST POP PUSH2 0x20F4 DUP6 PUSH2 0x180D DUP6 PUSH1 0x0 MSTORE PUSH1 0x3 PUSH1 0x20 MSTORE PUSH1 0x40 PUSH1 0x0 KECCAK256 SWAP1 JUMP JUMPDEST DUP3 DUP8 PUSH1 0x0 PUSH32 0xB333C813A7426A7A11E2B190CAD52C44119421594B47F6F32ACE6D8C7207B2BF PUSH1 0x40 MLOAD DUP1 PUSH2 0x2129 DUP8 DUP14 CALLER DUP5 PUSH2 0x1FBB JUMP JUMPDEST SUB SWAP1 LOG4 PUSH1 0xA0 PUSH1 0x40 MLOAD SWAP8 DUP9 SWAP5 PUSH1 0x20 DUP7 ADD SWAP2 DUP10 DUP1 DUP6 SHL SUB CALLER AND DUP4 MSTORE PUSH1 0x0 PUSH1 0x20 DUP5 ADD MSTORE PUSH1 0x40 DUP4 ADD MSTORE PUSH1 0x60 DUP3 ADD MSTORE DUP2 PUSH1 0x80 DUP3 ADD MSTORE ADD SWAP1 PUSH2 0x2A5 JUMP JUMPDEST SUB PUSH1 0x1F NOT DUP2 ADD DUP6 MSTORE DUP5 PUSH2 0x348 JUMP JUMPDEST SWAP1 PUSH2 0x2178 DUP3 PUSH2 0x579 JUMP JUMPDEST PUSH2 0x2185 PUSH1 0x40 MLOAD SWAP2 DUP3 PUSH2 0x348 JUMP JUMPDEST DUP3 DUP2 MSTORE DUP1 SWAP3 PUSH2 0x2196 PUSH1 0x1F NOT SWAP2 PUSH2 0x579 JUMP JUMPDEST ADD SWAP1 PUSH1 0x20 CALLDATASIZE SWAP2 ADD CALLDATACOPY JUMP JUMPDEST DUP1 ISZERO PUSH2 0x1AEF JUMPI PUSH1 0x0 NOT ADD SWAP1 JUMP JUMPDEST PUSH1 0x30 ADD SWAP1 DUP2 PUSH1 0x30 GT PUSH2 0x1AEF JUMPI JUMP JUMPDEST SWAP1 DUP2 MLOAD DUP2 LT ISZERO PUSH2 0x16DE JUMPI ADD PUSH1 0x20 ADD SWAP1 JUMP JUMPDEST SWAP1 DUP2 ISZERO PUSH2 0x225F JUMPI PUSH1 0x0 DUP3 DUP1 JUMPDEST PUSH2 0x2244 JUMPI POP DUP3 PUSH2 0x21E7 DUP3 PUSH2 0x216E JUMP JUMPDEST SWAP2 SWAP1 JUMPDEST PUSH2 0x21F3 JUMPI POP SWAP2 POP JUMP JUMPDEST PUSH2 0x21FF PUSH2 0x223D SWAP2 PUSH2 0x21A0 JUMP JUMPDEST SWAP4 PUSH2 0x2228 PUSH2 0x2218 PUSH2 0x2212 PUSH1 0xA DUP5 MOD PUSH2 0x21AD JUMP JUMPDEST PUSH1 0xFF AND SWAP1 JUMP JUMPDEST PUSH1 0xF8 SHL PUSH1 0x1 PUSH1 0x1 PUSH1 0xF8 SHL SUB NOT AND SWAP1 JUMP JUMPDEST PUSH1 0x0 BYTE PUSH2 0x2235 DUP7 DUP6 PUSH2 0x21BB JUMP JUMPDEST MSTORE8 PUSH1 0xA SWAP1 DIV SWAP1 JUMP JUMPDEST SWAP3 DUP4 PUSH2 0x21EA JUMP JUMPDEST SWAP1 PUSH2 0x2251 PUSH2 0x2259 SWAP2 PUSH2 0x1AE0 JUMP JUMPDEST SWAP2 PUSH1 0xA SWAP1 DIV SWAP1 JUMP JUMPDEST DUP1 PUSH2 0x21D8 JUMP JUMPDEST SWAP1 POP PUSH1 0x40 MLOAD PUSH2 0x226F PUSH1 0x40 DUP3 PUSH2 0x348 JUMP JUMPDEST PUSH1 0x1 DUP2 MSTORE PUSH1 0x3 PUSH1 0xFC SHL PUSH1 0x20 DUP3 ADD MSTORE SWAP1 JUMP JUMPDEST SWAP1 PUSH32 0xF675E9361AF1C1664C1868CFA3EB97672D6B1A513AA5B81DEC34C9EE330E818D DUP3 EQ PUSH2 0x239D JUMPI PUSH32 0xDEBA1E292F8BA88238E10AB3C7F88BD4BE4FAC56CAD5194B6ECCEAF653468AF1 DUP3 SUB PUSH2 0x22E0 JUMPI PUSH4 0x85C169BD PUSH1 0xE0 SHL PUSH1 0x0 MSTORE PUSH1 0x4 PUSH1 0x0 REVERT JUMPDEST PUSH32 0x2F0A68AB07768E01943A599E73362A0E17A63A72E94DD2E384D2C1D4DB932756 DUP3 SUB PUSH2 0x2318 JUMPI PUSH4 0xECEAB67 PUSH1 0xE3 SHL PUSH1 0x0 MSTORE PUSH1 0x4 PUSH1 0x0 REVERT JUMPDEST PUSH32 0xE0261FA95DB2EB3B5439BD033CDA66D56B96F92F243A8228FD87550ED7BDFDB3 DUP3 SUB PUSH2 0x2350 JUMPI PUSH4 0x4EF6D7FB PUSH1 0xE0 SHL PUSH1 0x0 MSTORE PUSH1 0x4 PUSH1 0x0 REVERT JUMPDEST PUSH2 0x2398 PUSH32 0xECE574603820D07BC9B91F2A932BAADF4628AABCB8AFBA49776529C14A6104B2 SWAP2 DUP4 PUSH1 0x0 MSTORE PUSH1 0x1 PUSH1 0x20 MSTORE PUSH2 0x238C DUP2 PUSH1 0x40 PUSH1 0x0 KECCAK256 PUSH2 0x2476 JUMP JUMPDEST PUSH1 0x40 MLOAD SWAP2 DUP3 SWAP2 DUP3 PUSH2 0x2CA JUMP JUMPDEST SUB SWAP1 LOG2 JUMP JUMPDEST PUSH4 0x1B324005 PUSH1 0xE1 SHL PUSH1 0x0 MSTORE PUSH1 0x4 PUSH1 0x0 REVERT JUMPDEST PUSH1 0x0 SLOAD PUSH1 0x1 PUSH1 0x1 PUSH1 0xA0 SHL SUB AND CALLER SUB PUSH2 0x23C2 JUMPI JUMP JUMPDEST PUSH1 0x64 PUSH1 0x40 MLOAD PUSH3 0x461BCD PUSH1 0xE5 SHL DUP2 MSTORE PUSH1 0x20 PUSH1 0x4 DUP3 ADD MSTORE PUSH1 0x20 PUSH1 0x24 DUP3 ADD MSTORE PUSH32 0x4F776E61626C653A2063616C6C6572206973206E6F7420746865206F776E6572 PUSH1 0x44 DUP3 ADD MSTORE REVERT JUMPDEST SWAP2 PUSH2 0x2420 SWAP2 DUP4 SLOAD SWAP1 PUSH1 0x3 SHL SWAP2 DUP3 SHL SWAP2 PUSH1 0x0 NOT SWAP1 SHL NOT AND OR SWAP1 JUMP JUMPDEST SWAP1 SSTORE JUMP JUMPDEST PUSH1 0x1F DUP3 GT PUSH2 0x2431 JUMPI POP POP POP JUMP JUMPDEST PUSH1 0x0 MSTORE PUSH1 0x20 PUSH1 0x0 KECCAK256 SWAP1 PUSH1 0x20 PUSH1 0x1F DUP5 ADD PUSH1 0x5 SHR DUP4 ADD SWAP4 LT PUSH2 0x246C JUMPI JUMPDEST PUSH1 0x1F ADD PUSH1 0x5 SHR ADD SWAP1 JUMPDEST DUP2 DUP2 LT PUSH2 0x2460 JUMPI POP POP JUMP JUMPDEST PUSH1 0x0 DUP2 SSTORE PUSH1 0x1 ADD PUSH2 0x2455 JUMP JUMPDEST SWAP1 SWAP2 POP DUP2 SWAP1 PUSH2 0x244C JUMP JUMPDEST SWAP2 SWAP1 SWAP2 DUP3 MLOAD PUSH1 0x1 PUSH1 0x1 PUSH1 0x40 SHL SUB DUP2 GT PUSH2 0x369 JUMPI PUSH2 0x249D DUP2 PUSH2 0x2497 DUP5 SLOAD PUSH2 0x1E45 JUMP JUMPDEST DUP5 PUSH2 0x2424 JUMP JUMPDEST PUSH1 0x20 PUSH1 0x1F DUP3 GT PUSH1 0x1 EQ PUSH2 0x24DA JUMPI DUP2 SWAP1 PUSH2 0x2420 SWAP4 SWAP5 SWAP6 PUSH1 0x0 SWAP3 PUSH2 0x24CF JUMPI JUMPDEST POP POP DUP2 PUSH1 0x1 SHL SWAP2 PUSH1 0x0 NOT SWAP1 PUSH1 0x3 SHL SHR NOT AND OR SWAP1 JUMP JUMPDEST ADD MLOAD SWAP1 POP CODESIZE DUP1 PUSH2 0x24BA JUMP JUMPDEST PUSH1 0x1F NOT DUP3 AND SWAP1 PUSH2 0x24EF DUP5 PUSH1 0x0 MSTORE PUSH1 0x20 PUSH1 0x0 KECCAK256 SWAP1 JUMP JUMPDEST SWAP2 PUSH1 0x0 JUMPDEST DUP2 DUP2 LT PUSH2 0x252B JUMPI POP SWAP6 DUP4 PUSH1 0x1 SWAP6 SWAP7 SWAP8 LT PUSH2 0x2512 JUMPI JUMPDEST POP POP POP DUP2 SHL ADD SWAP1 SSTORE JUMP JUMPDEST ADD MLOAD PUSH1 0x0 NOT PUSH1 0xF8 DUP5 PUSH1 0x3 SHL AND SHR NOT AND SWAP1 SSTORE CODESIZE DUP1 DUP1 PUSH2 0x2508 JUMP JUMPDEST SWAP2 SWAP3 PUSH1 0x20 PUSH1 0x1 DUP2 SWAP3 DUP7 DUP12 ADD MLOAD DUP2 SSTORE ADD SWAP5 ADD SWAP3 ADD PUSH2 0x24F3 JUMP JUMPDEST SWAP1 SWAP2 PUSH2 0x254F DUP4 DUP4 PUSH2 0x1E26 JUMP JUMPDEST PUSH1 0x20 DUP2 MLOAD SWAP2 ADD KECCAK256 PUSH1 0x0 MSTORE PUSH1 0x1 PUSH1 0x20 MSTORE PUSH1 0x40 PUSH1 0x0 KECCAK256 DUP2 MLOAD PUSH1 0x1 PUSH1 0x1 PUSH1 0x40 SHL SUB DUP2 GT PUSH2 0x369 JUMPI PUSH2 0x2581 DUP2 PUSH2 0x2497 DUP5 SLOAD PUSH2 0x1E45 JUMP JUMPDEST PUSH1 0x20 PUSH1 0x1F DUP3 GT PUSH1 0x1 EQ PUSH2 0x25F4 JUMPI SWAP2 PUSH2 0x25D6 DUP3 PUSH32 0xA6E4251F855F750545FE414F120DB91C76B88DEF14D120969E5BB2D3F05DEBBB SWAP6 SWAP4 PUSH2 0x25E4 SWAP6 PUSH1 0x0 SWAP2 PUSH2 0x25E9 JUMPI JUMPDEST POP DUP2 PUSH1 0x1 SHL SWAP2 PUSH1 0x0 NOT SWAP1 PUSH1 0x3 SHL SHR NOT AND OR SWAP1 JUMP JUMPDEST SWAP1 SSTORE PUSH1 0x40 MLOAD SWAP2 DUP3 SWAP2 DUP3 PUSH2 0x2CA JUMP JUMPDEST SUB SWAP1 LOG3 JUMP JUMPDEST SWAP1 POP DUP5 ADD MLOAD CODESIZE PUSH2 0x25C2 JUMP JUMPDEST PUSH1 0x1F NOT DUP3 AND SWAP1 PUSH2 0x2609 DUP5 PUSH1 0x0 MSTORE PUSH1 0x20 PUSH1 0x0 KECCAK256 SWAP1 JUMP JUMPDEST SWAP2 PUSH1 0x0 JUMPDEST DUP2 DUP2 LT PUSH2 0x266D JUMPI POP SWAP3 PUSH2 0x25E4 SWAP5 SWAP3 PUSH1 0x1 SWAP3 DUP3 PUSH32 0xA6E4251F855F750545FE414F120DB91C76B88DEF14D120969E5BB2D3F05DEBBB SWAP9 SWAP7 LT PUSH2 0x2654 JUMPI JUMPDEST POP POP DUP2 SHL ADD SWAP1 SSTORE PUSH2 0x238C JUMP JUMPDEST DUP6 ADD MLOAD PUSH1 0x0 NOT PUSH1 0xF8 DUP5 PUSH1 0x3 SHL AND SHR NOT AND SWAP1 SSTORE CODESIZE DUP1 PUSH2 0x2648 JUMP JUMPDEST SWAP2 SWAP3 PUSH1 0x20 PUSH1 0x1 DUP2 SWAP3 DUP7 DUP11 ADD MLOAD DUP2 SSTORE ADD SWAP5 ADD SWAP3 ADD PUSH2 0x260D JUMP JUMPDEST SWAP2 SWAP4 SWAP3 DUP5 PUSH1 0x0 MSTORE PUSH1 0x5 PUSH1 0x20 MSTORE PUSH2 0x26A9 PUSH1 0x40 PUSH1 0x0 KECCAK256 SWAP4 PUSH1 0x1 DUP1 PUSH1 0xA0 SHL SUB AND DUP1 SWAP5 PUSH2 0x2C96 JUMP JUMPDEST ISZERO PUSH2 0x26FF JUMPI PUSH1 0x40 DUP1 MLOAD SWAP2 ISZERO ISZERO DUP3 MSTORE PUSH1 0x20 DUP3 ADD DUP2 SWAP1 MSTORE PUSH1 0x1 PUSH1 0x1 PUSH1 0xA0 SHL SUB SWAP1 SWAP3 AND SWAP4 PUSH32 0xC78CD419D6136F9F1C1C6AEC1D3FAE098CFFAF8BC86314A8F2685E32FE574E3C SWAP3 DUP3 SWAP2 PUSH2 0x26FA SWAP2 DUP4 ADD SWAP1 PUSH2 0x2A5 JUMP JUMPDEST SUB SWAP1 LOG4 JUMP JUMPDEST DUP5 DUP4 PUSH4 0x12A8C6A3 PUSH1 0xE2 SHL PUSH1 0x0 MSTORE PUSH1 0x4 MSTORE PUSH1 0x24 MSTORE PUSH1 0x44 PUSH1 0x0 REVERT JUMPDEST DUP3 PUSH1 0x34 SWAP6 SWAP4 SWAP3 DUP3 CALLDATACOPY ADD SWAP2 PUSH12 0xFFFFFFFFFFFFFFFFFFFFFFFF NOT SWAP1 PUSH1 0x60 SHL AND DUP3 MSTORE PUSH1 0x14 DUP3 ADD MSTORE ADD SWAP1 JUMP JUMPDEST PUSH4 0xFFFFFFFF PUSH1 0xE0 SHL PUSH1 0x0 CALLDATALOAD AND SWAP2 PUSH2 0x2791 PUSH2 0x1D8E PUSH2 0x1D89 PUSH1 0x40 MLOAD PUSH10 0x6773C5A04A6D4300884B PUSH1 0xB1 SHL PUSH1 0x20 DUP3 ADD MSTORE PUSH1 0x0 PUSH1 0x2A DUP3 ADD MSTORE PUSH4 0xFFFFFFFF PUSH1 0xE0 SHL DUP8 AND PUSH1 0x2C DUP3 ADD MSTORE PUSH1 0x20 DUP2 MSTORE PUSH2 0x1D84 PUSH1 0x40 DUP3 PUSH2 0x348 JUMP JUMPDEST PUSH1 0x60 SHR SWAP3 DUP4 ISZERO PUSH2 0x27EB JUMPI POP SWAP2 PUSH1 0x0 SWAP3 SWAP2 PUSH2 0x27BE PUSH2 0x27CC DUP6 SWAP5 PUSH1 0x40 MLOAD SWAP3 DUP4 SWAP2 PUSH1 0x20 DUP4 ADD SWAP6 CALLVALUE SWAP2 CALLER SWAP2 DUP9 PUSH2 0x2718 JUMP JUMPDEST SUB PUSH1 0x1F NOT DUP2 ADD DUP4 MSTORE DUP3 PUSH2 0x348 JUMP JUMPDEST MLOAD SWAP2 CALLVALUE SWAP1 GAS CALL PUSH2 0x27DA PUSH2 0x196A JUMP JUMPDEST SWAP1 ISZERO PUSH2 0x27E3 JUMPI SWAP1 JUMP JUMPDEST PUSH1 0x20 DUP2 MLOAD SWAP2 ADD REVERT JUMPDEST PUSH4 0xBB370B2B PUSH1 0xE0 SHL PUSH1 0x0 MSTORE PUSH1 0x4 MSTORE PUSH1 0x24 PUSH1 0x0 REVERT JUMPDEST ISZERO PUSH2 0x2807 JUMPI POP JUMP JUMPDEST PUSH1 0x40 MLOAD PUSH4 0x42BFE79F PUSH1 0xE0 SHL DUP2 MSTORE PUSH1 0x20 PUSH1 0x4 DUP3 ADD MSTORE SWAP1 DUP2 SWAP1 PUSH2 0xD28 SWAP1 PUSH1 0x24 DUP4 ADD SWAP1 PUSH2 0x2A5 JUMP JUMPDEST SWAP1 PUSH1 0x20 DUP3 MLOAD SWAP3 ADD MLOAD SWAP2 PUSH12 0xFFFFFFFFFFFFFFFFFFFFFFFF NOT DUP4 AND SWAP3 PUSH1 0x14 DUP3 LT PUSH2 0x2852 JUMPI POP POP JUMP JUMPDEST PUSH12 0xFFFFFFFFFFFFFFFFFFFFFFFF NOT PUSH1 0x14 SWAP3 SWAP1 SWAP3 SUB PUSH1 0x3 SHL DUP3 SWAP1 SHL AND AND SWAP2 POP JUMP JUMPDEST PUSH1 0x0 PUSH1 0x20 SWAP2 PUSH1 0x40 MLOAD DUP4 DUP2 ADD SWAP1 PUSH4 0x1FFC9A7 PUSH1 0xE0 SHL DUP3 MSTORE PUSH4 0x1AED5A85 PUSH1 0xE2 SHL PUSH1 0x24 DUP3 ADD MSTORE PUSH1 0x24 DUP2 MSTORE PUSH2 0x1DE9 PUSH1 0x44 DUP3 PUSH2 0x348 JUMP JUMPDEST DUP2 PUSH1 0x0 MSTORE PUSH1 0x5 PUSH1 0x20 MSTORE PUSH1 0x40 PUSH1 0x0 KECCAK256 SWAP2 DUP3 SLOAD SWAP2 PUSH1 0x0 SWAP4 PUSH1 0x20 SWAP5 JUMPDEST DUP5 DUP2 LT PUSH2 0x28CC JUMPI POP POP POP POP POP POP JUMP JUMPDEST PUSH1 0x0 DUP3 SLOAD ISZERO PUSH2 0x16DE JUMPI DUP3 DUP2 MSTORE DUP7 SWAP1 KECCAK256 SLOAD PUSH1 0x40 MLOAD SWAP1 PUSH1 0x1 PUSH1 0x1 PUSH1 0xA0 SHL SUB AND PUSH1 0x0 PUSH2 0x28F5 DUP10 DUP5 PUSH2 0x348 JUMP JUMPDEST DUP1 DUP4 MSTORE DUP7 DUP2 MSTORE PUSH1 0x5 DUP10 MSTORE PUSH1 0x40 DUP2 KECCAK256 PUSH1 0x1 PUSH1 0x1 PUSH1 0xA0 SHL SUB SWAP1 SWAP3 AND SWAP2 PUSH2 0x291A SWAP1 DUP4 SWAP1 PUSH2 0x2C96 JUMP JUMPDEST ISZERO PUSH2 0x2973 JUMPI SWAP2 DUP7 SWAP2 PUSH32 0xC78CD419D6136F9F1C1C6AEC1D3FAE098CFFAF8BC86314A8F2685E32FE574E3C PUSH1 0x1 SWAP6 SWAP5 PUSH1 0x40 MLOAD SWAP1 DUP2 MSTORE PUSH1 0x40 DUP13 DUP3 ADD MSTORE DUP1 PUSH2 0x296A DUP9 DUP1 PUSH1 0xA0 SHL SUB DUP12 AND SWAP6 PUSH1 0x40 DUP4 ADD SWAP1 PUSH2 0x2A5 JUMP JUMPDEST SUB SWAP1 LOG4 ADD PUSH2 0x28BD JUMP JUMPDEST DUP7 PUSH1 0x44 SWAP3 PUSH4 0x12A8C6A3 PUSH1 0xE2 SHL DUP4 MSTORE PUSH1 0x4 MSTORE PUSH1 0x24 MSTORE REVERT JUMPDEST PUSH1 0x20 DUP2 DUP4 SUB SLT PUSH2 0x27D JUMPI DUP1 MLOAD SWAP1 PUSH1 0x1 PUSH1 0x1 PUSH1 0x40 SHL SUB DUP3 GT PUSH2 0x27D JUMPI ADD DUP2 PUSH1 0x1F DUP3 ADD SLT ISZERO PUSH2 0x27D JUMPI DUP1 MLOAD PUSH2 0x29BB DUP2 PUSH2 0x579 JUMP JUMPDEST SWAP3 PUSH2 0x29C9 PUSH1 0x40 MLOAD SWAP5 DUP6 PUSH2 0x348 JUMP JUMPDEST DUP2 DUP5 MSTORE PUSH1 0x20 DUP3 DUP5 ADD ADD GT PUSH2 0x27D JUMPI PUSH2 0x2DB SWAP2 PUSH1 0x20 DUP1 DUP6 ADD SWAP2 ADD PUSH2 0x282 JUMP JUMPDEST SWAP1 PUSH1 0x40 PUSH2 0x2DB SWAP3 PUSH32 0xB084A55EBF70FD3C06FD755269DAC2212C4D3F0F4D09079780BFA50C1B2984D DUP2 MSTORE DUP2 PUSH1 0x20 DUP3 ADD MSTORE ADD SWAP1 PUSH2 0x2A5 JUMP JUMPDEST PUSH1 0x40 MLOAD RETURNDATASIZE PUSH1 0x0 DUP3 RETURNDATACOPY RETURNDATASIZE SWAP1 REVERT JUMPDEST SWAP2 SWAP1 PUSH2 0x2A35 DUP4 PUSH2 0x2872 JUMP JUMPDEST ISZERO PUSH2 0x2A9D JUMPI POP PUSH2 0x2A5F PUSH1 0x0 SWAP3 DUP4 SWAP3 PUSH1 0x40 MLOAD SWAP5 DUP6 DUP1 SWAP5 DUP2 SWAP4 PUSH4 0x1AED5A85 PUSH1 0xE2 SHL DUP4 MSTORE PUSH1 0x4 DUP4 ADD PUSH2 0x29E7 JUMP JUMPDEST SUB SWAP3 PUSH1 0x1 PUSH1 0x1 PUSH1 0xA0 SHL SUB AND GAS CALL DUP1 ISZERO PUSH2 0x2A98 JUMPI PUSH2 0x2A79 JUMPI POP JUMP JUMPDEST PUSH2 0x2A95 SWAP1 RETURNDATASIZE DUP1 PUSH1 0x0 DUP4 RETURNDATACOPY PUSH2 0x2A8D DUP2 DUP4 PUSH2 0x348 JUMP JUMPDEST DUP2 ADD SWAP1 PUSH2 0x2989 JUMP JUMPDEST POP JUMP JUMPDEST PUSH2 0x2A1E JUMP JUMPDEST SWAP1 POP ISZERO PUSH2 0x2AA7 JUMPI POP JUMP JUMPDEST DUP1 EXTCODESIZE ISZERO PUSH2 0x2ACB JUMPI PUSH4 0x4349776D PUSH1 0xE0 SHL PUSH1 0x0 MSTORE PUSH1 0x1 PUSH1 0x1 PUSH1 0xA0 SHL SUB AND PUSH1 0x4 MSTORE PUSH1 0x24 PUSH1 0x0 REVERT JUMPDEST PUSH4 0x3173137 PUSH1 0xE0 SHL PUSH1 0x0 MSTORE PUSH1 0x1 PUSH1 0x1 PUSH1 0xA0 SHL SUB AND PUSH1 0x4 MSTORE PUSH1 0x24 PUSH1 0x0 REVERT JUMPDEST DUP1 SLOAD DUP3 LT ISZERO PUSH2 0x16DE JUMPI PUSH1 0x0 MSTORE PUSH1 0x20 PUSH1 0x0 KECCAK256 ADD SWAP1 PUSH1 0x0 SWAP1 JUMP JUMPDEST PUSH1 0x0 DUP3 DUP2 MSTORE PUSH1 0x1 DUP3 ADD PUSH1 0x20 MSTORE PUSH1 0x40 SWAP1 KECCAK256 SLOAD PUSH2 0x1E16 JUMPI DUP1 SLOAD SWAP1 PUSH9 0x10000000000000000 DUP3 LT ISZERO PUSH2 0x369 JUMPI DUP3 PUSH2 0x2B55 PUSH2 0x2B3E DUP5 PUSH1 0x1 DUP1 SWAP7 ADD DUP6 SSTORE DUP5 PUSH2 0x2AE8 JUMP JUMPDEST DUP2 SWAP4 SWAP2 SLOAD SWAP1 PUSH1 0x3 SHL SWAP2 DUP3 SHL SWAP2 PUSH1 0x0 NOT SWAP1 SHL NOT AND OR SWAP1 JUMP JUMPDEST SWAP1 SSTORE DUP1 SLOAD SWAP3 PUSH1 0x0 MSTORE ADD PUSH1 0x20 MSTORE PUSH1 0x40 PUSH1 0x0 KECCAK256 SSTORE PUSH1 0x1 SWAP1 JUMP JUMPDEST PUSH2 0x2B75 DUP2 PUSH2 0x2872 JUMP JUMPDEST PUSH2 0x2B7D JUMPI POP POP JUMP JUMPDEST PUSH2 0x2A5F PUSH1 0x0 SWAP3 SWAP2 DUP4 SWAP3 PUSH1 0x40 MLOAD SWAP5 DUP6 DUP1 SWAP5 DUP2 SWAP4 PUSH4 0x1AED5A85 PUSH1 0xE2 SHL DUP4 MSTORE PUSH32 0x8A1C15A8799F71B547E08E2BCB2E85257E81B0A07EEE2CE6712549EEF1F00970 PUSH1 0x4 DUP5 ADD MSTORE PUSH1 0x40 PUSH1 0x24 DUP5 ADD MSTORE PUSH1 0x44 DUP4 ADD SWAP1 PUSH2 0x2A5 JUMP JUMPDEST PUSH2 0x2BD9 DUP2 PUSH2 0x2872 JUMP JUMPDEST PUSH2 0x2BE1 JUMPI POP POP JUMP JUMPDEST PUSH2 0x2A5F PUSH1 0x0 SWAP3 SWAP2 DUP4 SWAP3 PUSH1 0x40 MLOAD SWAP5 DUP6 DUP1 SWAP5 DUP2 SWAP4 PUSH4 0x1AED5A85 PUSH1 0xE2 SHL DUP4 MSTORE PUSH32 0xB23EAE7E6D1564B295B4C3E3BE402D9A2F0776C57BDF365903496F6FA481AB00 PUSH1 0x4 DUP5 ADD MSTORE PUSH1 0x40 PUSH1 0x24 DUP5 ADD MSTORE PUSH1 0x44 DUP4 ADD SWAP1 PUSH2 0x2A5 JUMP JUMPDEST PUSH1 0x20 DUP2 MLOAD SWAP2 ADD MLOAD SWAP1 PUSH1 0x20 DUP2 LT PUSH2 0x2C48 JUMPI POP SWAP1 JUMP JUMPDEST PUSH1 0x0 NOT SWAP1 PUSH1 0x20 SUB PUSH1 0x3 SHL SHL AND SWAP1 JUMP JUMPDEST DUP1 SLOAD DUP1 ISZERO PUSH2 0x2C80 JUMPI PUSH1 0x0 NOT ADD SWAP1 PUSH2 0x2C6E DUP3 DUP3 PUSH2 0x2AE8 JUMP JUMPDEST DUP2 SLOAD SWAP1 PUSH1 0x0 NOT SWAP1 PUSH1 0x3 SHL SHL NOT AND SWAP1 SSTORE SSTORE JUMP JUMPDEST PUSH4 0x4E487B71 PUSH1 0xE0 SHL PUSH1 0x0 MSTORE PUSH1 0x31 PUSH1 0x4 MSTORE PUSH1 0x24 PUSH1 0x0 REVERT JUMPDEST PUSH1 0x1 DUP2 ADD SWAP2 DUP1 PUSH1 0x0 MSTORE DUP3 PUSH1 0x20 MSTORE PUSH1 0x40 PUSH1 0x0 KECCAK256 SLOAD SWAP3 DUP4 ISZERO ISZERO PUSH1 0x0 EQ PUSH2 0x2D48 JUMPI PUSH1 0x0 NOT DUP5 ADD DUP5 DUP2 GT PUSH2 0x1AEF JUMPI DUP4 SLOAD PUSH1 0x0 NOT DUP2 ADD SWAP5 SWAP1 DUP6 GT PUSH2 0x1AEF JUMPI PUSH1 0x0 SWAP6 DUP6 DUP4 PUSH2 0x2CEA SWAP5 PUSH2 0x2CF9 SWAP9 SUB PUSH2 0x2CFF JUMPI JUMPDEST POP POP POP PUSH2 0x2C57 JUMP JUMPDEST SWAP1 PUSH1 0x0 MSTORE PUSH1 0x20 MSTORE PUSH1 0x40 PUSH1 0x0 KECCAK256 SWAP1 JUMP JUMPDEST SSTORE PUSH1 0x1 SWAP1 JUMP JUMPDEST PUSH2 0x2D2F PUSH2 0x2D29 SWAP2 PUSH2 0x2D20 PUSH2 0x2D16 PUSH2 0x2D3F SWAP6 DUP9 PUSH2 0x2AE8 JUMP JUMPDEST SWAP1 SLOAD SWAP1 PUSH1 0x3 SHL SHR SWAP1 JUMP JUMPDEST SWAP3 DUP4 SWAP2 DUP8 PUSH2 0x2AE8 JUMP JUMPDEST SWAP1 PUSH2 0x2406 JUMP JUMPDEST DUP6 SWAP1 PUSH1 0x0 MSTORE PUSH1 0x20 MSTORE PUSH1 0x40 PUSH1 0x0 KECCAK256 SWAP1 JUMP JUMPDEST SSTORE CODESIZE DUP1 DUP1 PUSH2 0x2CE2 JUMP JUMPDEST POP POP POP POP PUSH1 0x0 SWAP1 JUMP INVALID LOG2 PUSH5 0x6970667358 0x22 SLT KECCAK256 0x2D KECCAK256 EXP 0x22 SWAP1 0xCB 0xAE 0x29 TSTORE PUSH0 0xC5 SUB PUSH17 0xC02D072761FE4FED1F24520C574014F155 MLOAD ORIGIN PUSH5 0x736F6C6343 STOP ADDMOD SHR STOP CALLER 0xDE 0xBA 0x1E 0x29 0x2F DUP12 0xA8 DUP3 CODESIZE 0xE1 EXP 0xB3 0xC7 0xF8 DUP12 0xD4 0xBE 0x4F 0xAC JUMP 0xCA 0xD5 NOT 0x4B PUSH15 0xCCEAF653468AF1E0261FA95DB2EB3B SLOAD CODECOPY 0xBD SUB EXTCODECOPY 0xDA PUSH7 0xD56B96F92F243A DUP3 0x28 REVERT DUP8 SSTORE 0xE 0xD7 0xBD REVERT 0xB3 0xEA INVALID 0xC4 0xD8 SWAP16 0xA9 PUSH2 0x9884 0xB6 STOP STOP LOG4 0xD9 PUSH7 0x24A38F7AC2D8D9 0xA6 DIV 0xEC CREATE PUSH29 0x12C77E480CF675E9361AF1C1664C1868CFA3EB97672D6B1A513AA5B81D 0xEC CALLVALUE 0xC9 0xEE CALLER 0xE DUP2 DUP14 0x2F EXP PUSH9 0xAB07768E01943A599E PUSH20 0x362A0E17A63A72E94DD2E384D2C1D4DB932756EC 0xE5 PUSH21 0x603820D07BC9B91F2A932BAADF4628AABCB8AFBA49 PUSH24 0x6529C14A6104B20000000000000000000000000000000000 "},"methodIdentifiers":{"authorizeOperator(address,bytes32,bytes)":"86a10ddd","balanceOf(address)":"70a08231","batchCalls(bytes[])":"6963d438","getData(bytes32)":"54f6127f","getDataBatch(bytes32[])":"dedff9c6","getDataBatchForTokenIds(bytes32[],bytes32[])":"1d26fce6","getDataForTokenId(bytes32,bytes32)":"16e023b3","getOperatorsOf(bytes32)":"49a6078d","haRicevutoPerEvento(address,string)":"37a649e9","isOperatorFor(address,bytes32)":"2a3654a4","mintBenvenuto(address,string,string,uint256,uint256)":"70afd221","owner()":"8da5cb5b","renounceOwnership()":"715018a6","revokeOperator(address,bytes32,bool,bytes)":"db8c9663","setData(bytes32,bytes)":"7f23690c","setDataBatch(bytes32[],bytes[])":"97902421","setDataBatchForTokenIds(bytes32[],bytes32[],bytes[])":"be9f0e6f","setDataForTokenId(bytes32,bytes32,bytes)":"d6c1407c","supportsInterface(bytes4)":"01ffc9a7","tokenDelClientePerEvento(address,string)":"78b5a616","tokenIdsOf(address)":"a3b261f2","tokenOwnerOf(bytes32)":"217b2270","totalSupply()":"18160ddd","transfer(address,address,bytes32,bool,bytes)":"511b6952","transferBatch(address[],address[],bytes32[],bool[],bytes[])":"7e87632c","transferOwnership(address)":"f2fde38b"}}}}}