{"@erc725/smart-contracts-v8/contracts/ERC725Y.sol":{"ERC725Y":{"abi":[{"inputs":[{"internalType":"address","name":"initialOwner","type":"address"}],"stateMutability":"payable","type":"constructor"},{"inputs":[],"name":"ERC725Y_DataKeysValuesEmptyArray","type":"error"},{"inputs":[],"name":"ERC725Y_DataKeysValuesLengthMismatch","type":"error"},{"inputs":[],"name":"ERC725Y_MsgValueDisallowed","type":"error"},{"inputs":[],"name":"OwnableCannotSetZeroAddressAsOwner","type":"error"},{"anonymous":false,"inputs":[{"indexed":true,"internalType":"bytes32","name":"dataKey","type":"bytes32"},{"indexed":false,"internalType":"bytes","name":"dataValue","type":"bytes"}],"name":"DataChanged","type":"event"},{"anonymous":false,"inputs":[{"indexed":true,"internalType":"address","name":"previousOwner","type":"address"},{"indexed":true,"internalType":"address","name":"newOwner","type":"address"}],"name":"OwnershipTransferred","type":"event"},{"inputs":[{"internalType":"bytes32","name":"dataKey","type":"bytes32"}],"name":"getData","outputs":[{"internalType":"bytes","name":"dataValue","type":"bytes"}],"stateMutability":"view","type":"function"},{"inputs":[{"internalType":"bytes32[]","name":"dataKeys","type":"bytes32[]"}],"name":"getDataBatch","outputs":[{"internalType":"bytes[]","name":"dataValues","type":"bytes[]"}],"stateMutability":"view","type":"function"},{"inputs":[],"name":"owner","outputs":[{"internalType":"address","name":"","type":"address"}],"stateMutability":"view","type":"function"},{"inputs":[],"name":"renounceOwnership","outputs":[],"stateMutability":"nonpayable","type":"function"},{"inputs":[{"internalType":"bytes32","name":"dataKey","type":"bytes32"},{"internalType":"bytes","name":"dataValue","type":"bytes"}],"name":"setData","outputs":[],"stateMutability":"payable","type":"function"},{"inputs":[{"internalType":"bytes32[]","name":"dataKeys","type":"bytes32[]"},{"internalType":"bytes[]","name":"dataValues","type":"bytes[]"}],"name":"setDataBatch","outputs":[],"stateMutability":"payable","type":"function"},{"inputs":[{"internalType":"bytes4","name":"interfaceId","type":"bytes4"}],"name":"supportsInterface","outputs":[{"internalType":"bool","name":"","type":"bool"}],"stateMutability":"view","type":"function"},{"inputs":[{"internalType":"address","name":"newOwner","type":"address"}],"name":"transferOwnership","outputs":[],"stateMutability":"nonpayable","type":"function"}],"evm":{"bytecode":{"linkReferences":{},"object":"6080601f610a3938819003918201601f19168301916001600160401b03831184841017607f57808492602094604052833981010312607a57516001600160a01b038116808203607a57604f336095565b15606957605a906095565b60405161095c90816100dd8239f35b6306b620db60e21b60005260046000fd5b600080fd5b634e487b7160e01b600052604160045260246000fd5b600080546001600160a01b039283166001600160a01b03198216811783559216907f8be0079c531659141344cd1fd0a4f28419497f9722a3daafe3b4186f6b6457e09080a356fe608080604052600436101561001357600080fd5b60003560e01c90816301ffc9a7146104a65750806354f6127f1461046f578063715018a6146104165780637f23690c146103d15780638da5cb5b146103a85780639790242114610265578063dedff9c6146101475763f2fde38b1461007757600080fd5b34610142576020366003190112610142576004356001600160a01b03811690819003610142576100a5610753565b80156100ee57600080546001600160a01b03198116831782556001600160a01b0316907f8be0079c531659141344cd1fd0a4f28419497f9722a3daafe3b4186f6b6457e09080a3005b60405162461bcd60e51b815260206004820152602660248201527f4f776e61626c653a206e6577206f776e657220697320746865207a65726f206160448201526564647265737360d01b6064820152608490fd5b600080fd5b346101425760203660031901126101425760043567ffffffffffffffff8111610142576101789036906004016105e1565b805190610184826105c9565b91610192604051938461053a565b8083526101a1601f19916105c9565b0160005b81811061025457505060005b81518110156101ec57806101d06101ca600193856106ef565b5161063e565b6101da82866106ef565b526101e581856106ef565b50016101b1565b826040518091602082016020835281518091526040830190602060408260051b8601019301916000905b82821061022557505050500390f35b919360019193955060206102448192603f198a820301865288516104f9565b9601920192018594939192610216565b8060606020809387010152016101a5565b60403660031901126101425760043567ffffffffffffffff8111610142576102919036906004016105e1565b6024359067ffffffffffffffff821161014257366023830112156101425781600401356102bd816105c9565b926102cb604051948561053a565b8184526024602085019260051b820101903682116101425760248101925b8284106103785785856102fa610753565b34610367578051825103610356578051156103455760005b8151811015610343578061033d61032b600193856106ef565b5161033683876106ef565b51906107ab565b01610312565b005b6397da5f9560e01b60005260046000fd5b633bcc897960e01b60005260046000fd5b63f36ba73760e01b60005260046000fd5b833567ffffffffffffffff81116101425760209161039d839260243691870101610572565b8152019301926102e9565b34610142576000366003190112610142576000546040516001600160a01b039091168152602090f35b60403660031901126101425760243567ffffffffffffffff8111610142576103fd903690600401610572565b610405610753565b3461036757610343906004356107ab565b346101425760003660031901126101425761042f610753565b600080546001600160a01b0319811682556001600160a01b03167f8be0079c531659141344cd1fd0a4f28419497f9722a3daafe3b4186f6b6457e08280a3005b34610142576020366003190112610142576104a261048e60043561063e565b6040519182916020835260208301906104f9565b0390f35b34610142576020366003190112610142576004359063ffffffff60e01b8216809203610142576020916318a6a9a560e21b81149081156104e8575b5015158152f35b6301ffc9a760e01b149050836104e1565b919082519283825260005b848110610525575050826000602080949584010152601f8019910116010190565b80602080928401015182828601015201610504565b90601f8019910116810190811067ffffffffffffffff82111761055c57604052565b634e487b7160e01b600052604160045260246000fd5b81601f820112156101425780359067ffffffffffffffff821161055c57604051926105a7601f8401601f19166020018561053a565b8284526020838301011161014257816000926020809301838601378301015290565b67ffffffffffffffff811161055c5760051b60200190565b9080601f830112156101425781356105f8816105c9565b92610606604051948561053a565b81845260208085019260051b82010192831161014257602001905b82821061062e5750505090565b8135815260209182019101610621565b600052600160205260406000206040519081600082549261065e84610719565b80845293600181169081156106cd5750600114610686575b506106839250038261053a565b90565b90506000929192526020600020906000915b8183106106b15750509060206106839282010138610676565b6020919350806001915483858801015201910190918392610698565b90506020925061068394915060ff191682840152151560051b82010138610676565b80518210156107035760209160051b010190565b634e487b7160e01b600052603260045260246000fd5b90600182811c92168015610749575b602083101461073357565b634e487b7160e01b600052602260045260246000fd5b91607f1691610728565b6000546001600160a01b0316330361076757565b606460405162461bcd60e51b815260206004820152602060248201527f4f776e61626c653a2063616c6c6572206973206e6f7420746865206f776e65726044820152fd5b908160005260016020526040600020815167ffffffffffffffff811161055c576107d58254610719565b601f81116108de575b506020601f82116001146108545791817fece574603820d07bc9b91f2a932baadf4628aabcb8afba49776529c14a6104b2949261084494600091610849575b508160011b916000199060031b1c19161790556040519182916020835260208301906104f9565b0390a2565b90508301513861081d565b601f1982169083600052806000209160005b8181106108c65750926108449492600192827fece574603820d07bc9b91f2a932baadf4628aabcb8afba49776529c14a6104b29896106108ad575b5050811b01905561048e565b85015160001960f88460031b161c1916905538806108a1565b9192602060018192868a015181550194019201610866565b826000526020600020601f830160051c8101916020841061091c575b601f0160051c01905b81811061091057506107de565b60008155600101610903565b90915081906108fa56fea2646970667358221220f43183227320338a68276050d3ac3203d19c70019d89b862e41b3ecc0e93a8ef64736f6c634300081c0033","opcodes":"PUSH1 0x80 PUSH1 0x1F PUSH2 0xA39 CODESIZE DUP2 SWAP1 SUB SWAP2 DUP3 ADD PUSH1 0x1F NOT AND DUP4 ADD SWAP2 PUSH1 0x1 PUSH1 0x1 PUSH1 0x40 SHL SUB DUP4 GT DUP5 DUP5 LT OR PUSH1 0x7F JUMPI DUP1 DUP5 SWAP3 PUSH1 0x20 SWAP5 PUSH1 0x40 MSTORE DUP4 CODECOPY DUP2 ADD SUB SLT PUSH1 0x7A JUMPI MLOAD PUSH1 0x1 PUSH1 0x1 PUSH1 0xA0 SHL SUB DUP2 AND DUP1 DUP3 SUB PUSH1 0x7A JUMPI PUSH1 0x4F CALLER PUSH1 0x95 JUMP JUMPDEST ISZERO PUSH1 0x69 JUMPI PUSH1 0x5A SWAP1 PUSH1 0x95 JUMP JUMPDEST PUSH1 0x40 MLOAD PUSH2 0x95C SWAP1 DUP2 PUSH2 0xDD DUP3 CODECOPY RETURN JUMPDEST PUSH4 0x6B620DB PUSH1 0xE2 SHL PUSH1 0x0 MSTORE PUSH1 0x4 PUSH1 0x0 REVERT JUMPDEST PUSH1 0x0 DUP1 REVERT JUMPDEST PUSH4 0x4E487B71 PUSH1 0xE0 SHL PUSH1 0x0 MSTORE PUSH1 0x41 PUSH1 0x4 MSTORE PUSH1 0x24 PUSH1 0x0 REVERT JUMPDEST PUSH1 0x0 DUP1 SLOAD PUSH1 0x1 PUSH1 0x1 PUSH1 0xA0 SHL SUB SWAP3 DUP4 AND PUSH1 0x1 PUSH1 0x1 PUSH1 0xA0 SHL SUB NOT DUP3 AND DUP2 OR DUP4 SSTORE SWAP3 AND SWAP1 PUSH32 0x8BE0079C531659141344CD1FD0A4F28419497F9722A3DAAFE3B4186F6B6457E0 SWAP1 DUP1 LOG3 JUMP INVALID PUSH1 0x80 DUP1 PUSH1 0x40 MSTORE PUSH1 0x4 CALLDATASIZE LT ISZERO PUSH2 0x13 JUMPI PUSH1 0x0 DUP1 REVERT JUMPDEST PUSH1 0x0 CALLDATALOAD PUSH1 0xE0 SHR SWAP1 DUP2 PUSH4 0x1FFC9A7 EQ PUSH2 0x4A6 JUMPI POP DUP1 PUSH4 0x54F6127F EQ PUSH2 0x46F JUMPI DUP1 PUSH4 0x715018A6 EQ PUSH2 0x416 JUMPI DUP1 PUSH4 0x7F23690C EQ PUSH2 0x3D1 JUMPI DUP1 PUSH4 0x8DA5CB5B EQ PUSH2 0x3A8 JUMPI DUP1 PUSH4 0x97902421 EQ PUSH2 0x265 JUMPI DUP1 PUSH4 0xDEDFF9C6 EQ PUSH2 0x147 JUMPI PUSH4 0xF2FDE38B EQ PUSH2 0x77 JUMPI PUSH1 0x0 DUP1 REVERT JUMPDEST CALLVALUE PUSH2 0x142 JUMPI PUSH1 0x20 CALLDATASIZE PUSH1 0x3 NOT ADD SLT PUSH2 0x142 JUMPI PUSH1 0x4 CALLDATALOAD PUSH1 0x1 PUSH1 0x1 PUSH1 0xA0 SHL SUB DUP2 AND SWAP1 DUP2 SWAP1 SUB PUSH2 0x142 JUMPI PUSH2 0xA5 PUSH2 0x753 JUMP JUMPDEST DUP1 ISZERO PUSH2 0xEE JUMPI PUSH1 0x0 DUP1 SLOAD PUSH1 0x1 PUSH1 0x1 PUSH1 0xA0 SHL SUB NOT DUP2 AND DUP4 OR DUP3 SSTORE PUSH1 0x1 PUSH1 0x1 PUSH1 0xA0 SHL SUB AND SWAP1 PUSH32 0x8BE0079C531659141344CD1FD0A4F28419497F9722A3DAAFE3B4186F6B6457E0 SWAP1 DUP1 LOG3 STOP JUMPDEST PUSH1 0x40 MLOAD PUSH3 0x461BCD PUSH1 0xE5 SHL DUP2 MSTORE PUSH1 0x20 PUSH1 0x4 DUP3 ADD MSTORE PUSH1 0x26 PUSH1 0x24 DUP3 ADD MSTORE PUSH32 0x4F776E61626C653A206E6577206F776E657220697320746865207A65726F2061 PUSH1 0x44 DUP3 ADD MSTORE PUSH6 0x646472657373 PUSH1 0xD0 SHL PUSH1 0x64 DUP3 ADD MSTORE PUSH1 0x84 SWAP1 REVERT JUMPDEST PUSH1 0x0 DUP1 REVERT JUMPDEST CALLVALUE PUSH2 0x142 JUMPI PUSH1 0x20 CALLDATASIZE PUSH1 0x3 NOT ADD SLT PUSH2 0x142 JUMPI PUSH1 0x4 CALLDATALOAD PUSH8 0xFFFFFFFFFFFFFFFF DUP2 GT PUSH2 0x142 JUMPI PUSH2 0x178 SWAP1 CALLDATASIZE SWAP1 PUSH1 0x4 ADD PUSH2 0x5E1 JUMP JUMPDEST DUP1 MLOAD SWAP1 PUSH2 0x184 DUP3 PUSH2 0x5C9 JUMP JUMPDEST SWAP2 PUSH2 0x192 PUSH1 0x40 MLOAD SWAP4 DUP5 PUSH2 0x53A JUMP JUMPDEST DUP1 DUP4 MSTORE PUSH2 0x1A1 PUSH1 0x1F NOT SWAP2 PUSH2 0x5C9 JUMP JUMPDEST ADD PUSH1 0x0 JUMPDEST DUP2 DUP2 LT PUSH2 0x254 JUMPI POP POP PUSH1 0x0 JUMPDEST DUP2 MLOAD DUP2 LT ISZERO PUSH2 0x1EC JUMPI DUP1 PUSH2 0x1D0 PUSH2 0x1CA PUSH1 0x1 SWAP4 DUP6 PUSH2 0x6EF JUMP JUMPDEST MLOAD PUSH2 0x63E JUMP JUMPDEST PUSH2 0x1DA DUP3 DUP7 PUSH2 0x6EF JUMP JUMPDEST MSTORE PUSH2 0x1E5 DUP2 DUP6 PUSH2 0x6EF JUMP JUMPDEST POP ADD PUSH2 0x1B1 JUMP JUMPDEST DUP3 PUSH1 0x40 MLOAD DUP1 SWAP2 PUSH1 0x20 DUP3 ADD PUSH1 0x20 DUP4 MSTORE DUP2 MLOAD DUP1 SWAP2 MSTORE PUSH1 0x40 DUP4 ADD SWAP1 PUSH1 0x20 PUSH1 0x40 DUP3 PUSH1 0x5 SHL DUP7 ADD ADD SWAP4 ADD SWAP2 PUSH1 0x0 SWAP1 JUMPDEST DUP3 DUP3 LT PUSH2 0x225 JUMPI POP POP POP POP SUB SWAP1 RETURN JUMPDEST SWAP2 SWAP4 PUSH1 0x1 SWAP2 SWAP4 SWAP6 POP PUSH1 0x20 PUSH2 0x244 DUP2 SWAP3 PUSH1 0x3F NOT DUP11 DUP3 SUB ADD DUP7 MSTORE DUP9 MLOAD PUSH2 0x4F9 JUMP JUMPDEST SWAP7 ADD SWAP3 ADD SWAP3 ADD DUP6 SWAP5 SWAP4 SWAP2 SWAP3 PUSH2 0x216 JUMP JUMPDEST DUP1 PUSH1 0x60 PUSH1 0x20 DUP1 SWAP4 DUP8 ADD ADD MSTORE ADD PUSH2 0x1A5 JUMP JUMPDEST PUSH1 0x40 CALLDATASIZE PUSH1 0x3 NOT ADD SLT PUSH2 0x142 JUMPI PUSH1 0x4 CALLDATALOAD PUSH8 0xFFFFFFFFFFFFFFFF DUP2 GT PUSH2 0x142 JUMPI PUSH2 0x291 SWAP1 CALLDATASIZE SWAP1 PUSH1 0x4 ADD PUSH2 0x5E1 JUMP JUMPDEST PUSH1 0x24 CALLDATALOAD SWAP1 PUSH8 0xFFFFFFFFFFFFFFFF DUP3 GT PUSH2 0x142 JUMPI CALLDATASIZE PUSH1 0x23 DUP4 ADD SLT ISZERO PUSH2 0x142 JUMPI DUP2 PUSH1 0x4 ADD CALLDATALOAD PUSH2 0x2BD DUP2 PUSH2 0x5C9 JUMP JUMPDEST SWAP3 PUSH2 0x2CB PUSH1 0x40 MLOAD SWAP5 DUP6 PUSH2 0x53A JUMP JUMPDEST DUP2 DUP5 MSTORE PUSH1 0x24 PUSH1 0x20 DUP6 ADD SWAP3 PUSH1 0x5 SHL DUP3 ADD ADD SWAP1 CALLDATASIZE DUP3 GT PUSH2 0x142 JUMPI PUSH1 0x24 DUP2 ADD SWAP3 JUMPDEST DUP3 DUP5 LT PUSH2 0x378 JUMPI DUP6 DUP6 PUSH2 0x2FA PUSH2 0x753 JUMP JUMPDEST CALLVALUE PUSH2 0x367 JUMPI DUP1 MLOAD DUP3 MLOAD SUB PUSH2 0x356 JUMPI DUP1 MLOAD ISZERO PUSH2 0x345 JUMPI PUSH1 0x0 JUMPDEST DUP2 MLOAD DUP2 LT ISZERO PUSH2 0x343 JUMPI DUP1 PUSH2 0x33D PUSH2 0x32B PUSH1 0x1 SWAP4 DUP6 PUSH2 0x6EF JUMP JUMPDEST MLOAD PUSH2 0x336 DUP4 DUP8 PUSH2 0x6EF JUMP JUMPDEST MLOAD SWAP1 PUSH2 0x7AB JUMP JUMPDEST ADD PUSH2 0x312 JUMP JUMPDEST STOP JUMPDEST PUSH4 0x97DA5F95 PUSH1 0xE0 SHL PUSH1 0x0 MSTORE PUSH1 0x4 PUSH1 0x0 REVERT JUMPDEST PUSH4 0x3BCC8979 PUSH1 0xE0 SHL PUSH1 0x0 MSTORE PUSH1 0x4 PUSH1 0x0 REVERT JUMPDEST PUSH4 0xF36BA737 PUSH1 0xE0 SHL PUSH1 0x0 MSTORE PUSH1 0x4 PUSH1 0x0 REVERT JUMPDEST DUP4 CALLDATALOAD PUSH8 0xFFFFFFFFFFFFFFFF DUP2 GT PUSH2 0x142 JUMPI PUSH1 0x20 SWAP2 PUSH2 0x39D DUP4 SWAP3 PUSH1 0x24 CALLDATASIZE SWAP2 DUP8 ADD ADD PUSH2 0x572 JUMP JUMPDEST DUP2 MSTORE ADD SWAP4 ADD SWAP3 PUSH2 0x2E9 JUMP JUMPDEST CALLVALUE PUSH2 0x142 JUMPI PUSH1 0x0 CALLDATASIZE PUSH1 0x3 NOT ADD SLT PUSH2 0x142 JUMPI PUSH1 0x0 SLOAD PUSH1 0x40 MLOAD PUSH1 0x1 PUSH1 0x1 PUSH1 0xA0 SHL SUB SWAP1 SWAP2 AND DUP2 MSTORE PUSH1 0x20 SWAP1 RETURN JUMPDEST PUSH1 0x40 CALLDATASIZE PUSH1 0x3 NOT ADD SLT PUSH2 0x142 JUMPI PUSH1 0x24 CALLDATALOAD PUSH8 0xFFFFFFFFFFFFFFFF DUP2 GT PUSH2 0x142 JUMPI PUSH2 0x3FD SWAP1 CALLDATASIZE SWAP1 PUSH1 0x4 ADD PUSH2 0x572 JUMP JUMPDEST PUSH2 0x405 PUSH2 0x753 JUMP JUMPDEST CALLVALUE PUSH2 0x367 JUMPI PUSH2 0x343 SWAP1 PUSH1 0x4 CALLDATALOAD PUSH2 0x7AB JUMP JUMPDEST CALLVALUE PUSH2 0x142 JUMPI PUSH1 0x0 CALLDATASIZE PUSH1 0x3 NOT ADD SLT PUSH2 0x142 JUMPI PUSH2 0x42F PUSH2 0x753 JUMP JUMPDEST PUSH1 0x0 DUP1 SLOAD PUSH1 0x1 PUSH1 0x1 PUSH1 0xA0 SHL SUB NOT DUP2 AND DUP3 SSTORE PUSH1 0x1 PUSH1 0x1 PUSH1 0xA0 SHL SUB AND PUSH32 0x8BE0079C531659141344CD1FD0A4F28419497F9722A3DAAFE3B4186F6B6457E0 DUP3 DUP1 LOG3 STOP JUMPDEST CALLVALUE PUSH2 0x142 JUMPI PUSH1 0x20 CALLDATASIZE PUSH1 0x3 NOT ADD SLT PUSH2 0x142 JUMPI PUSH2 0x4A2 PUSH2 0x48E PUSH1 0x4 CALLDATALOAD PUSH2 0x63E JUMP JUMPDEST PUSH1 0x40 MLOAD SWAP2 DUP3 SWAP2 PUSH1 0x20 DUP4 MSTORE PUSH1 0x20 DUP4 ADD SWAP1 PUSH2 0x4F9 JUMP JUMPDEST SUB SWAP1 RETURN JUMPDEST CALLVALUE PUSH2 0x142 JUMPI PUSH1 0x20 CALLDATASIZE PUSH1 0x3 NOT ADD SLT PUSH2 0x142 JUMPI PUSH1 0x4 CALLDATALOAD SWAP1 PUSH4 0xFFFFFFFF PUSH1 0xE0 SHL DUP3 AND DUP1 SWAP3 SUB PUSH2 0x142 JUMPI PUSH1 0x20 SWAP2 PUSH4 0x18A6A9A5 PUSH1 0xE2 SHL DUP2 EQ SWAP1 DUP2 ISZERO PUSH2 0x4E8 JUMPI JUMPDEST POP ISZERO ISZERO DUP2 MSTORE RETURN JUMPDEST PUSH4 0x1FFC9A7 PUSH1 0xE0 SHL EQ SWAP1 POP DUP4 PUSH2 0x4E1 JUMP JUMPDEST SWAP2 SWAP1 DUP3 MLOAD SWAP3 DUP4 DUP3 MSTORE PUSH1 0x0 JUMPDEST DUP5 DUP2 LT PUSH2 0x525 JUMPI POP POP DUP3 PUSH1 0x0 PUSH1 0x20 DUP1 SWAP5 SWAP6 DUP5 ADD ADD MSTORE PUSH1 0x1F DUP1 NOT SWAP2 ADD AND ADD ADD SWAP1 JUMP JUMPDEST DUP1 PUSH1 0x20 DUP1 SWAP3 DUP5 ADD ADD MLOAD DUP3 DUP3 DUP7 ADD ADD MSTORE ADD PUSH2 0x504 JUMP JUMPDEST SWAP1 PUSH1 0x1F DUP1 NOT SWAP2 ADD AND DUP2 ADD SWAP1 DUP2 LT PUSH8 0xFFFFFFFFFFFFFFFF DUP3 GT OR PUSH2 0x55C JUMPI PUSH1 0x40 MSTORE JUMP JUMPDEST PUSH4 0x4E487B71 PUSH1 0xE0 SHL PUSH1 0x0 MSTORE PUSH1 0x41 PUSH1 0x4 MSTORE PUSH1 0x24 PUSH1 0x0 REVERT JUMPDEST DUP2 PUSH1 0x1F DUP3 ADD SLT ISZERO PUSH2 0x142 JUMPI DUP1 CALLDATALOAD SWAP1 PUSH8 0xFFFFFFFFFFFFFFFF DUP3 GT PUSH2 0x55C JUMPI PUSH1 0x40 MLOAD SWAP3 PUSH2 0x5A7 PUSH1 0x1F DUP5 ADD PUSH1 0x1F NOT AND PUSH1 0x20 ADD DUP6 PUSH2 0x53A JUMP JUMPDEST DUP3 DUP5 MSTORE PUSH1 0x20 DUP4 DUP4 ADD ADD GT PUSH2 0x142 JUMPI DUP2 PUSH1 0x0 SWAP3 PUSH1 0x20 DUP1 SWAP4 ADD DUP4 DUP7 ADD CALLDATACOPY DUP4 ADD ADD MSTORE SWAP1 JUMP JUMPDEST PUSH8 0xFFFFFFFFFFFFFFFF DUP2 GT PUSH2 0x55C JUMPI PUSH1 0x5 SHL PUSH1 0x20 ADD SWAP1 JUMP JUMPDEST SWAP1 DUP1 PUSH1 0x1F DUP4 ADD SLT ISZERO PUSH2 0x142 JUMPI DUP2 CALLDATALOAD PUSH2 0x5F8 DUP2 PUSH2 0x5C9 JUMP JUMPDEST SWAP3 PUSH2 0x606 PUSH1 0x40 MLOAD SWAP5 DUP6 PUSH2 0x53A JUMP JUMPDEST DUP2 DUP5 MSTORE PUSH1 0x20 DUP1 DUP6 ADD SWAP3 PUSH1 0x5 SHL DUP3 ADD ADD SWAP3 DUP4 GT PUSH2 0x142 JUMPI PUSH1 0x20 ADD SWAP1 JUMPDEST DUP3 DUP3 LT PUSH2 0x62E JUMPI POP POP POP SWAP1 JUMP JUMPDEST DUP2 CALLDATALOAD DUP2 MSTORE PUSH1 0x20 SWAP2 DUP3 ADD SWAP2 ADD PUSH2 0x621 JUMP JUMPDEST PUSH1 0x0 MSTORE PUSH1 0x1 PUSH1 0x20 MSTORE PUSH1 0x40 PUSH1 0x0 KECCAK256 PUSH1 0x40 MLOAD SWAP1 DUP2 PUSH1 0x0 DUP3 SLOAD SWAP3 PUSH2 0x65E DUP5 PUSH2 0x719 JUMP JUMPDEST DUP1 DUP5 MSTORE SWAP4 PUSH1 0x1 DUP2 AND SWAP1 DUP2 ISZERO PUSH2 0x6CD JUMPI POP PUSH1 0x1 EQ PUSH2 0x686 JUMPI JUMPDEST POP PUSH2 0x683 SWAP3 POP SUB DUP3 PUSH2 0x53A JUMP JUMPDEST SWAP1 JUMP JUMPDEST SWAP1 POP PUSH1 0x0 SWAP3 SWAP2 SWAP3 MSTORE PUSH1 0x20 PUSH1 0x0 KECCAK256 SWAP1 PUSH1 0x0 SWAP2 JUMPDEST DUP2 DUP4 LT PUSH2 0x6B1 JUMPI POP POP SWAP1 PUSH1 0x20 PUSH2 0x683 SWAP3 DUP3 ADD ADD CODESIZE PUSH2 0x676 JUMP JUMPDEST PUSH1 0x20 SWAP2 SWAP4 POP DUP1 PUSH1 0x1 SWAP2 SLOAD DUP4 DUP6 DUP9 ADD ADD MSTORE ADD SWAP2 ADD SWAP1 SWAP2 DUP4 SWAP3 PUSH2 0x698 JUMP JUMPDEST SWAP1 POP PUSH1 0x20 SWAP3 POP PUSH2 0x683 SWAP5 SWAP2 POP PUSH1 0xFF NOT AND DUP3 DUP5 ADD MSTORE ISZERO ISZERO PUSH1 0x5 SHL DUP3 ADD ADD CODESIZE PUSH2 0x676 JUMP JUMPDEST DUP1 MLOAD DUP3 LT ISZERO PUSH2 0x703 JUMPI PUSH1 0x20 SWAP2 PUSH1 0x5 SHL ADD ADD SWAP1 JUMP JUMPDEST PUSH4 0x4E487B71 PUSH1 0xE0 SHL PUSH1 0x0 MSTORE PUSH1 0x32 PUSH1 0x4 MSTORE PUSH1 0x24 PUSH1 0x0 REVERT JUMPDEST SWAP1 PUSH1 0x1 DUP3 DUP2 SHR SWAP3 AND DUP1 ISZERO PUSH2 0x749 JUMPI JUMPDEST PUSH1 0x20 DUP4 LT EQ PUSH2 0x733 JUMPI JUMP JUMPDEST PUSH4 0x4E487B71 PUSH1 0xE0 SHL PUSH1 0x0 MSTORE PUSH1 0x22 PUSH1 0x4 MSTORE PUSH1 0x24 PUSH1 0x0 REVERT JUMPDEST SWAP2 PUSH1 0x7F AND SWAP2 PUSH2 0x728 JUMP JUMPDEST PUSH1 0x0 SLOAD PUSH1 0x1 PUSH1 0x1 PUSH1 0xA0 SHL SUB AND CALLER SUB PUSH2 0x767 JUMPI JUMP JUMPDEST PUSH1 0x64 PUSH1 0x40 MLOAD PUSH3 0x461BCD PUSH1 0xE5 SHL DUP2 MSTORE PUSH1 0x20 PUSH1 0x4 DUP3 ADD MSTORE PUSH1 0x20 PUSH1 0x24 DUP3 ADD MSTORE PUSH32 0x4F776E61626C653A2063616C6C6572206973206E6F7420746865206F776E6572 PUSH1 0x44 DUP3 ADD MSTORE REVERT JUMPDEST SWAP1 DUP2 PUSH1 0x0 MSTORE PUSH1 0x1 PUSH1 0x20 MSTORE PUSH1 0x40 PUSH1 0x0 KECCAK256 DUP2 MLOAD PUSH8 0xFFFFFFFFFFFFFFFF DUP2 GT PUSH2 0x55C JUMPI PUSH2 0x7D5 DUP3 SLOAD PUSH2 0x719 JUMP JUMPDEST PUSH1 0x1F DUP2 GT PUSH2 0x8DE JUMPI JUMPDEST POP PUSH1 0x20 PUSH1 0x1F DUP3 GT PUSH1 0x1 EQ PUSH2 0x854 JUMPI SWAP2 DUP2 PUSH32 0xECE574603820D07BC9B91F2A932BAADF4628AABCB8AFBA49776529C14A6104B2 SWAP5 SWAP3 PUSH2 0x844 SWAP5 PUSH1 0x0 SWAP2 PUSH2 0x849 JUMPI JUMPDEST POP DUP2 PUSH1 0x1 SHL SWAP2 PUSH1 0x0 NOT SWAP1 PUSH1 0x3 SHL SHR NOT AND OR SWAP1 SSTORE PUSH1 0x40 MLOAD SWAP2 DUP3 SWAP2 PUSH1 0x20 DUP4 MSTORE PUSH1 0x20 DUP4 ADD SWAP1 PUSH2 0x4F9 JUMP JUMPDEST SUB SWAP1 LOG2 JUMP JUMPDEST SWAP1 POP DUP4 ADD MLOAD CODESIZE PUSH2 0x81D JUMP JUMPDEST PUSH1 0x1F NOT DUP3 AND SWAP1 DUP4 PUSH1 0x0 MSTORE DUP1 PUSH1 0x0 KECCAK256 SWAP2 PUSH1 0x0 JUMPDEST DUP2 DUP2 LT PUSH2 0x8C6 JUMPI POP SWAP3 PUSH2 0x844 SWAP5 SWAP3 PUSH1 0x1 SWAP3 DUP3 PUSH32 0xECE574603820D07BC9B91F2A932BAADF4628AABCB8AFBA49776529C14A6104B2 SWAP9 SWAP7 LT PUSH2 0x8AD JUMPI JUMPDEST POP POP DUP2 SHL ADD SWAP1 SSTORE PUSH2 0x48E JUMP JUMPDEST DUP6 ADD MLOAD PUSH1 0x0 NOT PUSH1 0xF8 DUP5 PUSH1 0x3 SHL AND SHR NOT AND SWAP1 SSTORE CODESIZE DUP1 PUSH2 0x8A1 JUMP JUMPDEST SWAP2 SWAP3 PUSH1 0x20 PUSH1 0x1 DUP2 SWAP3 DUP7 DUP11 ADD MLOAD DUP2 SSTORE ADD SWAP5 ADD SWAP3 ADD PUSH2 0x866 JUMP JUMPDEST DUP3 PUSH1 0x0 MSTORE PUSH1 0x20 PUSH1 0x0 KECCAK256 PUSH1 0x1F DUP4 ADD PUSH1 0x5 SHR DUP2 ADD SWAP2 PUSH1 0x20 DUP5 LT PUSH2 0x91C JUMPI JUMPDEST PUSH1 0x1F ADD PUSH1 0x5 SHR ADD SWAP1 JUMPDEST DUP2 DUP2 LT PUSH2 0x910 JUMPI POP PUSH2 0x7DE JUMP JUMPDEST PUSH1 0x0 DUP2 SSTORE PUSH1 0x1 ADD PUSH2 0x903 JUMP JUMPDEST SWAP1 SWAP2 POP DUP2 SWAP1 PUSH2 0x8FA JUMP INVALID LOG2 PUSH5 0x6970667358 0x22 SLT KECCAK256 DELEGATECALL BALANCE DUP4 0x22 PUSH20 0x20338A68276050D3AC3203D19C70019D89B862E4 SHL RETURNDATACOPY 0xCC 0xE SWAP4 0xA8 0xEF PUSH5 0x736F6C6343 STOP ADDMOD SHR STOP CALLER "},"methodIdentifiers":{"getData(bytes32)":"54f6127f","getDataBatch(bytes32[])":"dedff9c6","owner()":"8da5cb5b","renounceOwnership()":"715018a6","setData(bytes32,bytes)":"7f23690c","setDataBatch(bytes32[],bytes[])":"97902421","supportsInterface(bytes4)":"01ffc9a7","transferOwnership(address)":"f2fde38b"}}}}}